{
    "chain": 84532,
    "commit": "15400f8",
    "libraries": [],
    "pending": [],
    "receipts": [
        {
            "blockHash": "0x8ab1c3cf7720f51197bc7e4065b657d6be7a01ee7f83bf974a884ebb4d051d2a",
            "blockNumber": "0x14367dc",
            "contractAddress": null,
            "cumulativeGasUsed": "0x41e873",
            "effectiveGasPrice": "0xa24b0e7",
            "from": "0x5fcfdc65044bf008a6b473512d34102282ee43a6",
            "gasUsed": "0x1e401",
            "l1BaseFeeScalar": "0x44d",
            "l1BlobBaseFee": "0x1",
            "l1BlobBaseFeeScalar": "0xa118b",
            "l1Fee": "0x2f616e01d",
            "l1GasPrice": "0x1ae5763df",
            "l1GasUsed": "0x640",
            "logs": [],
            "logsBloom": "0x00000000000000000000000000000000000000000000000000000000000000000000000000000000000000000000000000000000000000000000000000000000000000000000000000000000000000000000000000000000000000000000000000000000000000000000000000000000000000000000000000000000000000000000000000000000000000000000000000000000000000000000000000000000000000000000000000000000000000000000000000000000000000000000000000000000000000000000000000000000000000000000000000000000000000000000000000000000000000000000000000000000000000000000000000000000",
            "status": "0x1",
            "to": "0x722a62e23ffe4734d417557b827f7e1aa83ca94e",
            "transactionHash": "0x1e00e0112cc2953e0f65f423da772e74f82a749742b2caa2f0614f8780e62e4a",
            "transactionIndex": "0x24",
            "type": "0x2"
        },
        {
            "blockHash": "0x7db8a74462bc0e4c137b9df10fd77e26a17e8b074f69f2ce679050b2ee443340",
            "blockNumber": "0x14367de",
            "contractAddress": null,
            "cumulativeGasUsed": "0x270543",
            "effectiveGasPrice": "0xa1e3dc4",
            "from": "0x5fcfdc65044bf008a6b473512d34102282ee43a6",
            "gasUsed": "0x1a0c1",
            "l1BaseFeeScalar": "0x44d",
            "l1BlobBaseFee": "0x1",
            "l1BlobBaseFeeScalar": "0xa118b",
            "l1Fee": "0x2e1b79b15",
            "l1GasPrice": "0x1a2c6dc31",
            "l1GasUsed": "0x640",
            "logs": [],
            "logsBloom": "0x00000000000000000000000000000000000000000000000000000000000000000000000000000000000000000000000000000000000000000000000000000000000000000000000000000000000000000000000000000000000000000000000000000000000000000000000000000000000000000000000000000000000000000000000000000000000000000000000000000000000000000000000000000000000000000000000000000000000000000000000000000000000000000000000000000000000000000000000000000000000000000000000000000000000000000000000000000000000000000000000000000000000000000000000000000000",
            "status": "0x1",
            "to": "0x722a62e23ffe4734d417557b827f7e1aa83ca94e",
            "transactionHash": "0x71f07af1b65d6d1fcd32fc8b4fd0f9852dc2a836ecad3ccd47a9eec9f673474c",
            "transactionIndex": "0x17",
            "type": "0x2"
        },
        {
            "blockHash": "0xdeddd4f3a7c54173f8d1aa45a1e915e9829ea52e155a866ecb4467fdd081e8a7",
            "blockNumber": "0x14367e0",
            "contractAddress": null,
            "cumulativeGasUsed": "0x2200db",
            "effectiveGasPrice": "0xa15172f",
            "from": "0x5fcfdc65044bf008a6b473512d34102282ee43a6",
            "gasUsed": "0x1a186",
            "l1BaseFeeScalar": "0x44d",
            "l1BlobBaseFee": "0x1",
            "l1BlobBaseFeeScalar": "0xa118b",
            "l1Fee": "0x2e1b79b15",
            "l1GasPrice": "0x1a2c6dc31",
            "l1GasUsed": "0x640",
            "logs": [],
            "logsBloom": "0x00000000000000000000000000000000000000000000000000000000000000000000000000000000000000000000000000000000000000000000000000000000000000000000000000000000000000000000000000000000000000000000000000000000000000000000000000000000000000000000000000000000000000000000000000000000000000000000000000000000000000000000000000000000000000000000000000000000000000000000000000000000000000000000000000000000000000000000000000000000000000000000000000000000000000000000000000000000000000000000000000000000000000000000000000000000",
            "status": "0x1",
            "to": "0x722a62e23ffe4734d417557b827f7e1aa83ca94e",
            "transactionHash": "0x47b5fad40bba3f786fad6da9fb5cd35288f0a1141ec60e62e5476cce6d9a9024",
            "transactionIndex": "0x17",
            "type": "0x2"
        }
    ],
    "returns": {},
    "timestamp": 1738157728,
    "transactions": [
        {
            "additionalContracts": [],
            "arguments": ["0x5B83Dc5939dE79A48c7F428F76A96B2C309d644B"],
            "contractAddress": "0x722a62e23ffe4734d417557b827f7e1aa83ca94e",
            "contractName": null,
            "function": "installSubmodule(address)",
            "hash": "0x1e00e0112cc2953e0f65f423da772e74f82a749742b2caa2f0614f8780e62e4a",
            "isFixedGasLimit": false,
            "transaction": {
                "chainId": "0x14a34",
                "from": "0x5fcfdc65044bf008a6b473512d34102282ee43a6",
                "gas": "0x2c3da",
                "input": "0x3ba51c0a0000000000000000000000005b83dc5939de79a48c7f428f76a96b2c309d644b",
                "nonce": "0xae",
                "to": "0x722a62e23ffe4734d417557b827f7e1aa83ca94e",
                "value": "0x0"
            },
            "transactionType": "CALL"
        },
        {
            "additionalContracts": [],
            "arguments": ["0x914675d21D2C5Fb9a97724dE0bF44969005Cf371"],
            "contractAddress": "0x722a62e23ffe4734d417557b827f7e1aa83ca94e",
            "contractName": null,
            "function": "installSubmodule(address)",
            "hash": "0x71f07af1b65d6d1fcd32fc8b4fd0f9852dc2a836ecad3ccd47a9eec9f673474c",
            "isFixedGasLimit": false,
            "transaction": {
                "chainId": "0x14a34",
                "from": "0x5fcfdc65044bf008a6b473512d34102282ee43a6",
                "gas": "0x26180",
                "input": "0x3ba51c0a000000000000000000000000914675d21d2c5fb9a97724de0bf44969005cf371",
                "nonce": "0xaf",
                "to": "0x722a62e23ffe4734d417557b827f7e1aa83ca94e",
                "value": "0x0"
            },
            "transactionType": "CALL"
        },
        {
            "additionalContracts": [],
            "arguments": ["0x505eC9A905210E8165543398ea0ab48565AC5A45"],
            "contractAddress": "0x722a62e23ffe4734d417557b827f7e1aa83ca94e",
            "contractName": null,
            "function": "installSubmodule(address)",
            "hash": "0x47b5fad40bba3f786fad6da9fb5cd35288f0a1141ec60e62e5476cce6d9a9024",
            "isFixedGasLimit": false,
            "transaction": {
                "chainId": "0x14a34",
                "from": "0x5fcfdc65044bf008a6b473512d34102282ee43a6",
                "gas": "0x240b3",
                "input": "0x3ba51c0a000000000000000000000000505ec9a905210e8165543398ea0ab48565ac5a45",
                "nonce": "0xb0",
                "to": "0x722a62e23ffe4734d417557b827f7e1aa83ca94e",
                "value": "0x0"
            },
            "transactionType": "CALL"
        }
    ]
}
