{
    "chain": 84532,
    "commit": "c5b737f",
    "libraries": [],
    "pending": [],
    "receipts": [
        {
            "blockHash": "0xb09f4c3738afec8c9dccad55670124ce3b06f2687dd9b9e4e8577e91cd7a70a0",
            "blockNumber": "0x12bcef6",
            "contractAddress": null,
            "cumulativeGasUsed": "0x1e7795",
            "effectiveGasPrice": "0x39f",
            "from": "0x5fcfdc65044bf008a6b473512d34102282ee43a6",
            "gasUsed": "0x113c1",
            "l1BaseFeeScalar": "0x44d",
            "l1BlobBaseFee": "0x66",
            "l1BlobBaseFeeScalar": "0xa118b",
            "l1Fee": "0x1609cfefc",
            "l1GasPrice": "0xc82a8f4f",
            "l1GasUsed": "0x640",
            "logs": [
                {
                    "address": "0x13e0d709cd3caf97e2c5bd3c3961db4d54aa5b50",
                    "blockHash": "0xb09f4c3738afec8c9dccad55670124ce3b06f2687dd9b9e4e8577e91cd7a70a0",
                    "blockNumber": "0x12bcef6",
                    "data": "0x",
                    "logIndex": "0x26",
                    "removed": false,
                    "topics": [
                        "0x2ae6a113c0ed5b78a53413ffbb7679881f11145ccfba4fb92e863dfcd5a1d2f3",
                        "0x61646d696e000000000000000000000000000000000000000000000000000000",
                        "0x0000000000000000000000005fcfdc65044bf008a6b473512d34102282ee43a6"
                    ],
                    "transactionHash": "0xb9f3aeb236dc2a0ea73c312c0747b09d48decacf1e76ec9f675ae350ce2f2b02",
                    "transactionIndex": "0x14"
                }
            ],
            "logsBloom": "0x00000000000000000000000000000040000000000000400000000000000000000000080000000000000000000000000020000000000000000000000000000000000000000000000000400000000000000000000000000000000000000000000000200000000000000000000004000400000000000000800000000000000000000000000000000000000000000000000000000000000000000000000000000000000000000000000000000000000000000000000000000000000000800000000000000000000000000000000000000000000000000000000000000000000000000000004000000000000000000000000000000000020000000000000000000000",
            "status": "0x1",
            "to": "0xbaa01f5c04164594bb9b7f72f2eb92dae74e14ec",
            "transactionHash": "0xb9f3aeb236dc2a0ea73c312c0747b09d48decacf1e76ec9f675ae350ce2f2b02",
            "transactionIndex": "0x14",
            "type": "0x2"
        }
    ],
    "returns": {},
    "timestamp": 1735064781,
    "transactions": [
        {
            "additionalContracts": [],
            "arguments": [
                "0x61646d696e000000000000000000000000000000000000000000000000000000",
                "0x5fCfdc65044bf008A6b473512D34102282Ee43a6"
            ],
            "contractAddress": "0xbaa01f5c04164594bb9b7f72f2eb92dae74e14ec",
            "contractName": null,
            "function": "grantRole(bytes32,address)",
            "hash": "0xb9f3aeb236dc2a0ea73c312c0747b09d48decacf1e76ec9f675ae350ce2f2b02",
            "isFixedGasLimit": false,
            "transaction": {
                "chainId": "0x14a34",
                "from": "0x5fcfdc65044bf008a6b473512d34102282ee43a6",
                "gas": "0x1934a",
                "input": "0x2f2ff15d61646d696e0000000000000000000000000000000000000000000000000000000000000000000000000000005fcfdc65044bf008a6b473512d34102282ee43a6",
                "nonce": "0x7d",
                "to": "0xbaa01f5c04164594bb9b7f72f2eb92dae74e14ec",
                "value": "0x0"
            },
            "transactionType": "CALL"
        }
    ]
}
