{
    "chain": 84532,
    "commit": "15400f8",
    "libraries": [],
    "pending": [],
    "receipts": [
        {
            "blockHash": "0xccbbea8bb8e8bb394776f1d1125098729e8219931029bb0dd6a92c7803a4ff8f",
            "blockNumber": "0x1436759",
            "contractAddress": null,
            "cumulativeGasUsed": "0x2fa01b",
            "effectiveGasPrice": "0xb293353",
            "from": "0x5fcfdc65044bf008a6b473512d34102282ee43a6",
            "gasUsed": "0x113c1",
            "l1BaseFeeScalar": "0x44d",
            "l1BlobBaseFee": "0x1",
            "l1BlobBaseFeeScalar": "0xa118b",
            "l1Fee": "0x2cf2e900f",
            "l1GasPrice": "0x1984142fc",
            "l1GasUsed": "0x640",
            "logs": [
                {
                    "address": "0xbdfd2d1515ff348d8edafdc972b5c6df93f6b853",
                    "blockHash": "0xccbbea8bb8e8bb394776f1d1125098729e8219931029bb0dd6a92c7803a4ff8f",
                    "blockNumber": "0x1436759",
                    "data": "0x",
                    "logIndex": "0x41",
                    "removed": false,
                    "topics": [
                        "0x2ae6a113c0ed5b78a53413ffbb7679881f11145ccfba4fb92e863dfcd5a1d2f3",
                        "0x61646d696e000000000000000000000000000000000000000000000000000000",
                        "0x0000000000000000000000005fcfdc65044bf008a6b473512d34102282ee43a6"
                    ],
                    "transactionHash": "0x278cf25b870b2bbf933dc4a9a95319d6919824ef19329b7591161ddbca93009f",
                    "transactionIndex": "0x1b"
                }
            ],
            "logsBloom": "0x00000000000000000100000000000040000000000000000000000000000000000000000000000000000000000000000020000000000000000000000000000000000000000000000000400000000000000000000000000000000000000000000000200000000000000000000004000400000000000000800000000000000000000000000000000000000000000000000000000000000000000000000000000000000000000000000000000000000000000000000000000000000000800008000000000000000000000000000000000000000000000000000000000000002000000000004000000000000000000000000000000000000000000000000000000000",
            "status": "0x1",
            "to": "0xbe6c5b3ea7f24c007ec23436ae0c8a986824e9fb",
            "transactionHash": "0x278cf25b870b2bbf933dc4a9a95319d6919824ef19329b7591161ddbca93009f",
            "transactionIndex": "0x1b",
            "type": "0x2"
        }
    ],
    "returns": {},
    "timestamp": 1738157458,
    "transactions": [
        {
            "additionalContracts": [],
            "arguments": [
                "0x61646d696e000000000000000000000000000000000000000000000000000000",
                "0x5fCfdc65044bf008A6b473512D34102282Ee43a6"
            ],
            "contractAddress": "0xbe6c5b3ea7f24c007ec23436ae0c8a986824e9fb",
            "contractName": null,
            "function": "grantRole(bytes32,address)",
            "hash": "0x278cf25b870b2bbf933dc4a9a95319d6919824ef19329b7591161ddbca93009f",
            "isFixedGasLimit": false,
            "transaction": {
                "chainId": "0x14a34",
                "from": "0x5fcfdc65044bf008a6b473512d34102282ee43a6",
                "gas": "0x1934a",
                "input": "0x2f2ff15d61646d696e0000000000000000000000000000000000000000000000000000000000000000000000000000005fcfdc65044bf008a6b473512d34102282ee43a6",
                "nonce": "0xac",
                "to": "0xbe6c5b3ea7f24c007ec23436ae0c8a986824e9fb",
                "value": "0x0"
            },
            "transactionType": "CALL"
        }
    ]
}
