{
    "chain": 84532,
    "commit": "089a9e6",
    "libraries": [],
    "pending": [],
    "receipts": [
        {
            "blockHash": "0x2dd33767fabe54319b9df31039dcd0c86c70f26b7d7767bea11270a11ced01f1",
            "blockNumber": "0x14369a1",
            "contractAddress": null,
            "cumulativeGasUsed": "0x2070fa",
            "effectiveGasPrice": "0x7e66fd3",
            "from": "0x5fcfdc65044bf008a6b473512d34102282ee43a6",
            "gasUsed": "0xe854",
            "l1BaseFeeScalar": "0x44d",
            "l1BlobBaseFee": "0x1",
            "l1BlobBaseFeeScalar": "0xa118b",
            "l1Fee": "0x3ba67ff98",
            "l1GasPrice": "0x21dc8a351",
            "l1GasUsed": "0x640",
            "logs": [],
            "logsBloom": "0x00000000000000000000000000000000000000000000000000000000000000000000000000000000000000000000000000000000000000000000000000000000000000000000000000000000000000000000000000000000000000000000000000000000000000000000000000000000000000000000000000000000000000000000000000000000000000000000000000000000000000000000000000000000000000000000000000000000000000000000000000000000000000000000000000000000000000000000000000000000000000000000000000000000000000000000000000000000000000000000000000000000000000000000000000000000",
            "status": "0x1",
            "to": "0xe752f0deba44aa2fe6bdbbd6dc3e04880d7f84df",
            "transactionHash": "0xc08c012633d80b3b7335f853fa355c8f10e30c8261cdb2d0e515676da0c461cf",
            "transactionIndex": "0x1a",
            "type": "0x2"
        }
    ],
    "returns": {},
    "timestamp": 1738158627,
    "transactions": [
        {
            "additionalContracts": [],
            "arguments": ["0", "0", "0", "1000000000000000000"],
            "contractAddress": "0xe752f0deba44aa2fe6bdbbd6dc3e04880d7f84df",
            "contractName": null,
            "function": "initialize(uint48,uint24,uint48,uint256)",
            "hash": "0xc08c012633d80b3b7335f853fa355c8f10e30c8261cdb2d0e515676da0c461cf",
            "isFixedGasLimit": false,
            "transaction": {
                "chainId": "0x14a34",
                "from": "0x5fcfdc65044bf008a6b473512d34102282ee43a6",
                "gas": "0x140e6",
                "input": "0x9234d7810000000000000000000000000000000000000000000000000000000000000000000000000000000000000000000000000000000000000000000000000000000000000000000000000000000000000000000000000000000000000000000000000000000000000000000000000000000000000000000000000de0b6b3a7640000",
                "nonce": "0xb1",
                "to": "0xe752f0deba44aa2fe6bdbbd6dc3e04880d7f84df",
                "value": "0x0"
            },
            "transactionType": "CALL"
        }
    ]
}
