{
    "chain": 84532,
    "commit": "15400f8",
    "libraries": [],
    "pending": [],
    "receipts": [
        {
            "blockHash": "0x3a9e7d245aae770c5e61e129367b9f805625c422d3a97333bae05dcaba4e30c3",
            "blockNumber": "0x1436791",
            "contractAddress": null,
            "cumulativeGasUsed": "0x2a2ffe",
            "effectiveGasPrice": "0xad1b658",
            "from": "0x5fcfdc65044bf008a6b473512d34102282ee43a6",
            "gasUsed": "0x11393",
            "l1BaseFeeScalar": "0x44d",
            "l1BlobBaseFee": "0x1",
            "l1BlobBaseFeeScalar": "0xa118b",
            "l1Fee": "0x2c4cb95e7",
            "l1GasPrice": "0x1925bd9f3",
            "l1GasUsed": "0x640",
            "logs": [
                {
                    "address": "0xbdfd2d1515ff348d8edafdc972b5c6df93f6b853",
                    "blockHash": "0x3a9e7d245aae770c5e61e129367b9f805625c422d3a97333bae05dcaba4e30c3",
                    "blockNumber": "0x1436791",
                    "data": "0x",
                    "logIndex": "0x41",
                    "removed": false,
                    "topics": [
                        "0x2ae6a113c0ed5b78a53413ffbb7679881f11145ccfba4fb92e863dfcd5a1d2f3",
                        "0x6d616e6167657200000000000000000000000000000000000000000000000000",
                        "0x0000000000000000000000005fcfdc65044bf008a6b473512d34102282ee43a6"
                    ],
                    "transactionHash": "0x24a14a51523c9e566cc8472a7e1cf93d025e017a3091261e4e000217fc2645aa",
                    "transactionIndex": "0x18"
                }
            ],
            "logsBloom": "0x00000000000000000100000000000040000000200000000000000000000000000000000000000000000000000000000020000000000000000000000000000000200000000000000000400000000000000000000000000000000000000000000000000000000000000000000004000000000000000000800000000000000000000000000000000000000000000000000000000200000000000000000000000000000000000000000000000000000000000000000000000000000000000008000000000000000000000000000000000000000000000000000000000000002000000000004000000000000000000000000000000000000000000000000000000000",
            "status": "0x1",
            "to": "0xbe6c5b3ea7f24c007ec23436ae0c8a986824e9fb",
            "transactionHash": "0x24a14a51523c9e566cc8472a7e1cf93d025e017a3091261e4e000217fc2645aa",
            "transactionIndex": "0x18",
            "type": "0x2"
        }
    ],
    "returns": {},
    "timestamp": 1738157571,
    "transactions": [
        {
            "additionalContracts": [],
            "arguments": [
                "0x6d616e6167657200000000000000000000000000000000000000000000000000",
                "0x5fCfdc65044bf008A6b473512D34102282Ee43a6"
            ],
            "contractAddress": "0xbe6c5b3ea7f24c007ec23436ae0c8a986824e9fb",
            "contractName": null,
            "function": "grantRole(bytes32,address)",
            "hash": "0x24a14a51523c9e566cc8472a7e1cf93d025e017a3091261e4e000217fc2645aa",
            "isFixedGasLimit": false,
            "transaction": {
                "chainId": "0x14a34",
                "from": "0x5fcfdc65044bf008a6b473512d34102282ee43a6",
                "gas": "0x19306",
                "input": "0x2f2ff15d6d616e61676572000000000000000000000000000000000000000000000000000000000000000000000000005fcfdc65044bf008a6b473512d34102282ee43a6",
                "nonce": "0xad",
                "to": "0xbe6c5b3ea7f24c007ec23436ae0c8a986824e9fb",
                "value": "0x0"
            },
            "transactionType": "CALL"
        }
    ]
}
