{
    "chain": 84532,
    "commit": "c5b737f",
    "libraries": [],
    "pending": [],
    "receipts": [
        {
            "blockHash": "0x478b12d9982b0312c24e88fd03ea8b934511520fcd7f83fc3b909030ea7eb7d0",
            "blockNumber": "0x12bcf04",
            "contractAddress": null,
            "cumulativeGasUsed": "0x38a360",
            "effectiveGasPrice": "0x45a",
            "from": "0x5fcfdc65044bf008a6b473512d34102282ee43a6",
            "gasUsed": "0x11393",
            "l1BaseFeeScalar": "0x44d",
            "l1BlobBaseFee": "0x6a",
            "l1BlobBaseFeeScalar": "0xa118b",
            "l1Fee": "0x15bd712f0",
            "l1GasPrice": "0xc574ea09",
            "l1GasUsed": "0x640",
            "logs": [
                {
                    "address": "0x13e0d709cd3caf97e2c5bd3c3961db4d54aa5b50",
                    "blockHash": "0x478b12d9982b0312c24e88fd03ea8b934511520fcd7f83fc3b909030ea7eb7d0",
                    "blockNumber": "0x12bcf04",
                    "data": "0x",
                    "logIndex": "0x4a",
                    "removed": false,
                    "topics": [
                        "0x2ae6a113c0ed5b78a53413ffbb7679881f11145ccfba4fb92e863dfcd5a1d2f3",
                        "0x6d616e6167657200000000000000000000000000000000000000000000000000",
                        "0x0000000000000000000000005fcfdc65044bf008a6b473512d34102282ee43a6"
                    ],
                    "transactionHash": "0x9036c16d77a208762a6d07ef10c9618c63a4bc5d708798e8f7206e4b86aa9645",
                    "transactionIndex": "0x1f"
                }
            ],
            "logsBloom": "0x00000000000000000000000000000040000000200000400000000000000000000000080000000000000000000000000020000000000000000000000000000000200000000000000000400000000000000000000000000000000000000000000000000000000000000000000004000000000000000000800000000000000000000000000000000000000000000000000000000200000000000000000000000000000000000000000000000000000000000000000000000000000000000000000000000000000000000000000000000000000000000000000000000000000000000000004000000000000000000000000000000000020000000000000000000000",
            "status": "0x1",
            "to": "0xbaa01f5c04164594bb9b7f72f2eb92dae74e14ec",
            "transactionHash": "0x9036c16d77a208762a6d07ef10c9618c63a4bc5d708798e8f7206e4b86aa9645",
            "transactionIndex": "0x1f",
            "type": "0x2"
        }
    ],
    "returns": {},
    "timestamp": 1735064809,
    "transactions": [
        {
            "additionalContracts": [],
            "arguments": [
                "0x6d616e6167657200000000000000000000000000000000000000000000000000",
                "0x5fCfdc65044bf008A6b473512D34102282Ee43a6"
            ],
            "contractAddress": "0xbaa01f5c04164594bb9b7f72f2eb92dae74e14ec",
            "contractName": null,
            "function": "grantRole(bytes32,address)",
            "hash": "0x9036c16d77a208762a6d07ef10c9618c63a4bc5d708798e8f7206e4b86aa9645",
            "isFixedGasLimit": false,
            "transaction": {
                "chainId": "0x14a34",
                "from": "0x5fcfdc65044bf008a6b473512d34102282ee43a6",
                "gas": "0x19306",
                "input": "0x2f2ff15d6d616e61676572000000000000000000000000000000000000000000000000000000000000000000000000005fcfdc65044bf008a6b473512d34102282ee43a6",
                "nonce": "0x7e",
                "to": "0xbaa01f5c04164594bb9b7f72f2eb92dae74e14ec",
                "value": "0x0"
            },
            "transactionType": "CALL"
        }
    ]
}
