{
    "chain": 84532,
    "commit": "c5b737f",
    "libraries": [],
    "pending": [],
    "receipts": [
        {
            "blockHash": "0x42009cf99611df27b8de9ddc0dcd68a0be155c890872564cc71e79ea39e723f6",
            "blockNumber": "0x12bcecb",
            "contractAddress": null,
            "cumulativeGasUsed": "0x1879fd",
            "effectiveGasPrice": "0x432",
            "from": "0x5fcfdc65044bf008a6b473512d34102282ee43a6",
            "gasUsed": "0x1de23",
            "l1BaseFeeScalar": "0x44d",
            "l1BlobBaseFee": "0x51",
            "l1BlobBaseFeeScalar": "0xa118b",
            "l1Fee": "0x15f9a91b3",
            "l1GasPrice": "0xc797df28",
            "l1GasUsed": "0x640",
            "logs": [
                {
                    "address": "0x8823062f9406f31cc52cc24a70a8415d982e245b",
                    "blockHash": "0x42009cf99611df27b8de9ddc0dcd68a0be155c890872564cc71e79ea39e723f6",
                    "blockNumber": "0x12bcecb",
                    "data": "0x",
                    "logIndex": "0x22",
                    "removed": false,
                    "topics": [
                        "0x6560dd86d70bf03c0005b3533cc115fa8b8a12b4ee11c7342ae7b32d82267c90",
                        "0x0000000000000000000000000000000000000000000000000000000000000000",
                        "0x00000000000000000000000013e0d709cd3caf97e2c5bd3c3961db4d54aa5b50"
                    ],
                    "transactionHash": "0xbf1f66a32c53d5f34907d31ba4c930e952b7aa7d261448419a291f746a48d972",
                    "transactionIndex": "0x15"
                }
            ],
            "logsBloom": "0x80000000000000000000000000000000000000002000000000000000000008000000000000000000000000000000000000000000000000000000000000000000000000000000000000000000000000000000000000000000000000000000000000000000020000000000000000000800000042000040000100000000000000000000000000000000000000000000000000000000000000000000000000000000000000000000000000000000000000000000000000000000000000000000000000000000000000000000000000000000000000000000000000000000008020000000000000000000400000000000000000000000000000000000000000000000",
            "status": "0x1",
            "to": "0x8823062f9406f31cc52cc24a70a8415d982e245b",
            "transactionHash": "0xbf1f66a32c53d5f34907d31ba4c930e952b7aa7d261448419a291f746a48d972",
            "transactionIndex": "0x15",
            "type": "0x2"
        },
        {
            "blockHash": "0xa02c88efd5c37c472ddb3a487b6a49cbef07eec585d638249805cb7911962038",
            "blockNumber": "0x12bcecd",
            "contractAddress": null,
            "cumulativeGasUsed": "0x31bf2b",
            "effectiveGasPrice": "0x432",
            "from": "0x5fcfdc65044bf008a6b473512d34102282ee43a6",
            "gasUsed": "0x159c7",
            "l1BaseFeeScalar": "0x44d",
            "l1BlobBaseFee": "0x51",
            "l1BlobBaseFeeScalar": "0xa118b",
            "l1Fee": "0x15f9a91b3",
            "l1GasPrice": "0xc797df28",
            "l1GasUsed": "0x640",
            "logs": [
                {
                    "address": "0x8823062f9406f31cc52cc24a70a8415d982e245b",
                    "blockHash": "0xa02c88efd5c37c472ddb3a487b6a49cbef07eec585d638249805cb7911962038",
                    "blockNumber": "0x12bcecd",
                    "data": "0x",
                    "logIndex": "0x53",
                    "removed": false,
                    "topics": [
                        "0x6560dd86d70bf03c0005b3533cc115fa8b8a12b4ee11c7342ae7b32d82267c90",
                        "0x0000000000000000000000000000000000000000000000000000000000000000",
                        "0x000000000000000000000000f3711caf818d6932da1e31aacf27167c989cd886"
                    ],
                    "transactionHash": "0x643ee9ab36935ac07d3999016403fef26723fb5ea32e2762ebe811dc23cfacbd",
                    "transactionIndex": "0x12"
                }
            ],
            "logsBloom": "0x80000000000000000000000000000000001000002000000000000000000000000000000000000000000000000000000000000000000000000000000000000000000000000000000000000000000000000000000000001000000000000000000000000000020000000000000000000800000000000040000100000000000000000000000000000000000000000000000000000000000000000000000000000000000000000000000000000000000000000000020000000000000000000000000000000000000000000000000000000000000000000000000000000000008020000000000000000000400000000000000000000000000000000000000000000000",
            "status": "0x1",
            "to": "0x8823062f9406f31cc52cc24a70a8415d982e245b",
            "transactionHash": "0x643ee9ab36935ac07d3999016403fef26723fb5ea32e2762ebe811dc23cfacbd",
            "transactionIndex": "0x12",
            "type": "0x2"
        },
        {
            "blockHash": "0x72c13fe9c7de321d1beb017fa1b6e806ba5a3bd1f73ca97a5996723242ef6729",
            "blockNumber": "0x12bcecf",
            "contractAddress": null,
            "cumulativeGasUsed": "0x1f670e",
            "effectiveGasPrice": "0x432",
            "from": "0x5fcfdc65044bf008a6b473512d34102282ee43a6",
            "gasUsed": "0x15985",
            "l1BaseFeeScalar": "0x44d",
            "l1BlobBaseFee": "0x54",
            "l1BlobBaseFeeScalar": "0xa118b",
            "l1Fee": "0x150d44205",
            "l1GasPrice": "0xbf34c80a",
            "l1GasUsed": "0x640",
            "logs": [
                {
                    "address": "0x8823062f9406f31cc52cc24a70a8415d982e245b",
                    "blockHash": "0x72c13fe9c7de321d1beb017fa1b6e806ba5a3bd1f73ca97a5996723242ef6729",
                    "blockNumber": "0x12bcecf",
                    "data": "0x",
                    "logIndex": "0x2e",
                    "removed": false,
                    "topics": [
                        "0x6560dd86d70bf03c0005b3533cc115fa8b8a12b4ee11c7342ae7b32d82267c90",
                        "0x0000000000000000000000000000000000000000000000000000000000000000",
                        "0x000000000000000000000000db7d54d78081878731b9939f01c16a4031c43e21"
                    ],
                    "transactionHash": "0x00fbb44bd86e2f9805162adc06cee2c22137b1060e2e3f38e133acac13d57265",
                    "transactionIndex": "0x14"
                }
            ],
            "logsBloom": "0x80000000000000000000000000000000000000002000000000000000000000000000000000000000000000000000000000000000000000000000000000000000000000000000000000000000004000000000000000000000000000000000000001000000020000000000000000000800000000000040000100000000000000000000000000000000000000000000000000000000000000000000000000000000000000000000000000000000000000000000000000000000000000000000000000000000000000000000000000000000000000000000000000000000008020000000000000002000400000000000000000000000000000000000000000000000",
            "status": "0x1",
            "to": "0x8823062f9406f31cc52cc24a70a8415d982e245b",
            "transactionHash": "0x00fbb44bd86e2f9805162adc06cee2c22137b1060e2e3f38e133acac13d57265",
            "transactionIndex": "0x14",
            "type": "0x2"
        },
        {
            "blockHash": "0xbe1a2f53b8a23cab74d0f1170685e64d2a07be918287d42089ac82519abe1350",
            "blockNumber": "0x12bced1",
            "contractAddress": null,
            "cumulativeGasUsed": "0x1a0527",
            "effectiveGasPrice": "0x433",
            "from": "0x5fcfdc65044bf008a6b473512d34102282ee43a6",
            "gasUsed": "0x32afb",
            "l1BaseFeeScalar": "0x44d",
            "l1BlobBaseFee": "0x54",
            "l1BlobBaseFeeScalar": "0xa118b",
            "l1Fee": "0x150d44205",
            "l1GasPrice": "0xbf34c80a",
            "l1GasUsed": "0x640",
            "logs": [
                {
                    "address": "0x8823062f9406f31cc52cc24a70a8415d982e245b",
                    "blockHash": "0xbe1a2f53b8a23cab74d0f1170685e64d2a07be918287d42089ac82519abe1350",
                    "blockNumber": "0x12bced1",
                    "data": "0x656361ff000000000000000000000000000000000000000000000000000000000000000000000000000000000000000000000000000000000000000000000001",
                    "logIndex": "0x27",
                    "removed": false,
                    "topics": [
                        "0xf3cdd20c5574ce87c347ea71e37b8fa7a095894be4b7f2bb1533e8d2342965f1",
                        "0x524f4c4553000000000000000000000000000000000000000000000000000000",
                        "0x000000000000000000000000baa01f5c04164594bb9b7f72f2eb92dae74e14ec"
                    ],
                    "transactionHash": "0xdcbfdf2295354be991593826c3b3ad43818369f4bea5c7b23fb4f45b32b548eb",
                    "transactionIndex": "0x11"
                },
                {
                    "address": "0x8823062f9406f31cc52cc24a70a8415d982e245b",
                    "blockHash": "0xbe1a2f53b8a23cab74d0f1170685e64d2a07be918287d42089ac82519abe1350",
                    "blockNumber": "0x12bced1",
                    "data": "0xf6ba0007000000000000000000000000000000000000000000000000000000000000000000000000000000000000000000000000000000000000000000000001",
                    "logIndex": "0x28",
                    "removed": false,
                    "topics": [
                        "0xf3cdd20c5574ce87c347ea71e37b8fa7a095894be4b7f2bb1533e8d2342965f1",
                        "0x524f4c4553000000000000000000000000000000000000000000000000000000",
                        "0x000000000000000000000000baa01f5c04164594bb9b7f72f2eb92dae74e14ec"
                    ],
                    "transactionHash": "0xdcbfdf2295354be991593826c3b3ad43818369f4bea5c7b23fb4f45b32b548eb",
                    "transactionIndex": "0x11"
                },
                {
                    "address": "0x8823062f9406f31cc52cc24a70a8415d982e245b",
                    "blockHash": "0xbe1a2f53b8a23cab74d0f1170685e64d2a07be918287d42089ac82519abe1350",
                    "blockNumber": "0x12bced1",
                    "data": "0x",
                    "logIndex": "0x29",
                    "removed": false,
                    "topics": [
                        "0x6560dd86d70bf03c0005b3533cc115fa8b8a12b4ee11c7342ae7b32d82267c90",
                        "0x0000000000000000000000000000000000000000000000000000000000000002",
                        "0x000000000000000000000000baa01f5c04164594bb9b7f72f2eb92dae74e14ec"
                    ],
                    "transactionHash": "0xdcbfdf2295354be991593826c3b3ad43818369f4bea5c7b23fb4f45b32b548eb",
                    "transactionIndex": "0x11"
                }
            ],
            "logsBloom": "0x84000000000000000000000000000000000000002000000000000000000008000000000000000000000000000000000000000000000000000000000000000000000000000000000000000000000000000020000100000000000000000000000000000000000000000000000000000000000000000040000100000000000000002000000000000000000000000080000000000000000000000000000000000000000000000000000000000100000000000000000000000000000000000000100000000000000000000000000000000000000000000000000000000000008000040000000000001000400000000000000000000000008000000000000000000000",
            "status": "0x1",
            "to": "0x8823062f9406f31cc52cc24a70a8415d982e245b",
            "transactionHash": "0xdcbfdf2295354be991593826c3b3ad43818369f4bea5c7b23fb4f45b32b548eb",
            "transactionIndex": "0x11",
            "type": "0x2"
        },
        {
            "blockHash": "0x3ec78e8214b20482f38bd9bd38b9aeb3d0a28c9453fbbff057f852b6ebcc1dd4",
            "blockNumber": "0x12bced3",
            "contractAddress": null,
            "cumulativeGasUsed": "0x1ad31a",
            "effectiveGasPrice": "0x432",
            "from": "0x5fcfdc65044bf008a6b473512d34102282ee43a6",
            "gasUsed": "0x6073e",
            "l1BaseFeeScalar": "0x44d",
            "l1BlobBaseFee": "0x54",
            "l1BlobBaseFeeScalar": "0xa118b",
            "l1Fee": "0x150d44205",
            "l1GasPrice": "0xbf34c80a",
            "l1GasUsed": "0x640",
            "logs": [
                {
                    "address": "0x8823062f9406f31cc52cc24a70a8415d982e245b",
                    "blockHash": "0x3ec78e8214b20482f38bd9bd38b9aeb3d0a28c9453fbbff057f852b6ebcc1dd4",
                    "blockNumber": "0x12bced3",
                    "data": "0x2f42aef5000000000000000000000000000000000000000000000000000000000000000000000000000000000000000000000000000000000000000000000001",
                    "logIndex": "0x1d",
                    "removed": false,
                    "topics": [
                        "0xf3cdd20c5574ce87c347ea71e37b8fa7a095894be4b7f2bb1533e8d2342965f1",
                        "0x5452535259000000000000000000000000000000000000000000000000000000",
                        "0x000000000000000000000000db427c6e665a3aa04e456fbbeac69e823f84b5f2"
                    ],
                    "transactionHash": "0x69f388542af791556c893678eea0af2a791111023633e18b9649291ba3e2e451",
                    "transactionIndex": "0xa"
                },
                {
                    "address": "0x8823062f9406f31cc52cc24a70a8415d982e245b",
                    "blockHash": "0x3ec78e8214b20482f38bd9bd38b9aeb3d0a28c9453fbbff057f852b6ebcc1dd4",
                    "blockNumber": "0x12bced3",
                    "data": "0xe6eb207a000000000000000000000000000000000000000000000000000000000000000000000000000000000000000000000000000000000000000000000001",
                    "logIndex": "0x1e",
                    "removed": false,
                    "topics": [
                        "0xf3cdd20c5574ce87c347ea71e37b8fa7a095894be4b7f2bb1533e8d2342965f1",
                        "0x5452535259000000000000000000000000000000000000000000000000000000",
                        "0x000000000000000000000000db427c6e665a3aa04e456fbbeac69e823f84b5f2"
                    ],
                    "transactionHash": "0x69f388542af791556c893678eea0af2a791111023633e18b9649291ba3e2e451",
                    "transactionIndex": "0xa"
                },
                {
                    "address": "0x8823062f9406f31cc52cc24a70a8415d982e245b",
                    "blockHash": "0x3ec78e8214b20482f38bd9bd38b9aeb3d0a28c9453fbbff057f852b6ebcc1dd4",
                    "blockNumber": "0x12bced3",
                    "data": "0x8b7f3fb9000000000000000000000000000000000000000000000000000000000000000000000000000000000000000000000000000000000000000000000001",
                    "logIndex": "0x1f",
                    "removed": false,
                    "topics": [
                        "0xf3cdd20c5574ce87c347ea71e37b8fa7a095894be4b7f2bb1533e8d2342965f1",
                        "0x5452535259000000000000000000000000000000000000000000000000000000",
                        "0x000000000000000000000000db427c6e665a3aa04e456fbbeac69e823f84b5f2"
                    ],
                    "transactionHash": "0x69f388542af791556c893678eea0af2a791111023633e18b9649291ba3e2e451",
                    "transactionIndex": "0xa"
                },
                {
                    "address": "0x8823062f9406f31cc52cc24a70a8415d982e245b",
                    "blockHash": "0x3ec78e8214b20482f38bd9bd38b9aeb3d0a28c9453fbbff057f852b6ebcc1dd4",
                    "blockNumber": "0x12bced3",
                    "data": "0x01a91e5c000000000000000000000000000000000000000000000000000000000000000000000000000000000000000000000000000000000000000000000001",
                    "logIndex": "0x20",
                    "removed": false,
                    "topics": [
                        "0xf3cdd20c5574ce87c347ea71e37b8fa7a095894be4b7f2bb1533e8d2342965f1",
                        "0x5452535259000000000000000000000000000000000000000000000000000000",
                        "0x000000000000000000000000db427c6e665a3aa04e456fbbeac69e823f84b5f2"
                    ],
                    "transactionHash": "0x69f388542af791556c893678eea0af2a791111023633e18b9649291ba3e2e451",
                    "transactionIndex": "0xa"
                },
                {
                    "address": "0x8823062f9406f31cc52cc24a70a8415d982e245b",
                    "blockHash": "0x3ec78e8214b20482f38bd9bd38b9aeb3d0a28c9453fbbff057f852b6ebcc1dd4",
                    "blockNumber": "0x12bced3",
                    "data": "0xfb393f24000000000000000000000000000000000000000000000000000000000000000000000000000000000000000000000000000000000000000000000001",
                    "logIndex": "0x21",
                    "removed": false,
                    "topics": [
                        "0xf3cdd20c5574ce87c347ea71e37b8fa7a095894be4b7f2bb1533e8d2342965f1",
                        "0x5452535259000000000000000000000000000000000000000000000000000000",
                        "0x000000000000000000000000db427c6e665a3aa04e456fbbeac69e823f84b5f2"
                    ],
                    "transactionHash": "0x69f388542af791556c893678eea0af2a791111023633e18b9649291ba3e2e451",
                    "transactionIndex": "0xa"
                },
                {
                    "address": "0x8823062f9406f31cc52cc24a70a8415d982e245b",
                    "blockHash": "0x3ec78e8214b20482f38bd9bd38b9aeb3d0a28c9453fbbff057f852b6ebcc1dd4",
                    "blockNumber": "0x12bced3",
                    "data": "0x4aae164b000000000000000000000000000000000000000000000000000000000000000000000000000000000000000000000000000000000000000000000001",
                    "logIndex": "0x22",
                    "removed": false,
                    "topics": [
                        "0xf3cdd20c5574ce87c347ea71e37b8fa7a095894be4b7f2bb1533e8d2342965f1",
                        "0x5452535259000000000000000000000000000000000000000000000000000000",
                        "0x000000000000000000000000db427c6e665a3aa04e456fbbeac69e823f84b5f2"
                    ],
                    "transactionHash": "0x69f388542af791556c893678eea0af2a791111023633e18b9649291ba3e2e451",
                    "transactionIndex": "0xa"
                },
                {
                    "address": "0x8823062f9406f31cc52cc24a70a8415d982e245b",
                    "blockHash": "0x3ec78e8214b20482f38bd9bd38b9aeb3d0a28c9453fbbff057f852b6ebcc1dd4",
                    "blockNumber": "0x12bced3",
                    "data": "0x",
                    "logIndex": "0x23",
                    "removed": false,
                    "topics": [
                        "0x6560dd86d70bf03c0005b3533cc115fa8b8a12b4ee11c7342ae7b32d82267c90",
                        "0x0000000000000000000000000000000000000000000000000000000000000002",
                        "0x000000000000000000000000db427c6e665a3aa04e456fbbeac69e823f84b5f2"
                    ],
                    "transactionHash": "0x69f388542af791556c893678eea0af2a791111023633e18b9649291ba3e2e451",
                    "transactionIndex": "0xa"
                }
            ],
            "logsBloom": "0x84000000000000000000000000000000000000002008000000000000000000000000000000000000000000000000000000000000000000000000000000000000000000000000000000000000000000000020000000001000000000000000000000000000000000000000000000000000000000000040000100000000000000000000000000000000000000000000000000200000000000000000000000000000000000000000000000000100000000000000000000000000000000000000000000000000000000000000200000000000000000000000000000000000008000040000000000001000400000000000000000400000008000000000000010000000",
            "status": "0x1",
            "to": "0x8823062f9406f31cc52cc24a70a8415d982e245b",
            "transactionHash": "0x69f388542af791556c893678eea0af2a791111023633e18b9649291ba3e2e451",
            "transactionIndex": "0xa",
            "type": "0x2"
        },
        {
            "blockHash": "0x037066836f80e85d8b62c708bf47531d0560b793b3ac3dca617cee0cf17042f4",
            "blockNumber": "0x12bced4",
            "contractAddress": null,
            "cumulativeGasUsed": "0x1748ed",
            "effectiveGasPrice": "0x432",
            "from": "0x5fcfdc65044bf008a6b473512d34102282ee43a6",
            "gasUsed": "0x67938",
            "l1BaseFeeScalar": "0x44d",
            "l1BlobBaseFee": "0x54",
            "l1BlobBaseFeeScalar": "0xa118b",
            "l1Fee": "0x150d44205",
            "l1GasPrice": "0xbf34c80a",
            "l1GasUsed": "0x640",
            "logs": [
                {
                    "address": "0x8823062f9406f31cc52cc24a70a8415d982e245b",
                    "blockHash": "0x037066836f80e85d8b62c708bf47531d0560b793b3ac3dca617cee0cf17042f4",
                    "blockNumber": "0x12bced4",
                    "data": "0x51b42b00000000000000000000000000000000000000000000000000000000000000000000000000000000000000000000000000000000000000000000000001",
                    "logIndex": "0x19",
                    "removed": false,
                    "topics": [
                        "0xf3cdd20c5574ce87c347ea71e37b8fa7a095894be4b7f2bb1533e8d2342965f1",
                        "0x5452535259000000000000000000000000000000000000000000000000000000",
                        "0x0000000000000000000000002b5ea16e2e9558dc9b87bb86c9b4a33fe20d03dc"
                    ],
                    "transactionHash": "0xe1d532c01dba0a5fbfc2f40b95a404fb80200739e583470dc0e006c879d40f96",
                    "transactionIndex": "0xd"
                },
                {
                    "address": "0x8823062f9406f31cc52cc24a70a8415d982e245b",
                    "blockHash": "0x037066836f80e85d8b62c708bf47531d0560b793b3ac3dca617cee0cf17042f4",
                    "blockNumber": "0x12bced4",
                    "data": "0x0f15f4c0000000000000000000000000000000000000000000000000000000000000000000000000000000000000000000000000000000000000000000000001",
                    "logIndex": "0x1a",
                    "removed": false,
                    "topics": [
                        "0xf3cdd20c5574ce87c347ea71e37b8fa7a095894be4b7f2bb1533e8d2342965f1",
                        "0x5452535259000000000000000000000000000000000000000000000000000000",
                        "0x0000000000000000000000002b5ea16e2e9558dc9b87bb86c9b4a33fe20d03dc"
                    ],
                    "transactionHash": "0xe1d532c01dba0a5fbfc2f40b95a404fb80200739e583470dc0e006c879d40f96",
                    "transactionIndex": "0xd"
                },
                {
                    "address": "0x8823062f9406f31cc52cc24a70a8415d982e245b",
                    "blockHash": "0x037066836f80e85d8b62c708bf47531d0560b793b3ac3dca617cee0cf17042f4",
                    "blockNumber": "0x12bced4",
                    "data": "0x51b42b00000000000000000000000000000000000000000000000000000000000000000000000000000000000000000000000000000000000000000000000001",
                    "logIndex": "0x1b",
                    "removed": false,
                    "topics": [
                        "0xf3cdd20c5574ce87c347ea71e37b8fa7a095894be4b7f2bb1533e8d2342965f1",
                        "0x544f4b454e000000000000000000000000000000000000000000000000000000",
                        "0x0000000000000000000000002b5ea16e2e9558dc9b87bb86c9b4a33fe20d03dc"
                    ],
                    "transactionHash": "0xe1d532c01dba0a5fbfc2f40b95a404fb80200739e583470dc0e006c879d40f96",
                    "transactionIndex": "0xd"
                },
                {
                    "address": "0x8823062f9406f31cc52cc24a70a8415d982e245b",
                    "blockHash": "0x037066836f80e85d8b62c708bf47531d0560b793b3ac3dca617cee0cf17042f4",
                    "blockNumber": "0x12bced4",
                    "data": "0x0f15f4c0000000000000000000000000000000000000000000000000000000000000000000000000000000000000000000000000000000000000000000000001",
                    "logIndex": "0x1c",
                    "removed": false,
                    "topics": [
                        "0xf3cdd20c5574ce87c347ea71e37b8fa7a095894be4b7f2bb1533e8d2342965f1",
                        "0x544f4b454e000000000000000000000000000000000000000000000000000000",
                        "0x0000000000000000000000002b5ea16e2e9558dc9b87bb86c9b4a33fe20d03dc"
                    ],
                    "transactionHash": "0xe1d532c01dba0a5fbfc2f40b95a404fb80200739e583470dc0e006c879d40f96",
                    "transactionIndex": "0xd"
                },
                {
                    "address": "0x8823062f9406f31cc52cc24a70a8415d982e245b",
                    "blockHash": "0x037066836f80e85d8b62c708bf47531d0560b793b3ac3dca617cee0cf17042f4",
                    "blockNumber": "0x12bced4",
                    "data": "0x",
                    "logIndex": "0x1d",
                    "removed": false,
                    "topics": [
                        "0x6560dd86d70bf03c0005b3533cc115fa8b8a12b4ee11c7342ae7b32d82267c90",
                        "0x0000000000000000000000000000000000000000000000000000000000000002",
                        "0x0000000000000000000000002b5ea16e2e9558dc9b87bb86c9b4a33fe20d03dc"
                    ],
                    "transactionHash": "0xe1d532c01dba0a5fbfc2f40b95a404fb80200739e583470dc0e006c879d40f96",
                    "transactionIndex": "0xd"
                }
            ],
            "logsBloom": "0x84000000000000000000000000000000000000002000000000000000000000000000000000000000000000000000000000000000000000000000000000000000000000000000000000000000000000000020000000001000000040000000000000000000000000000000000000000000000000000040000100008000000000000000000000000000000000000000000000200000000000000000200000000000000000000000000000000100000000000000000000000000000000000020000000000000000000000000000000400000000000000000000000000000008000040000000000001000400000000008000000000000008000000000000010000000",
            "status": "0x1",
            "to": "0x8823062f9406f31cc52cc24a70a8415d982e245b",
            "transactionHash": "0xe1d532c01dba0a5fbfc2f40b95a404fb80200739e583470dc0e006c879d40f96",
            "transactionIndex": "0xd",
            "type": "0x2"
        },
        {
            "blockHash": "0xd774b457b5ab0784bb3462007c6e3c8764009a7a0ca8c88245002aca9dbe3776",
            "blockNumber": "0x12bced6",
            "contractAddress": null,
            "cumulativeGasUsed": "0x188c7b",
            "effectiveGasPrice": "0x431",
            "from": "0x5fcfdc65044bf008a6b473512d34102282ee43a6",
            "gasUsed": "0x737eb",
            "l1BaseFeeScalar": "0x44d",
            "l1BlobBaseFee": "0x5f",
            "l1BlobBaseFeeScalar": "0xa118b",
            "l1Fee": "0x17ae27064",
            "l1GasPrice": "0xd7145e14",
            "l1GasUsed": "0x640",
            "logs": [
                {
                    "address": "0x8823062f9406f31cc52cc24a70a8415d982e245b",
                    "blockHash": "0xd774b457b5ab0784bb3462007c6e3c8764009a7a0ca8c88245002aca9dbe3776",
                    "blockNumber": "0x12bced6",
                    "data": "0x2f42aef5000000000000000000000000000000000000000000000000000000000000000000000000000000000000000000000000000000000000000000000001",
                    "logIndex": "0x1b",
                    "removed": false,
                    "topics": [
                        "0xf3cdd20c5574ce87c347ea71e37b8fa7a095894be4b7f2bb1533e8d2342965f1",
                        "0x5452535259000000000000000000000000000000000000000000000000000000",
                        "0x000000000000000000000000e7df00cc57023913b0673904177c10efa30e6612"
                    ],
                    "transactionHash": "0xa06969943c96a96c9a0ed8ddaba8871604d03f2fbfd0b88c0248fabefcb69dcb",
                    "transactionIndex": "0xb"
                },
                {
                    "address": "0x8823062f9406f31cc52cc24a70a8415d982e245b",
                    "blockHash": "0xd774b457b5ab0784bb3462007c6e3c8764009a7a0ca8c88245002aca9dbe3776",
                    "blockNumber": "0x12bced6",
                    "data": "0xe6eb207a000000000000000000000000000000000000000000000000000000000000000000000000000000000000000000000000000000000000000000000001",
                    "logIndex": "0x1c",
                    "removed": false,
                    "topics": [
                        "0xf3cdd20c5574ce87c347ea71e37b8fa7a095894be4b7f2bb1533e8d2342965f1",
                        "0x5452535259000000000000000000000000000000000000000000000000000000",
                        "0x000000000000000000000000e7df00cc57023913b0673904177c10efa30e6612"
                    ],
                    "transactionHash": "0xa06969943c96a96c9a0ed8ddaba8871604d03f2fbfd0b88c0248fabefcb69dcb",
                    "transactionIndex": "0xb"
                },
                {
                    "address": "0x8823062f9406f31cc52cc24a70a8415d982e245b",
                    "blockHash": "0xd774b457b5ab0784bb3462007c6e3c8764009a7a0ca8c88245002aca9dbe3776",
                    "blockNumber": "0x12bced6",
                    "data": "0x8b7f3fb9000000000000000000000000000000000000000000000000000000000000000000000000000000000000000000000000000000000000000000000001",
                    "logIndex": "0x1d",
                    "removed": false,
                    "topics": [
                        "0xf3cdd20c5574ce87c347ea71e37b8fa7a095894be4b7f2bb1533e8d2342965f1",
                        "0x5452535259000000000000000000000000000000000000000000000000000000",
                        "0x000000000000000000000000e7df00cc57023913b0673904177c10efa30e6612"
                    ],
                    "transactionHash": "0xa06969943c96a96c9a0ed8ddaba8871604d03f2fbfd0b88c0248fabefcb69dcb",
                    "transactionIndex": "0xb"
                },
                {
                    "address": "0x8823062f9406f31cc52cc24a70a8415d982e245b",
                    "blockHash": "0xd774b457b5ab0784bb3462007c6e3c8764009a7a0ca8c88245002aca9dbe3776",
                    "blockNumber": "0x12bced6",
                    "data": "0x40c10f19000000000000000000000000000000000000000000000000000000000000000000000000000000000000000000000000000000000000000000000001",
                    "logIndex": "0x1e",
                    "removed": false,
                    "topics": [
                        "0xf3cdd20c5574ce87c347ea71e37b8fa7a095894be4b7f2bb1533e8d2342965f1",
                        "0x544f4b454e000000000000000000000000000000000000000000000000000000",
                        "0x000000000000000000000000e7df00cc57023913b0673904177c10efa30e6612"
                    ],
                    "transactionHash": "0xa06969943c96a96c9a0ed8ddaba8871604d03f2fbfd0b88c0248fabefcb69dcb",
                    "transactionIndex": "0xb"
                },
                {
                    "address": "0x8823062f9406f31cc52cc24a70a8415d982e245b",
                    "blockHash": "0xd774b457b5ab0784bb3462007c6e3c8764009a7a0ca8c88245002aca9dbe3776",
                    "blockNumber": "0x12bced6",
                    "data": "0x359fe780000000000000000000000000000000000000000000000000000000000000000000000000000000000000000000000000000000000000000000000001",
                    "logIndex": "0x1f",
                    "removed": false,
                    "topics": [
                        "0xf3cdd20c5574ce87c347ea71e37b8fa7a095894be4b7f2bb1533e8d2342965f1",
                        "0x544f4b454e000000000000000000000000000000000000000000000000000000",
                        "0x000000000000000000000000e7df00cc57023913b0673904177c10efa30e6612"
                    ],
                    "transactionHash": "0xa06969943c96a96c9a0ed8ddaba8871604d03f2fbfd0b88c0248fabefcb69dcb",
                    "transactionIndex": "0xb"
                },
                {
                    "address": "0x8823062f9406f31cc52cc24a70a8415d982e245b",
                    "blockHash": "0xd774b457b5ab0784bb3462007c6e3c8764009a7a0ca8c88245002aca9dbe3776",
                    "blockNumber": "0x12bced6",
                    "data": "0x1b0a68f2000000000000000000000000000000000000000000000000000000000000000000000000000000000000000000000000000000000000000000000001",
                    "logIndex": "0x20",
                    "removed": false,
                    "topics": [
                        "0xf3cdd20c5574ce87c347ea71e37b8fa7a095894be4b7f2bb1533e8d2342965f1",
                        "0x544f4b454e000000000000000000000000000000000000000000000000000000",
                        "0x000000000000000000000000e7df00cc57023913b0673904177c10efa30e6612"
                    ],
                    "transactionHash": "0xa06969943c96a96c9a0ed8ddaba8871604d03f2fbfd0b88c0248fabefcb69dcb",
                    "transactionIndex": "0xb"
                },
                {
                    "address": "0x8823062f9406f31cc52cc24a70a8415d982e245b",
                    "blockHash": "0xd774b457b5ab0784bb3462007c6e3c8764009a7a0ca8c88245002aca9dbe3776",
                    "blockNumber": "0x12bced6",
                    "data": "0x",
                    "logIndex": "0x21",
                    "removed": false,
                    "topics": [
                        "0x6560dd86d70bf03c0005b3533cc115fa8b8a12b4ee11c7342ae7b32d82267c90",
                        "0x0000000000000000000000000000000000000000000000000000000000000002",
                        "0x000000000000000000000000e7df00cc57023913b0673904177c10efa30e6612"
                    ],
                    "transactionHash": "0xa06969943c96a96c9a0ed8ddaba8871604d03f2fbfd0b88c0248fabefcb69dcb",
                    "transactionIndex": "0xb"
                }
            ],
            "logsBloom": "0x84000000000000000000000000000000000000002000000000000000000000000000000000000000000000000000000000000000000000000000000000000000000000000000000000000000000000000020000000001000000040000000000000000000000000000000080000000000000000000040000100000000000000000000000000000000000000000000000000200000000000000000000200000000000000000000000000000100000000000000000000000000000000000020000000000000000000000000000000400000000000000000000000000000008000040000000000001000400002000000000000000000008000000000000010000000",
            "status": "0x1",
            "to": "0x8823062f9406f31cc52cc24a70a8415d982e245b",
            "transactionHash": "0xa06969943c96a96c9a0ed8ddaba8871604d03f2fbfd0b88c0248fabefcb69dcb",
            "transactionIndex": "0xb",
            "type": "0x2"
        },
        {
            "blockHash": "0xc646583d76f8fc0544713e4d9870406e868284171c3f7fe696e4f1ead4364043",
            "blockNumber": "0x12bced7",
            "contractAddress": null,
            "cumulativeGasUsed": "0x18249a",
            "effectiveGasPrice": "0x430",
            "from": "0x5fcfdc65044bf008a6b473512d34102282ee43a6",
            "gasUsed": "0x59852",
            "l1BaseFeeScalar": "0x44d",
            "l1BlobBaseFee": "0x5f",
            "l1BlobBaseFeeScalar": "0xa118b",
            "l1Fee": "0x17ae27064",
            "l1GasPrice": "0xd7145e14",
            "l1GasUsed": "0x640",
            "logs": [
                {
                    "address": "0x8823062f9406f31cc52cc24a70a8415d982e245b",
                    "blockHash": "0xc646583d76f8fc0544713e4d9870406e868284171c3f7fe696e4f1ead4364043",
                    "blockNumber": "0x12bced7",
                    "data": "0x40c10f19000000000000000000000000000000000000000000000000000000000000000000000000000000000000000000000000000000000000000000000001",
                    "logIndex": "0x1c",
                    "removed": false,
                    "topics": [
                        "0xf3cdd20c5574ce87c347ea71e37b8fa7a095894be4b7f2bb1533e8d2342965f1",
                        "0x544f4b454e000000000000000000000000000000000000000000000000000000",
                        "0x0000000000000000000000006ac2961fb0518b40e6a39809e5fa870b7f689c38"
                    ],
                    "transactionHash": "0x99d09ea40b9f1fd7aa3317299ad184fe3114f4a3b747c439db3617d0e8adc3fb",
                    "transactionIndex": "0xd"
                },
                {
                    "address": "0x8823062f9406f31cc52cc24a70a8415d982e245b",
                    "blockHash": "0xc646583d76f8fc0544713e4d9870406e868284171c3f7fe696e4f1ead4364043",
                    "blockNumber": "0x12bced7",
                    "data": "0x359fe780000000000000000000000000000000000000000000000000000000000000000000000000000000000000000000000000000000000000000000000001",
                    "logIndex": "0x1d",
                    "removed": false,
                    "topics": [
                        "0xf3cdd20c5574ce87c347ea71e37b8fa7a095894be4b7f2bb1533e8d2342965f1",
                        "0x544f4b454e000000000000000000000000000000000000000000000000000000",
                        "0x0000000000000000000000006ac2961fb0518b40e6a39809e5fa870b7f689c38"
                    ],
                    "transactionHash": "0x99d09ea40b9f1fd7aa3317299ad184fe3114f4a3b747c439db3617d0e8adc3fb",
                    "transactionIndex": "0xd"
                },
                {
                    "address": "0x8823062f9406f31cc52cc24a70a8415d982e245b",
                    "blockHash": "0xc646583d76f8fc0544713e4d9870406e868284171c3f7fe696e4f1ead4364043",
                    "blockNumber": "0x12bced7",
                    "data": "0x",
                    "logIndex": "0x1e",
                    "removed": false,
                    "topics": [
                        "0x6560dd86d70bf03c0005b3533cc115fa8b8a12b4ee11c7342ae7b32d82267c90",
                        "0x0000000000000000000000000000000000000000000000000000000000000002",
                        "0x0000000000000000000000006ac2961fb0518b40e6a39809e5fa870b7f689c38"
                    ],
                    "transactionHash": "0x99d09ea40b9f1fd7aa3317299ad184fe3114f4a3b747c439db3617d0e8adc3fb",
                    "transactionIndex": "0xd"
                }
            ],
            "logsBloom": "0x84000000000000000000000000080000000000002000000000000000000000000000000000000000000000000000000000000000000000000000000000000000000000000000000000000000000000000020000000000000000040000000000000000000000000000000000000000000000000000040000100000000000000000000000000000000000000000000000000000000000000000000000000000000000000000000000000000100000000000000000000000000000000000020000000000000000000040000000000400000000000000000000000000000008000040000000000001000400000000000000000000000008100000000000000000000",
            "status": "0x1",
            "to": "0x8823062f9406f31cc52cc24a70a8415d982e245b",
            "transactionHash": "0x99d09ea40b9f1fd7aa3317299ad184fe3114f4a3b747c439db3617d0e8adc3fb",
            "transactionIndex": "0xd",
            "type": "0x2"
        }
    ],
    "returns": {},
    "timestamp": 1735064720,
    "transactions": [
        {
            "additionalContracts": [],
            "arguments": ["0", "0x13E0d709Cd3Caf97e2c5Bd3C3961db4d54aA5b50"],
            "contractAddress": "0x8823062f9406f31cc52cc24a70a8415d982e245b",
            "contractName": null,
            "function": "executeAction(uint8,address)",
            "hash": "0xbf1f66a32c53d5f34907d31ba4c930e952b7aa7d261448419a291f746a48d972",
            "isFixedGasLimit": false,
            "transaction": {
                "chainId": "0x14a34",
                "from": "0x5fcfdc65044bf008a6b473512d34102282ee43a6",
                "gas": "0x2bb45",
                "input": "0xc4d1f8f1000000000000000000000000000000000000000000000000000000000000000000000000000000000000000013e0d709cd3caf97e2c5bd3c3961db4d54aa5b50",
                "nonce": "0x74",
                "to": "0x8823062f9406f31cc52cc24a70a8415d982e245b",
                "value": "0x0"
            },
            "transactionType": "CALL"
        },
        {
            "additionalContracts": [],
            "arguments": ["0", "0xF3711CaF818d6932da1e31aACF27167c989cD886"],
            "contractAddress": "0x8823062f9406f31cc52cc24a70a8415d982e245b",
            "contractName": null,
            "function": "executeAction(uint8,address)",
            "hash": "0x643ee9ab36935ac07d3999016403fef26723fb5ea32e2762ebe811dc23cfacbd",
            "isFixedGasLimit": false,
            "transaction": {
                "chainId": "0x14a34",
                "from": "0x5fcfdc65044bf008a6b473512d34102282ee43a6",
                "gas": "0x1dd9a",
                "input": "0xc4d1f8f10000000000000000000000000000000000000000000000000000000000000000000000000000000000000000f3711caf818d6932da1e31aacf27167c989cd886",
                "nonce": "0x75",
                "to": "0x8823062f9406f31cc52cc24a70a8415d982e245b",
                "value": "0x0"
            },
            "transactionType": "CALL"
        },
        {
            "additionalContracts": [],
            "arguments": ["0", "0xDb7d54d78081878731B9939f01c16A4031c43E21"],
            "contractAddress": "0x8823062f9406f31cc52cc24a70a8415d982e245b",
            "contractName": null,
            "function": "executeAction(uint8,address)",
            "hash": "0x00fbb44bd86e2f9805162adc06cee2c22137b1060e2e3f38e133acac13d57265",
            "isFixedGasLimit": false,
            "transaction": {
                "chainId": "0x14a34",
                "from": "0x5fcfdc65044bf008a6b473512d34102282ee43a6",
                "gas": "0x1dd3f",
                "input": "0xc4d1f8f10000000000000000000000000000000000000000000000000000000000000000000000000000000000000000db7d54d78081878731b9939f01c16a4031c43e21",
                "nonce": "0x76",
                "to": "0x8823062f9406f31cc52cc24a70a8415d982e245b",
                "value": "0x0"
            },
            "transactionType": "CALL"
        },
        {
            "additionalContracts": [],
            "arguments": ["2", "0xBaa01F5C04164594BB9b7F72F2EB92daE74E14ec"],
            "contractAddress": "0x8823062f9406f31cc52cc24a70a8415d982e245b",
            "contractName": null,
            "function": "executeAction(uint8,address)",
            "hash": "0xdcbfdf2295354be991593826c3b3ad43818369f4bea5c7b23fb4f45b32b548eb",
            "isFixedGasLimit": false,
            "transaction": {
                "chainId": "0x14a34",
                "from": "0x5fcfdc65044bf008a6b473512d34102282ee43a6",
                "gas": "0x4a20e",
                "input": "0xc4d1f8f10000000000000000000000000000000000000000000000000000000000000002000000000000000000000000baa01f5c04164594bb9b7f72f2eb92dae74e14ec",
                "nonce": "0x77",
                "to": "0x8823062f9406f31cc52cc24a70a8415d982e245b",
                "value": "0x0"
            },
            "transactionType": "CALL"
        },
        {
            "additionalContracts": [],
            "arguments": ["2", "0xDB427c6e665A3Aa04E456FbBEac69e823F84b5f2"],
            "contractAddress": "0x8823062f9406f31cc52cc24a70a8415d982e245b",
            "contractName": null,
            "function": "executeAction(uint8,address)",
            "hash": "0x69f388542af791556c893678eea0af2a791111023633e18b9649291ba3e2e451",
            "isFixedGasLimit": false,
            "transaction": {
                "chainId": "0x14a34",
                "from": "0x5fcfdc65044bf008a6b473512d34102282ee43a6",
                "gas": "0x85399",
                "input": "0xc4d1f8f10000000000000000000000000000000000000000000000000000000000000002000000000000000000000000db427c6e665a3aa04e456fbbeac69e823f84b5f2",
                "nonce": "0x78",
                "to": "0x8823062f9406f31cc52cc24a70a8415d982e245b",
                "value": "0x0"
            },
            "transactionType": "CALL"
        },
        {
            "additionalContracts": [],
            "arguments": ["2", "0x2B5ea16E2E9558DC9B87Bb86c9b4A33Fe20D03DC"],
            "contractAddress": "0x8823062f9406f31cc52cc24a70a8415d982e245b",
            "contractName": null,
            "function": "executeAction(uint8,address)",
            "hash": "0xe1d532c01dba0a5fbfc2f40b95a404fb80200739e583470dc0e006c879d40f96",
            "isFixedGasLimit": false,
            "transaction": {
                "chainId": "0x14a34",
                "from": "0x5fcfdc65044bf008a6b473512d34102282ee43a6",
                "gas": "0x8f107",
                "input": "0xc4d1f8f100000000000000000000000000000000000000000000000000000000000000020000000000000000000000002b5ea16e2e9558dc9b87bb86c9b4a33fe20d03dc",
                "nonce": "0x79",
                "to": "0x8823062f9406f31cc52cc24a70a8415d982e245b",
                "value": "0x0"
            },
            "transactionType": "CALL"
        },
        {
            "additionalContracts": [],
            "arguments": ["2", "0xE7df00CC57023913b0673904177C10eFa30E6612"],
            "contractAddress": "0x8823062f9406f31cc52cc24a70a8415d982e245b",
            "contractName": null,
            "function": "executeAction(uint8,address)",
            "hash": "0xa06969943c96a96c9a0ed8ddaba8871604d03f2fbfd0b88c0248fabefcb69dcb",
            "isFixedGasLimit": false,
            "transaction": {
                "chainId": "0x14a34",
                "from": "0x5fcfdc65044bf008a6b473512d34102282ee43a6",
                "gas": "0xa8e94",
                "input": "0xc4d1f8f10000000000000000000000000000000000000000000000000000000000000002000000000000000000000000e7df00cc57023913b0673904177c10efa30e6612",
                "nonce": "0x7a",
                "to": "0x8823062f9406f31cc52cc24a70a8415d982e245b",
                "value": "0x0"
            },
            "transactionType": "CALL"
        },
        {
            "additionalContracts": [],
            "arguments": ["2", "0x6aC2961fb0518B40E6A39809E5FA870b7F689c38"],
            "contractAddress": "0x8823062f9406f31cc52cc24a70a8415d982e245b",
            "contractName": null,
            "function": "executeAction(uint8,address)",
            "hash": "0x99d09ea40b9f1fd7aa3317299ad184fe3114f4a3b747c439db3617d0e8adc3fb",
            "isFixedGasLimit": false,
            "transaction": {
                "chainId": "0x14a34",
                "from": "0x5fcfdc65044bf008a6b473512d34102282ee43a6",
                "gas": "0x82ec4",
                "input": "0xc4d1f8f100000000000000000000000000000000000000000000000000000000000000020000000000000000000000006ac2961fb0518b40e6a39809e5fa870b7f689c38",
                "nonce": "0x7b",
                "to": "0x8823062f9406f31cc52cc24a70a8415d982e245b",
                "value": "0x0"
            },
            "transactionType": "CALL"
        }
    ]
}
