{
    "chain": 84532,
    "commit": "15400f8",
    "libraries": [],
    "pending": [],
    "receipts": [
        {
            "blockHash": "0x83f3b3b0c82596e34ec2ca42c696606fe1f50f2e48064b3fba7e30c6355d534e",
            "blockNumber": "0x14366e7",
            "contractAddress": null,
            "cumulativeGasUsed": "0x332e07",
            "effectiveGasPrice": "0xb991746",
            "from": "0x5fcfdc65044bf008a6b473512d34102282ee43a6",
            "gasUsed": "0x1de23",
            "l1BaseFeeScalar": "0x44d",
            "l1BlobBaseFee": "0x1",
            "l1BlobBaseFeeScalar": "0xa118b",
            "l1Fee": "0x29369ed3e",
            "l1GasPrice": "0x176539d51",
            "l1GasUsed": "0x640",
            "logs": [
                {
                    "address": "0x10420e23960bb72968a3dbcfec8f0e13c7694c68",
                    "blockHash": "0x83f3b3b0c82596e34ec2ca42c696606fe1f50f2e48064b3fba7e30c6355d534e",
                    "blockNumber": "0x14366e7",
                    "data": "0x",
                    "logIndex": "0x4f",
                    "removed": false,
                    "topics": [
                        "0x6560dd86d70bf03c0005b3533cc115fa8b8a12b4ee11c7342ae7b32d82267c90",
                        "0x0000000000000000000000000000000000000000000000000000000000000000",
                        "0x000000000000000000000000bdfd2d1515ff348d8edafdc972b5c6df93f6b853"
                    ],
                    "transactionHash": "0xd31062604d58a68d594c44b242eb87562b13046a06bf9401731952dc9d73273c",
                    "transactionIndex": "0x21"
                }
            ],
            "logsBloom": "0x80000000000000000000000000000000000000000000000000000000000000000000000000000000000000000000000000000000000000000000000000010000000000000000000000000000000000000000000000000000000000000000000000000000020400000000000000000800000000000050000000000000000000000000000000000000000000000000000000000000000000000000020000000000000000000000000000000000000000000000000000000000008000000000000000000000000000000000000000000000000000000000000000000000008020000000000000000000000000000000000000000000080000000000000000000000",
            "status": "0x1",
            "to": "0x10420e23960bb72968a3dbcfec8f0e13c7694c68",
            "transactionHash": "0xd31062604d58a68d594c44b242eb87562b13046a06bf9401731952dc9d73273c",
            "transactionIndex": "0x21",
            "type": "0x2"
        },
        {
            "blockHash": "0x363f3b843709950fe6a9416684c647306bb045da6dc43cee7a1eced58af4c3dc",
            "blockNumber": "0x14366e9",
            "contractAddress": null,
            "cumulativeGasUsed": "0x394a8d",
            "effectiveGasPrice": "0xb95ab18",
            "from": "0x5fcfdc65044bf008a6b473512d34102282ee43a6",
            "gasUsed": "0x159c7",
            "l1BaseFeeScalar": "0x44d",
            "l1BlobBaseFee": "0x1",
            "l1BlobBaseFeeScalar": "0xa118b",
            "l1Fee": "0x29369ed3e",
            "l1GasPrice": "0x176539d51",
            "l1GasUsed": "0x640",
            "logs": [
                {
                    "address": "0x10420e23960bb72968a3dbcfec8f0e13c7694c68",
                    "blockHash": "0x363f3b843709950fe6a9416684c647306bb045da6dc43cee7a1eced58af4c3dc",
                    "blockNumber": "0x14366e9",
                    "data": "0x",
                    "logIndex": "0x5b",
                    "removed": false,
                    "topics": [
                        "0x6560dd86d70bf03c0005b3533cc115fa8b8a12b4ee11c7342ae7b32d82267c90",
                        "0x0000000000000000000000000000000000000000000000000000000000000000",
                        "0x0000000000000000000000002292dc8658e6b9a0346294c13cb8eafecfda6860"
                    ],
                    "transactionHash": "0x6ab9b559c9ccf743626ed3d118e17cd53d7f150a7abc8e71ee7a14b3b9e8f59c",
                    "transactionIndex": "0x21"
                }
            ],
            "logsBloom": "0x80000000000000000020000000000000000000000000000000000000000000000000000000000000000000000000000000000000000000000000000000000000000000000000000000000000000000000000000000000000000000000000000000000000020400000000000000000800000000000040000000000000000000000000000000000000000000000000000000000000000000000000000000000000000000c00000000000000000000000000000000000000000008000000000000000000000000000000000000000000000000000000000000000000000008020000000000000000000000000000000000000000000080000000000000000000000",
            "status": "0x1",
            "to": "0x10420e23960bb72968a3dbcfec8f0e13c7694c68",
            "transactionHash": "0x6ab9b559c9ccf743626ed3d118e17cd53d7f150a7abc8e71ee7a14b3b9e8f59c",
            "transactionIndex": "0x21",
            "type": "0x2"
        },
        {
            "blockHash": "0xc1bbc898a094cd4f12b77cdd15ddf01e7eb027ccf3a2a3879e8ecbe28f0b4852",
            "blockNumber": "0x14366eb",
            "contractAddress": null,
            "cumulativeGasUsed": "0x3366e6",
            "effectiveGasPrice": "0xb90244f",
            "from": "0x5fcfdc65044bf008a6b473512d34102282ee43a6",
            "gasUsed": "0x15985",
            "l1BaseFeeScalar": "0x44d",
            "l1BlobBaseFee": "0x1",
            "l1BlobBaseFeeScalar": "0xa118b",
            "l1Fee": "0x29369ed3e",
            "l1GasPrice": "0x176539d51",
            "l1GasUsed": "0x640",
            "logs": [
                {
                    "address": "0x10420e23960bb72968a3dbcfec8f0e13c7694c68",
                    "blockHash": "0xc1bbc898a094cd4f12b77cdd15ddf01e7eb027ccf3a2a3879e8ecbe28f0b4852",
                    "blockNumber": "0x14366eb",
                    "data": "0x",
                    "logIndex": "0x53",
                    "removed": false,
                    "topics": [
                        "0x6560dd86d70bf03c0005b3533cc115fa8b8a12b4ee11c7342ae7b32d82267c90",
                        "0x0000000000000000000000000000000000000000000000000000000000000000",
                        "0x000000000000000000000000050e39a7d1e44cf554348e3319a675b07c0a5524"
                    ],
                    "transactionHash": "0x43235d843ebbf7c8cb48ee8f4ebed02390c546575c72c0bd2e652ccd59869c70",
                    "transactionIndex": "0x1a"
                }
            ],
            "logsBloom": "0x80000000000000000000000000000000000000000000000000000000000000000000000000000000000000000000000000000000000000000000000000000000000000000000000000000000000000000000000000000000000000000100000000000000020400000000000000000800000000000040000000008000000000000000000000000000000000000000000000000000000000000000000000000000000000000000000000000000000000002000000000000000008000000000000000000000000000000000000000000000000000000000000000000000008020000000000000000000000000000000000000000000080000000000000000000000",
            "status": "0x1",
            "to": "0x10420e23960bb72968a3dbcfec8f0e13c7694c68",
            "transactionHash": "0x43235d843ebbf7c8cb48ee8f4ebed02390c546575c72c0bd2e652ccd59869c70",
            "transactionIndex": "0x1a",
            "type": "0x2"
        },
        {
            "blockHash": "0x351e9a56820f9427e3586f8e4a2ec1d6198d7024875b4e6b3c8e61fa4f3e41d9",
            "blockNumber": "0x14366ed",
            "contractAddress": null,
            "cumulativeGasUsed": "0x20f51d",
            "effectiveGasPrice": "0xb8e0623",
            "from": "0x5fcfdc65044bf008a6b473512d34102282ee43a6",
            "gasUsed": "0x15987",
            "l1BaseFeeScalar": "0x44d",
            "l1BlobBaseFee": "0x1",
            "l1BlobBaseFeeScalar": "0xa118b",
            "l1Fee": "0x29e32ce84",
            "l1GasPrice": "0x17c72df1d",
            "l1GasUsed": "0x640",
            "logs": [
                {
                    "address": "0x10420e23960bb72968a3dbcfec8f0e13c7694c68",
                    "blockHash": "0x351e9a56820f9427e3586f8e4a2ec1d6198d7024875b4e6b3c8e61fa4f3e41d9",
                    "blockNumber": "0x14366ed",
                    "data": "0x",
                    "logIndex": "0x2b",
                    "removed": false,
                    "topics": [
                        "0x6560dd86d70bf03c0005b3533cc115fa8b8a12b4ee11c7342ae7b32d82267c90",
                        "0x0000000000000000000000000000000000000000000000000000000000000000",
                        "0x0000000000000000000000000d291dff1365d1f0fbb058e9f9130437f3416a50"
                    ],
                    "transactionHash": "0xbb9f0306e85d71d2b49d7ce133a41ddb09386bfe0d118786e59b2d3bffc49c86",
                    "transactionIndex": "0x13"
                }
            ],
            "logsBloom": "0x80000000000000000000000000000000000000000000000000000000000000000000000000000000000000000001000000000000000000000000000000000000000000000000000000000000000000000000000000000000000000000000000000000000020400000000000000000800000000000040000000000000000000000000000000000000000000000000000000000000000000000000000800000000000000000000000000000000002000000000000000000000008000000000000000000000000000000000000000000000000000000000000000000000008020000000000000000000000000000000000000000000080000000000000000000000",
            "status": "0x1",
            "to": "0x10420e23960bb72968a3dbcfec8f0e13c7694c68",
            "transactionHash": "0xbb9f0306e85d71d2b49d7ce133a41ddb09386bfe0d118786e59b2d3bffc49c86",
            "transactionIndex": "0x13",
            "type": "0x2"
        },
        {
            "blockHash": "0xe7c3e943dea2a33a55fb07ecc37d57acffe09318cd6732fb68999c67bee2a471",
            "blockNumber": "0x14366ef",
            "contractAddress": null,
            "cumulativeGasUsed": "0x3a27e2",
            "effectiveGasPrice": "0xb88732b",
            "from": "0x5fcfdc65044bf008a6b473512d34102282ee43a6",
            "gasUsed": "0x32aef",
            "l1BaseFeeScalar": "0x44d",
            "l1BlobBaseFee": "0x1",
            "l1BlobBaseFeeScalar": "0xa118b",
            "l1Fee": "0x29e32ce84",
            "l1GasPrice": "0x17c72df1d",
            "l1GasUsed": "0x640",
            "logs": [
                {
                    "address": "0x10420e23960bb72968a3dbcfec8f0e13c7694c68",
                    "blockHash": "0xe7c3e943dea2a33a55fb07ecc37d57acffe09318cd6732fb68999c67bee2a471",
                    "blockNumber": "0x14366ef",
                    "data": "0x656361ff000000000000000000000000000000000000000000000000000000000000000000000000000000000000000000000000000000000000000000000001",
                    "logIndex": "0x48",
                    "removed": false,
                    "topics": [
                        "0xf3cdd20c5574ce87c347ea71e37b8fa7a095894be4b7f2bb1533e8d2342965f1",
                        "0x524f4c4553000000000000000000000000000000000000000000000000000000",
                        "0x000000000000000000000000be6c5b3ea7f24c007ec23436ae0c8a986824e9fb"
                    ],
                    "transactionHash": "0xba8ff7f0f323ba7d46b091bffcc0d82a17c581ad3ed875e75d6ef36f75b12f4b",
                    "transactionIndex": "0x22"
                },
                {
                    "address": "0x10420e23960bb72968a3dbcfec8f0e13c7694c68",
                    "blockHash": "0xe7c3e943dea2a33a55fb07ecc37d57acffe09318cd6732fb68999c67bee2a471",
                    "blockNumber": "0x14366ef",
                    "data": "0xf6ba0007000000000000000000000000000000000000000000000000000000000000000000000000000000000000000000000000000000000000000000000001",
                    "logIndex": "0x49",
                    "removed": false,
                    "topics": [
                        "0xf3cdd20c5574ce87c347ea71e37b8fa7a095894be4b7f2bb1533e8d2342965f1",
                        "0x524f4c4553000000000000000000000000000000000000000000000000000000",
                        "0x000000000000000000000000be6c5b3ea7f24c007ec23436ae0c8a986824e9fb"
                    ],
                    "transactionHash": "0xba8ff7f0f323ba7d46b091bffcc0d82a17c581ad3ed875e75d6ef36f75b12f4b",
                    "transactionIndex": "0x22"
                },
                {
                    "address": "0x10420e23960bb72968a3dbcfec8f0e13c7694c68",
                    "blockHash": "0xe7c3e943dea2a33a55fb07ecc37d57acffe09318cd6732fb68999c67bee2a471",
                    "blockNumber": "0x14366ef",
                    "data": "0x",
                    "logIndex": "0x4a",
                    "removed": false,
                    "topics": [
                        "0x6560dd86d70bf03c0005b3533cc115fa8b8a12b4ee11c7342ae7b32d82267c90",
                        "0x0000000000000000000000000000000000000000000000000000000000000002",
                        "0x000000000000000000000000be6c5b3ea7f24c007ec23436ae0c8a986824e9fb"
                    ],
                    "transactionHash": "0xba8ff7f0f323ba7d46b091bffcc0d82a17c581ad3ed875e75d6ef36f75b12f4b",
                    "transactionIndex": "0x22"
                }
            ],
            "logsBloom": "0x84000000000000000000000000000000000000000000000000000000000000000000000000000000000000000000000000000000000000000000000000000000000000000000000000000000000000000020000000000000000000000000000000080000000400000000000000000000000000000040000000000000000000002000000000000000000000000080000000000000000000000000000000000000000000000000000000000100000000000000000000000000008000000000100000000000000000000000000000000000000000000100000000000000008000040000000000001000000000000000000000000000488000000000000000000000",
            "status": "0x1",
            "to": "0x10420e23960bb72968a3dbcfec8f0e13c7694c68",
            "transactionHash": "0xba8ff7f0f323ba7d46b091bffcc0d82a17c581ad3ed875e75d6ef36f75b12f4b",
            "transactionIndex": "0x22",
            "type": "0x2"
        },
        {
            "blockHash": "0xc7e120354ba6a9ac4c630d2c5638d88505a9d59f0854ae2a13700bec14e9db2e",
            "blockNumber": "0x14366f1",
            "contractAddress": null,
            "cumulativeGasUsed": "0x358ac6",
            "effectiveGasPrice": "0xb861036",
            "from": "0x5fcfdc65044bf008a6b473512d34102282ee43a6",
            "gasUsed": "0x6073e",
            "l1BaseFeeScalar": "0x44d",
            "l1BlobBaseFee": "0x1",
            "l1BlobBaseFeeScalar": "0xa118b",
            "l1Fee": "0x29e32ce84",
            "l1GasPrice": "0x17c72df1d",
            "l1GasUsed": "0x640",
            "logs": [
                {
                    "address": "0x10420e23960bb72968a3dbcfec8f0e13c7694c68",
                    "blockHash": "0xc7e120354ba6a9ac4c630d2c5638d88505a9d59f0854ae2a13700bec14e9db2e",
                    "blockNumber": "0x14366f1",
                    "data": "0x2f42aef5000000000000000000000000000000000000000000000000000000000000000000000000000000000000000000000000000000000000000000000001",
                    "logIndex": "0x4a",
                    "removed": false,
                    "topics": [
                        "0xf3cdd20c5574ce87c347ea71e37b8fa7a095894be4b7f2bb1533e8d2342965f1",
                        "0x5452535259000000000000000000000000000000000000000000000000000000",
                        "0x0000000000000000000000009309a5ea7671a57e523c59da5b127cb9dc966973"
                    ],
                    "transactionHash": "0xac711b513418d1b10a00e720f7ef801234ac348da5b6b801b2def79adcc89481",
                    "transactionIndex": "0x19"
                },
                {
                    "address": "0x10420e23960bb72968a3dbcfec8f0e13c7694c68",
                    "blockHash": "0xc7e120354ba6a9ac4c630d2c5638d88505a9d59f0854ae2a13700bec14e9db2e",
                    "blockNumber": "0x14366f1",
                    "data": "0xe6eb207a000000000000000000000000000000000000000000000000000000000000000000000000000000000000000000000000000000000000000000000001",
                    "logIndex": "0x4b",
                    "removed": false,
                    "topics": [
                        "0xf3cdd20c5574ce87c347ea71e37b8fa7a095894be4b7f2bb1533e8d2342965f1",
                        "0x5452535259000000000000000000000000000000000000000000000000000000",
                        "0x0000000000000000000000009309a5ea7671a57e523c59da5b127cb9dc966973"
                    ],
                    "transactionHash": "0xac711b513418d1b10a00e720f7ef801234ac348da5b6b801b2def79adcc89481",
                    "transactionIndex": "0x19"
                },
                {
                    "address": "0x10420e23960bb72968a3dbcfec8f0e13c7694c68",
                    "blockHash": "0xc7e120354ba6a9ac4c630d2c5638d88505a9d59f0854ae2a13700bec14e9db2e",
                    "blockNumber": "0x14366f1",
                    "data": "0x8b7f3fb9000000000000000000000000000000000000000000000000000000000000000000000000000000000000000000000000000000000000000000000001",
                    "logIndex": "0x4c",
                    "removed": false,
                    "topics": [
                        "0xf3cdd20c5574ce87c347ea71e37b8fa7a095894be4b7f2bb1533e8d2342965f1",
                        "0x5452535259000000000000000000000000000000000000000000000000000000",
                        "0x0000000000000000000000009309a5ea7671a57e523c59da5b127cb9dc966973"
                    ],
                    "transactionHash": "0xac711b513418d1b10a00e720f7ef801234ac348da5b6b801b2def79adcc89481",
                    "transactionIndex": "0x19"
                },
                {
                    "address": "0x10420e23960bb72968a3dbcfec8f0e13c7694c68",
                    "blockHash": "0xc7e120354ba6a9ac4c630d2c5638d88505a9d59f0854ae2a13700bec14e9db2e",
                    "blockNumber": "0x14366f1",
                    "data": "0x01a91e5c000000000000000000000000000000000000000000000000000000000000000000000000000000000000000000000000000000000000000000000001",
                    "logIndex": "0x4d",
                    "removed": false,
                    "topics": [
                        "0xf3cdd20c5574ce87c347ea71e37b8fa7a095894be4b7f2bb1533e8d2342965f1",
                        "0x5452535259000000000000000000000000000000000000000000000000000000",
                        "0x0000000000000000000000009309a5ea7671a57e523c59da5b127cb9dc966973"
                    ],
                    "transactionHash": "0xac711b513418d1b10a00e720f7ef801234ac348da5b6b801b2def79adcc89481",
                    "transactionIndex": "0x19"
                },
                {
                    "address": "0x10420e23960bb72968a3dbcfec8f0e13c7694c68",
                    "blockHash": "0xc7e120354ba6a9ac4c630d2c5638d88505a9d59f0854ae2a13700bec14e9db2e",
                    "blockNumber": "0x14366f1",
                    "data": "0xfb393f24000000000000000000000000000000000000000000000000000000000000000000000000000000000000000000000000000000000000000000000001",
                    "logIndex": "0x4e",
                    "removed": false,
                    "topics": [
                        "0xf3cdd20c5574ce87c347ea71e37b8fa7a095894be4b7f2bb1533e8d2342965f1",
                        "0x5452535259000000000000000000000000000000000000000000000000000000",
                        "0x0000000000000000000000009309a5ea7671a57e523c59da5b127cb9dc966973"
                    ],
                    "transactionHash": "0xac711b513418d1b10a00e720f7ef801234ac348da5b6b801b2def79adcc89481",
                    "transactionIndex": "0x19"
                },
                {
                    "address": "0x10420e23960bb72968a3dbcfec8f0e13c7694c68",
                    "blockHash": "0xc7e120354ba6a9ac4c630d2c5638d88505a9d59f0854ae2a13700bec14e9db2e",
                    "blockNumber": "0x14366f1",
                    "data": "0x4aae164b000000000000000000000000000000000000000000000000000000000000000000000000000000000000000000000000000000000000000000000001",
                    "logIndex": "0x4f",
                    "removed": false,
                    "topics": [
                        "0xf3cdd20c5574ce87c347ea71e37b8fa7a095894be4b7f2bb1533e8d2342965f1",
                        "0x5452535259000000000000000000000000000000000000000000000000000000",
                        "0x0000000000000000000000009309a5ea7671a57e523c59da5b127cb9dc966973"
                    ],
                    "transactionHash": "0xac711b513418d1b10a00e720f7ef801234ac348da5b6b801b2def79adcc89481",
                    "transactionIndex": "0x19"
                },
                {
                    "address": "0x10420e23960bb72968a3dbcfec8f0e13c7694c68",
                    "blockHash": "0xc7e120354ba6a9ac4c630d2c5638d88505a9d59f0854ae2a13700bec14e9db2e",
                    "blockNumber": "0x14366f1",
                    "data": "0x",
                    "logIndex": "0x50",
                    "removed": false,
                    "topics": [
                        "0x6560dd86d70bf03c0005b3533cc115fa8b8a12b4ee11c7342ae7b32d82267c90",
                        "0x0000000000000000000000000000000000000000000000000000000000000002",
                        "0x0000000000000000000000009309a5ea7671a57e523c59da5b127cb9dc966973"
                    ],
                    "transactionHash": "0xac711b513418d1b10a00e720f7ef801234ac348da5b6b801b2def79adcc89481",
                    "transactionIndex": "0x19"
                }
            ],
            "logsBloom": "0x84000000000000000000000000000000000000000000000000000000000000000000000000000000000000000000000000000000000000000000000000000000000000000000000000000000000000000020800000001000000000000000000000000000000400000000000000000000000020000040000000000000000000000000000000000000000000000000000000200000000000000000000000000400000000000000000000000100000000000000000000000000008000000000000000000000000000000000000000000000000000000000000000000000008000040000000000001000000000000000000000000000088000000000000010000000",
            "status": "0x1",
            "to": "0x10420e23960bb72968a3dbcfec8f0e13c7694c68",
            "transactionHash": "0xac711b513418d1b10a00e720f7ef801234ac348da5b6b801b2def79adcc89481",
            "transactionIndex": "0x19",
            "type": "0x2"
        },
        {
            "blockHash": "0x4eb1ab86df6a14eeccd33610d589e01972bef1b5a3d298a4ece39e3520217f48",
            "blockNumber": "0x14366f3",
            "contractAddress": null,
            "cumulativeGasUsed": "0x28b5c9",
            "effectiveGasPrice": "0xb809390",
            "from": "0x5fcfdc65044bf008a6b473512d34102282ee43a6",
            "gasUsed": "0x67938",
            "l1BaseFeeScalar": "0x44d",
            "l1BlobBaseFee": "0x1",
            "l1BlobBaseFeeScalar": "0xa118b",
            "l1Fee": "0x29faba2d0",
            "l1GasPrice": "0x17d48c8dd",
            "l1GasUsed": "0x640",
            "logs": [
                {
                    "address": "0x10420e23960bb72968a3dbcfec8f0e13c7694c68",
                    "blockHash": "0x4eb1ab86df6a14eeccd33610d589e01972bef1b5a3d298a4ece39e3520217f48",
                    "blockNumber": "0x14366f3",
                    "data": "0x51b42b00000000000000000000000000000000000000000000000000000000000000000000000000000000000000000000000000000000000000000000000001",
                    "logIndex": "0x33",
                    "removed": false,
                    "topics": [
                        "0xf3cdd20c5574ce87c347ea71e37b8fa7a095894be4b7f2bb1533e8d2342965f1",
                        "0x5452535259000000000000000000000000000000000000000000000000000000",
                        "0x000000000000000000000000e2e1d6bd43a57729bcf4ede491abd9a7a9b59f8d"
                    ],
                    "transactionHash": "0x2697ca4a1364acfc9127c087b5f7d31bc603e9f72366971a01994c1fe9cc64f5",
                    "transactionIndex": "0x16"
                },
                {
                    "address": "0x10420e23960bb72968a3dbcfec8f0e13c7694c68",
                    "blockHash": "0x4eb1ab86df6a14eeccd33610d589e01972bef1b5a3d298a4ece39e3520217f48",
                    "blockNumber": "0x14366f3",
                    "data": "0x0f15f4c0000000000000000000000000000000000000000000000000000000000000000000000000000000000000000000000000000000000000000000000001",
                    "logIndex": "0x34",
                    "removed": false,
                    "topics": [
                        "0xf3cdd20c5574ce87c347ea71e37b8fa7a095894be4b7f2bb1533e8d2342965f1",
                        "0x5452535259000000000000000000000000000000000000000000000000000000",
                        "0x000000000000000000000000e2e1d6bd43a57729bcf4ede491abd9a7a9b59f8d"
                    ],
                    "transactionHash": "0x2697ca4a1364acfc9127c087b5f7d31bc603e9f72366971a01994c1fe9cc64f5",
                    "transactionIndex": "0x16"
                },
                {
                    "address": "0x10420e23960bb72968a3dbcfec8f0e13c7694c68",
                    "blockHash": "0x4eb1ab86df6a14eeccd33610d589e01972bef1b5a3d298a4ece39e3520217f48",
                    "blockNumber": "0x14366f3",
                    "data": "0x51b42b00000000000000000000000000000000000000000000000000000000000000000000000000000000000000000000000000000000000000000000000001",
                    "logIndex": "0x35",
                    "removed": false,
                    "topics": [
                        "0xf3cdd20c5574ce87c347ea71e37b8fa7a095894be4b7f2bb1533e8d2342965f1",
                        "0x544f4b454e000000000000000000000000000000000000000000000000000000",
                        "0x000000000000000000000000e2e1d6bd43a57729bcf4ede491abd9a7a9b59f8d"
                    ],
                    "transactionHash": "0x2697ca4a1364acfc9127c087b5f7d31bc603e9f72366971a01994c1fe9cc64f5",
                    "transactionIndex": "0x16"
                },
                {
                    "address": "0x10420e23960bb72968a3dbcfec8f0e13c7694c68",
                    "blockHash": "0x4eb1ab86df6a14eeccd33610d589e01972bef1b5a3d298a4ece39e3520217f48",
                    "blockNumber": "0x14366f3",
                    "data": "0x0f15f4c0000000000000000000000000000000000000000000000000000000000000000000000000000000000000000000000000000000000000000000000001",
                    "logIndex": "0x36",
                    "removed": false,
                    "topics": [
                        "0xf3cdd20c5574ce87c347ea71e37b8fa7a095894be4b7f2bb1533e8d2342965f1",
                        "0x544f4b454e000000000000000000000000000000000000000000000000000000",
                        "0x000000000000000000000000e2e1d6bd43a57729bcf4ede491abd9a7a9b59f8d"
                    ],
                    "transactionHash": "0x2697ca4a1364acfc9127c087b5f7d31bc603e9f72366971a01994c1fe9cc64f5",
                    "transactionIndex": "0x16"
                },
                {
                    "address": "0x10420e23960bb72968a3dbcfec8f0e13c7694c68",
                    "blockHash": "0x4eb1ab86df6a14eeccd33610d589e01972bef1b5a3d298a4ece39e3520217f48",
                    "blockNumber": "0x14366f3",
                    "data": "0x",
                    "logIndex": "0x37",
                    "removed": false,
                    "topics": [
                        "0x6560dd86d70bf03c0005b3533cc115fa8b8a12b4ee11c7342ae7b32d82267c90",
                        "0x0000000000000000000000000000000000000000000000000000000000000002",
                        "0x000000000000000000000000e2e1d6bd43a57729bcf4ede491abd9a7a9b59f8d"
                    ],
                    "transactionHash": "0x2697ca4a1364acfc9127c087b5f7d31bc603e9f72366971a01994c1fe9cc64f5",
                    "transactionIndex": "0x16"
                }
            ],
            "logsBloom": "0x84000000000000000000000000000000000000000000000000000000000000000000000000000000000000000000000000000000000000000000000000000000000000000000000000000000000000000020000000001000000040000000000000000000000400000000000000000000000000000040000000000000000000000000000000000000000000000400000000200400000000000000000000000000000000000000000000000100000000000000000000000000008000000020000000000000000000000000000000400000000000000000000000000000008000040000000000001000000000000000000000000004088000000000000010000000",
            "status": "0x1",
            "to": "0x10420e23960bb72968a3dbcfec8f0e13c7694c68",
            "transactionHash": "0x2697ca4a1364acfc9127c087b5f7d31bc603e9f72366971a01994c1fe9cc64f5",
            "transactionIndex": "0x16",
            "type": "0x2"
        },
        {
            "blockHash": "0x3eb7fc1ed177dc772099730f17b7f709a6e2a4241d0b8e1b228f6b8279b211a6",
            "blockNumber": "0x14366f5",
            "contractAddress": null,
            "cumulativeGasUsed": "0x3d634d",
            "effectiveGasPrice": "0xb7b0561",
            "from": "0x5fcfdc65044bf008a6b473512d34102282ee43a6",
            "gasUsed": "0x73896",
            "l1BaseFeeScalar": "0x44d",
            "l1BlobBaseFee": "0x1",
            "l1BlobBaseFeeScalar": "0xa118b",
            "l1Fee": "0x29faba2d0",
            "l1GasPrice": "0x17d48c8dd",
            "l1GasUsed": "0x640",
            "logs": [
                {
                    "address": "0x10420e23960bb72968a3dbcfec8f0e13c7694c68",
                    "blockHash": "0x3eb7fc1ed177dc772099730f17b7f709a6e2a4241d0b8e1b228f6b8279b211a6",
                    "blockNumber": "0x14366f5",
                    "data": "0x2f42aef5000000000000000000000000000000000000000000000000000000000000000000000000000000000000000000000000000000000000000000000001",
                    "logIndex": "0x52",
                    "removed": false,
                    "topics": [
                        "0xf3cdd20c5574ce87c347ea71e37b8fa7a095894be4b7f2bb1533e8d2342965f1",
                        "0x5452535259000000000000000000000000000000000000000000000000000000",
                        "0x000000000000000000000000e752f0deba44aa2fe6bdbbd6dc3e04880d7f84df"
                    ],
                    "transactionHash": "0x4856de72f12584b067367b631aff745750c8c3fa495d1d82aab9815337928c0d",
                    "transactionIndex": "0x1f"
                },
                {
                    "address": "0x10420e23960bb72968a3dbcfec8f0e13c7694c68",
                    "blockHash": "0x3eb7fc1ed177dc772099730f17b7f709a6e2a4241d0b8e1b228f6b8279b211a6",
                    "blockNumber": "0x14366f5",
                    "data": "0xe6eb207a000000000000000000000000000000000000000000000000000000000000000000000000000000000000000000000000000000000000000000000001",
                    "logIndex": "0x53",
                    "removed": false,
                    "topics": [
                        "0xf3cdd20c5574ce87c347ea71e37b8fa7a095894be4b7f2bb1533e8d2342965f1",
                        "0x5452535259000000000000000000000000000000000000000000000000000000",
                        "0x000000000000000000000000e752f0deba44aa2fe6bdbbd6dc3e04880d7f84df"
                    ],
                    "transactionHash": "0x4856de72f12584b067367b631aff745750c8c3fa495d1d82aab9815337928c0d",
                    "transactionIndex": "0x1f"
                },
                {
                    "address": "0x10420e23960bb72968a3dbcfec8f0e13c7694c68",
                    "blockHash": "0x3eb7fc1ed177dc772099730f17b7f709a6e2a4241d0b8e1b228f6b8279b211a6",
                    "blockNumber": "0x14366f5",
                    "data": "0x8b7f3fb9000000000000000000000000000000000000000000000000000000000000000000000000000000000000000000000000000000000000000000000001",
                    "logIndex": "0x54",
                    "removed": false,
                    "topics": [
                        "0xf3cdd20c5574ce87c347ea71e37b8fa7a095894be4b7f2bb1533e8d2342965f1",
                        "0x5452535259000000000000000000000000000000000000000000000000000000",
                        "0x000000000000000000000000e752f0deba44aa2fe6bdbbd6dc3e04880d7f84df"
                    ],
                    "transactionHash": "0x4856de72f12584b067367b631aff745750c8c3fa495d1d82aab9815337928c0d",
                    "transactionIndex": "0x1f"
                },
                {
                    "address": "0x10420e23960bb72968a3dbcfec8f0e13c7694c68",
                    "blockHash": "0x3eb7fc1ed177dc772099730f17b7f709a6e2a4241d0b8e1b228f6b8279b211a6",
                    "blockNumber": "0x14366f5",
                    "data": "0x40c10f19000000000000000000000000000000000000000000000000000000000000000000000000000000000000000000000000000000000000000000000001",
                    "logIndex": "0x55",
                    "removed": false,
                    "topics": [
                        "0xf3cdd20c5574ce87c347ea71e37b8fa7a095894be4b7f2bb1533e8d2342965f1",
                        "0x544f4b454e000000000000000000000000000000000000000000000000000000",
                        "0x000000000000000000000000e752f0deba44aa2fe6bdbbd6dc3e04880d7f84df"
                    ],
                    "transactionHash": "0x4856de72f12584b067367b631aff745750c8c3fa495d1d82aab9815337928c0d",
                    "transactionIndex": "0x1f"
                },
                {
                    "address": "0x10420e23960bb72968a3dbcfec8f0e13c7694c68",
                    "blockHash": "0x3eb7fc1ed177dc772099730f17b7f709a6e2a4241d0b8e1b228f6b8279b211a6",
                    "blockNumber": "0x14366f5",
                    "data": "0x359fe780000000000000000000000000000000000000000000000000000000000000000000000000000000000000000000000000000000000000000000000001",
                    "logIndex": "0x56",
                    "removed": false,
                    "topics": [
                        "0xf3cdd20c5574ce87c347ea71e37b8fa7a095894be4b7f2bb1533e8d2342965f1",
                        "0x544f4b454e000000000000000000000000000000000000000000000000000000",
                        "0x000000000000000000000000e752f0deba44aa2fe6bdbbd6dc3e04880d7f84df"
                    ],
                    "transactionHash": "0x4856de72f12584b067367b631aff745750c8c3fa495d1d82aab9815337928c0d",
                    "transactionIndex": "0x1f"
                },
                {
                    "address": "0x10420e23960bb72968a3dbcfec8f0e13c7694c68",
                    "blockHash": "0x3eb7fc1ed177dc772099730f17b7f709a6e2a4241d0b8e1b228f6b8279b211a6",
                    "blockNumber": "0x14366f5",
                    "data": "0x1b0a68f2000000000000000000000000000000000000000000000000000000000000000000000000000000000000000000000000000000000000000000000001",
                    "logIndex": "0x57",
                    "removed": false,
                    "topics": [
                        "0xf3cdd20c5574ce87c347ea71e37b8fa7a095894be4b7f2bb1533e8d2342965f1",
                        "0x544f4b454e000000000000000000000000000000000000000000000000000000",
                        "0x000000000000000000000000e752f0deba44aa2fe6bdbbd6dc3e04880d7f84df"
                    ],
                    "transactionHash": "0x4856de72f12584b067367b631aff745750c8c3fa495d1d82aab9815337928c0d",
                    "transactionIndex": "0x1f"
                },
                {
                    "address": "0x10420e23960bb72968a3dbcfec8f0e13c7694c68",
                    "blockHash": "0x3eb7fc1ed177dc772099730f17b7f709a6e2a4241d0b8e1b228f6b8279b211a6",
                    "blockNumber": "0x14366f5",
                    "data": "0x",
                    "logIndex": "0x58",
                    "removed": false,
                    "topics": [
                        "0x6560dd86d70bf03c0005b3533cc115fa8b8a12b4ee11c7342ae7b32d82267c90",
                        "0x0000000000000000000000000000000000000000000000000000000000000002",
                        "0x000000000000000000000000e752f0deba44aa2fe6bdbbd6dc3e04880d7f84df"
                    ],
                    "transactionHash": "0x4856de72f12584b067367b631aff745750c8c3fa495d1d82aab9815337928c0d",
                    "transactionIndex": "0x1f"
                }
            ],
            "logsBloom": "0x84000000000000000000000000000000000000000000000000000000000000000000000000000000000000000000000000000000000000000000000000000000000000000000000000000000000000000020000000001000000040000000000000000000000400000000000000000000000000000040000000000000000000000000000000000000000000000000000000200000000000000020000000000000000000000010000000000100000000000000000000000000008000000020000000000000000000000000000000400000000000000000000000000000008000040000000000001000000000000000000000000000088000000000000010400000",
            "status": "0x1",
            "to": "0x10420e23960bb72968a3dbcfec8f0e13c7694c68",
            "transactionHash": "0x4856de72f12584b067367b631aff745750c8c3fa495d1d82aab9815337928c0d",
            "transactionIndex": "0x1f",
            "type": "0x2"
        },
        {
            "blockHash": "0x728dbd53f04c5778fa67e5ee0fb0d55f5909311f955edde5582acbd895f20b2c",
            "blockNumber": "0x14366f6",
            "contractAddress": null,
            "cumulativeGasUsed": "0x2fbc31",
            "effectiveGasPrice": "0xb79e3d8",
            "from": "0x5fcfdc65044bf008a6b473512d34102282ee43a6",
            "gasUsed": "0x5560a",
            "l1BaseFeeScalar": "0x44d",
            "l1BlobBaseFee": "0x1",
            "l1BlobBaseFeeScalar": "0xa118b",
            "l1Fee": "0x29faba2d0",
            "l1GasPrice": "0x17d48c8dd",
            "l1GasUsed": "0x640",
            "logs": [
                {
                    "address": "0x10420e23960bb72968a3dbcfec8f0e13c7694c68",
                    "blockHash": "0x728dbd53f04c5778fa67e5ee0fb0d55f5909311f955edde5582acbd895f20b2c",
                    "blockNumber": "0x14366f6",
                    "data": "0x40c10f19000000000000000000000000000000000000000000000000000000000000000000000000000000000000000000000000000000000000000000000001",
                    "logIndex": "0x47",
                    "removed": false,
                    "topics": [
                        "0xf3cdd20c5574ce87c347ea71e37b8fa7a095894be4b7f2bb1533e8d2342965f1",
                        "0x544f4b454e000000000000000000000000000000000000000000000000000000",
                        "0x0000000000000000000000007a0e43888fdef06365697f33fc31e858844fd1d4"
                    ],
                    "transactionHash": "0xf956530887611bfb370399ba616c43cfa441c3373da318522ee695b21083934b",
                    "transactionIndex": "0x1b"
                },
                {
                    "address": "0x10420e23960bb72968a3dbcfec8f0e13c7694c68",
                    "blockHash": "0x728dbd53f04c5778fa67e5ee0fb0d55f5909311f955edde5582acbd895f20b2c",
                    "blockNumber": "0x14366f6",
                    "data": "0x359fe780000000000000000000000000000000000000000000000000000000000000000000000000000000000000000000000000000000000000000000000001",
                    "logIndex": "0x48",
                    "removed": false,
                    "topics": [
                        "0xf3cdd20c5574ce87c347ea71e37b8fa7a095894be4b7f2bb1533e8d2342965f1",
                        "0x544f4b454e000000000000000000000000000000000000000000000000000000",
                        "0x0000000000000000000000007a0e43888fdef06365697f33fc31e858844fd1d4"
                    ],
                    "transactionHash": "0xf956530887611bfb370399ba616c43cfa441c3373da318522ee695b21083934b",
                    "transactionIndex": "0x1b"
                },
                {
                    "address": "0x10420e23960bb72968a3dbcfec8f0e13c7694c68",
                    "blockHash": "0x728dbd53f04c5778fa67e5ee0fb0d55f5909311f955edde5582acbd895f20b2c",
                    "blockNumber": "0x14366f6",
                    "data": "0x",
                    "logIndex": "0x49",
                    "removed": false,
                    "topics": [
                        "0x6560dd86d70bf03c0005b3533cc115fa8b8a12b4ee11c7342ae7b32d82267c90",
                        "0x0000000000000000000000000000000000000000000000000000000000000002",
                        "0x0000000000000000000000007a0e43888fdef06365697f33fc31e858844fd1d4"
                    ],
                    "transactionHash": "0xf956530887611bfb370399ba616c43cfa441c3373da318522ee695b21083934b",
                    "transactionIndex": "0x1b"
                }
            ],
            "logsBloom": "0x84000000000000000000000000000000000000000000000000000000000000000000000000000000000000000000000000000000000000000000000000000000000000000000000000000000000000000020000000000000000040000000000000000000000400000000000000000000000000000040000000000000000000000800000000000000000000000000000020000000000000000000000000000000000000000000000000000100000000000000000000000000008000000020080000000000000000000000000000400000000000000000000000000000008000040000000000001000000000000000000000000000088000000000000000000000",
            "status": "0x1",
            "to": "0x10420e23960bb72968a3dbcfec8f0e13c7694c68",
            "transactionHash": "0xf956530887611bfb370399ba616c43cfa441c3373da318522ee695b21083934b",
            "transactionIndex": "0x1b",
            "type": "0x2"
        },
        {
            "blockHash": "0xa587737c1161d432e53ac2c4c5666a681d05b490656e2052ad59a6dfa7d28044",
            "blockNumber": "0x14366f8",
            "contractAddress": null,
            "cumulativeGasUsed": "0x5b0d00",
            "effectiveGasPrice": "0xb74dd40",
            "from": "0x5fcfdc65044bf008a6b473512d34102282ee43a6",
            "gasUsed": "0x6ca40",
            "l1BaseFeeScalar": "0x44d",
            "l1BlobBaseFee": "0x1",
            "l1BlobBaseFeeScalar": "0xa118b",
            "l1Fee": "0x29faba2d0",
            "l1GasPrice": "0x17d48c8dd",
            "l1GasUsed": "0x640",
            "logs": [
                {
                    "address": "0x10420e23960bb72968a3dbcfec8f0e13c7694c68",
                    "blockHash": "0xa587737c1161d432e53ac2c4c5666a681d05b490656e2052ad59a6dfa7d28044",
                    "blockNumber": "0x14366f8",
                    "data": "0xcc79ed65000000000000000000000000000000000000000000000000000000000000000000000000000000000000000000000000000000000000000000000001",
                    "logIndex": "0x7c",
                    "removed": false,
                    "topics": [
                        "0xf3cdd20c5574ce87c347ea71e37b8fa7a095894be4b7f2bb1533e8d2342965f1",
                        "0x5052494345000000000000000000000000000000000000000000000000000000",
                        "0x000000000000000000000000722a62e23ffe4734d417557b827f7e1aa83ca94e"
                    ],
                    "transactionHash": "0x8da5891b6fa417cd00fb3e4c0dd3d8fc7f52072c0c1b1a28d0ecc76591b97aca",
                    "transactionIndex": "0x32"
                },
                {
                    "address": "0x10420e23960bb72968a3dbcfec8f0e13c7694c68",
                    "blockHash": "0xa587737c1161d432e53ac2c4c5666a681d05b490656e2052ad59a6dfa7d28044",
                    "blockNumber": "0x14366f8",
                    "data": "0x4a5e42b1000000000000000000000000000000000000000000000000000000000000000000000000000000000000000000000000000000000000000000000001",
                    "logIndex": "0x7d",
                    "removed": false,
                    "topics": [
                        "0xf3cdd20c5574ce87c347ea71e37b8fa7a095894be4b7f2bb1533e8d2342965f1",
                        "0x5052494345000000000000000000000000000000000000000000000000000000",
                        "0x000000000000000000000000722a62e23ffe4734d417557b827f7e1aa83ca94e"
                    ],
                    "transactionHash": "0x8da5891b6fa417cd00fb3e4c0dd3d8fc7f52072c0c1b1a28d0ecc76591b97aca",
                    "transactionIndex": "0x32"
                },
                {
                    "address": "0x10420e23960bb72968a3dbcfec8f0e13c7694c68",
                    "blockHash": "0xa587737c1161d432e53ac2c4c5666a681d05b490656e2052ad59a6dfa7d28044",
                    "blockNumber": "0x14366f8",
                    "data": "0xa646a5e7000000000000000000000000000000000000000000000000000000000000000000000000000000000000000000000000000000000000000000000001",
                    "logIndex": "0x7e",
                    "removed": false,
                    "topics": [
                        "0xf3cdd20c5574ce87c347ea71e37b8fa7a095894be4b7f2bb1533e8d2342965f1",
                        "0x5052494345000000000000000000000000000000000000000000000000000000",
                        "0x000000000000000000000000722a62e23ffe4734d417557b827f7e1aa83ca94e"
                    ],
                    "transactionHash": "0x8da5891b6fa417cd00fb3e4c0dd3d8fc7f52072c0c1b1a28d0ecc76591b97aca",
                    "transactionIndex": "0x32"
                },
                {
                    "address": "0x10420e23960bb72968a3dbcfec8f0e13c7694c68",
                    "blockHash": "0xa587737c1161d432e53ac2c4c5666a681d05b490656e2052ad59a6dfa7d28044",
                    "blockNumber": "0x14366f8",
                    "data": "0xa0f95fc3000000000000000000000000000000000000000000000000000000000000000000000000000000000000000000000000000000000000000000000001",
                    "logIndex": "0x7f",
                    "removed": false,
                    "topics": [
                        "0xf3cdd20c5574ce87c347ea71e37b8fa7a095894be4b7f2bb1533e8d2342965f1",
                        "0x5052494345000000000000000000000000000000000000000000000000000000",
                        "0x000000000000000000000000722a62e23ffe4734d417557b827f7e1aa83ca94e"
                    ],
                    "transactionHash": "0x8da5891b6fa417cd00fb3e4c0dd3d8fc7f52072c0c1b1a28d0ecc76591b97aca",
                    "transactionIndex": "0x32"
                },
                {
                    "address": "0x10420e23960bb72968a3dbcfec8f0e13c7694c68",
                    "blockHash": "0xa587737c1161d432e53ac2c4c5666a681d05b490656e2052ad59a6dfa7d28044",
                    "blockNumber": "0x14366f8",
                    "data": "0xd54e95e8000000000000000000000000000000000000000000000000000000000000000000000000000000000000000000000000000000000000000000000001",
                    "logIndex": "0x80",
                    "removed": false,
                    "topics": [
                        "0xf3cdd20c5574ce87c347ea71e37b8fa7a095894be4b7f2bb1533e8d2342965f1",
                        "0x5052494345000000000000000000000000000000000000000000000000000000",
                        "0x000000000000000000000000722a62e23ffe4734d417557b827f7e1aa83ca94e"
                    ],
                    "transactionHash": "0x8da5891b6fa417cd00fb3e4c0dd3d8fc7f52072c0c1b1a28d0ecc76591b97aca",
                    "transactionIndex": "0x32"
                },
                {
                    "address": "0x10420e23960bb72968a3dbcfec8f0e13c7694c68",
                    "blockHash": "0xa587737c1161d432e53ac2c4c5666a681d05b490656e2052ad59a6dfa7d28044",
                    "blockNumber": "0x14366f8",
                    "data": "0x3ba51c0a000000000000000000000000000000000000000000000000000000000000000000000000000000000000000000000000000000000000000000000001",
                    "logIndex": "0x81",
                    "removed": false,
                    "topics": [
                        "0xf3cdd20c5574ce87c347ea71e37b8fa7a095894be4b7f2bb1533e8d2342965f1",
                        "0x5052494345000000000000000000000000000000000000000000000000000000",
                        "0x000000000000000000000000722a62e23ffe4734d417557b827f7e1aa83ca94e"
                    ],
                    "transactionHash": "0x8da5891b6fa417cd00fb3e4c0dd3d8fc7f52072c0c1b1a28d0ecc76591b97aca",
                    "transactionIndex": "0x32"
                },
                {
                    "address": "0x10420e23960bb72968a3dbcfec8f0e13c7694c68",
                    "blockHash": "0xa587737c1161d432e53ac2c4c5666a681d05b490656e2052ad59a6dfa7d28044",
                    "blockNumber": "0x14366f8",
                    "data": "0xb2305c30000000000000000000000000000000000000000000000000000000000000000000000000000000000000000000000000000000000000000000000001",
                    "logIndex": "0x82",
                    "removed": false,
                    "topics": [
                        "0xf3cdd20c5574ce87c347ea71e37b8fa7a095894be4b7f2bb1533e8d2342965f1",
                        "0x5052494345000000000000000000000000000000000000000000000000000000",
                        "0x000000000000000000000000722a62e23ffe4734d417557b827f7e1aa83ca94e"
                    ],
                    "transactionHash": "0x8da5891b6fa417cd00fb3e4c0dd3d8fc7f52072c0c1b1a28d0ecc76591b97aca",
                    "transactionIndex": "0x32"
                },
                {
                    "address": "0x10420e23960bb72968a3dbcfec8f0e13c7694c68",
                    "blockHash": "0xa587737c1161d432e53ac2c4c5666a681d05b490656e2052ad59a6dfa7d28044",
                    "blockNumber": "0x14366f8",
                    "data": "0x892ba3b2000000000000000000000000000000000000000000000000000000000000000000000000000000000000000000000000000000000000000000000001",
                    "logIndex": "0x83",
                    "removed": false,
                    "topics": [
                        "0xf3cdd20c5574ce87c347ea71e37b8fa7a095894be4b7f2bb1533e8d2342965f1",
                        "0x5052494345000000000000000000000000000000000000000000000000000000",
                        "0x000000000000000000000000722a62e23ffe4734d417557b827f7e1aa83ca94e"
                    ],
                    "transactionHash": "0x8da5891b6fa417cd00fb3e4c0dd3d8fc7f52072c0c1b1a28d0ecc76591b97aca",
                    "transactionIndex": "0x32"
                },
                {
                    "address": "0x10420e23960bb72968a3dbcfec8f0e13c7694c68",
                    "blockHash": "0xa587737c1161d432e53ac2c4c5666a681d05b490656e2052ad59a6dfa7d28044",
                    "blockNumber": "0x14366f8",
                    "data": "0x",
                    "logIndex": "0x84",
                    "removed": false,
                    "topics": [
                        "0x6560dd86d70bf03c0005b3533cc115fa8b8a12b4ee11c7342ae7b32d82267c90",
                        "0x0000000000000000000000000000000000000000000000000000000000000002",
                        "0x000000000000000000000000722a62e23ffe4734d417557b827f7e1aa83ca94e"
                    ],
                    "transactionHash": "0x8da5891b6fa417cd00fb3e4c0dd3d8fc7f52072c0c1b1a28d0ecc76591b97aca",
                    "transactionIndex": "0x32"
                }
            ],
            "logsBloom": "0x84000000000000000000000000000000000000000000000001000000000000000040000000000000000000000000000000000000000000000004000000000000000000000000002000000000000000000020000000000000000004000000000000000000000400000000000000000000000000000040000000000000000000000000000000000000000000000000000000000000000000000000000000000000000000000000000000000100000000000000000000000000008000000000000000000000000000000000000000000000000000080000000000000000008000040000000000001000000000000000000000000000088000000000000000000000",
            "status": "0x1",
            "to": "0x10420e23960bb72968a3dbcfec8f0e13c7694c68",
            "transactionHash": "0x8da5891b6fa417cd00fb3e4c0dd3d8fc7f52072c0c1b1a28d0ecc76591b97aca",
            "transactionIndex": "0x32",
            "type": "0x2"
        },
        {
            "blockHash": "0xeeb2d4d64ea8d3beafb516020fe24e22aeba5d3020678cb46657cfd1d7db4085",
            "blockNumber": "0x14366fa",
            "contractAddress": null,
            "cumulativeGasUsed": "0x4d7f96",
            "effectiveGasPrice": "0xb77d263",
            "from": "0x5fcfdc65044bf008a6b473512d34102282ee43a6",
            "gasUsed": "0x3b187",
            "l1BaseFeeScalar": "0x44d",
            "l1BlobBaseFee": "0x1",
            "l1BlobBaseFeeScalar": "0xa118b",
            "l1Fee": "0x2a2dac2cb",
            "l1GasPrice": "0x17f1780cd",
            "l1GasUsed": "0x640",
            "logs": [
                {
                    "address": "0x10420e23960bb72968a3dbcfec8f0e13c7694c68",
                    "blockHash": "0xeeb2d4d64ea8d3beafb516020fe24e22aeba5d3020678cb46657cfd1d7db4085",
                    "blockNumber": "0x14366fa",
                    "data": "0x",
                    "logIndex": "0x69",
                    "removed": false,
                    "topics": [
                        "0x6560dd86d70bf03c0005b3533cc115fa8b8a12b4ee11c7342ae7b32d82267c90",
                        "0x0000000000000000000000000000000000000000000000000000000000000002",
                        "0x000000000000000000000000bb0b041bae97490fee30629a66bf1fa15a589a2f"
                    ],
                    "transactionHash": "0x7f403665f1d28aae1b9a0b69759943da772c600ca9aefb9503d73f2c9e857296",
                    "transactionIndex": "0x26"
                }
            ],
            "logsBloom": "0x84000000000000000000000000000000000000000000000000000000000000000000000000000000000000000000000200000000000000000000000000000000000000000000000000000000000000000000000000000000000000000000000000000000000400000000000000000000000000000040000000000000000000000000040000800000000000000000000000000000000000000000000000000000000000000000000000000100000000000000000000000000008000000000000000000000000000000000000000000000000000000000000000000000008000000000000000000000000000000000000000000000088000000000000000000000",
            "status": "0x1",
            "to": "0x10420e23960bb72968a3dbcfec8f0e13c7694c68",
            "transactionHash": "0x7f403665f1d28aae1b9a0b69759943da772c600ca9aefb9503d73f2c9e857296",
            "transactionIndex": "0x26",
            "type": "0x2"
        }
    ],
    "returns": {},
    "timestamp": 1738157269,
    "transactions": [
        {
            "additionalContracts": [],
            "arguments": ["0", "0xbdFd2d1515ff348d8eDaFdc972b5C6df93f6B853"],
            "contractAddress": "0x10420e23960bb72968a3dbcfec8f0e13c7694c68",
            "contractName": null,
            "function": "executeAction(uint8,address)",
            "hash": "0xd31062604d58a68d594c44b242eb87562b13046a06bf9401731952dc9d73273c",
            "isFixedGasLimit": false,
            "transaction": {
                "chainId": "0x14a34",
                "from": "0x5fcfdc65044bf008a6b473512d34102282ee43a6",
                "gas": "0x2bb45",
                "input": "0xc4d1f8f10000000000000000000000000000000000000000000000000000000000000000000000000000000000000000bdfd2d1515ff348d8edafdc972b5c6df93f6b853",
                "nonce": "0xa1",
                "to": "0x10420e23960bb72968a3dbcfec8f0e13c7694c68",
                "value": "0x0"
            },
            "transactionType": "CALL"
        },
        {
            "additionalContracts": [],
            "arguments": ["0", "0x2292dC8658e6B9a0346294C13cb8EaFECfDa6860"],
            "contractAddress": "0x10420e23960bb72968a3dbcfec8f0e13c7694c68",
            "contractName": null,
            "function": "executeAction(uint8,address)",
            "hash": "0x6ab9b559c9ccf743626ed3d118e17cd53d7f150a7abc8e71ee7a14b3b9e8f59c",
            "isFixedGasLimit": false,
            "transaction": {
                "chainId": "0x14a34",
                "from": "0x5fcfdc65044bf008a6b473512d34102282ee43a6",
                "gas": "0x1dd9a",
                "input": "0xc4d1f8f100000000000000000000000000000000000000000000000000000000000000000000000000000000000000002292dc8658e6b9a0346294c13cb8eafecfda6860",
                "nonce": "0xa2",
                "to": "0x10420e23960bb72968a3dbcfec8f0e13c7694c68",
                "value": "0x0"
            },
            "transactionType": "CALL"
        },
        {
            "additionalContracts": [],
            "arguments": ["0", "0x050e39A7d1e44CF554348e3319A675b07c0a5524"],
            "contractAddress": "0x10420e23960bb72968a3dbcfec8f0e13c7694c68",
            "contractName": null,
            "function": "executeAction(uint8,address)",
            "hash": "0x43235d843ebbf7c8cb48ee8f4ebed02390c546575c72c0bd2e652ccd59869c70",
            "isFixedGasLimit": false,
            "transaction": {
                "chainId": "0x14a34",
                "from": "0x5fcfdc65044bf008a6b473512d34102282ee43a6",
                "gas": "0x1dd3f",
                "input": "0xc4d1f8f10000000000000000000000000000000000000000000000000000000000000000000000000000000000000000050e39a7d1e44cf554348e3319a675b07c0a5524",
                "nonce": "0xa3",
                "to": "0x10420e23960bb72968a3dbcfec8f0e13c7694c68",
                "value": "0x0"
            },
            "transactionType": "CALL"
        },
        {
            "additionalContracts": [],
            "arguments": ["0", "0x0d291dFF1365D1F0fbb058e9F9130437f3416A50"],
            "contractAddress": "0x10420e23960bb72968a3dbcfec8f0e13c7694c68",
            "contractName": null,
            "function": "executeAction(uint8,address)",
            "hash": "0xbb9f0306e85d71d2b49d7ce133a41ddb09386bfe0d118786e59b2d3bffc49c86",
            "isFixedGasLimit": false,
            "transaction": {
                "chainId": "0x14a34",
                "from": "0x5fcfdc65044bf008a6b473512d34102282ee43a6",
                "gas": "0x1dd41",
                "input": "0xc4d1f8f100000000000000000000000000000000000000000000000000000000000000000000000000000000000000000d291dff1365d1f0fbb058e9f9130437f3416a50",
                "nonce": "0xa4",
                "to": "0x10420e23960bb72968a3dbcfec8f0e13c7694c68",
                "value": "0x0"
            },
            "transactionType": "CALL"
        },
        {
            "additionalContracts": [],
            "arguments": ["2", "0xBe6C5B3Ea7F24c007EC23436Ae0c8a986824E9fb"],
            "contractAddress": "0x10420e23960bb72968a3dbcfec8f0e13c7694c68",
            "contractName": null,
            "function": "executeAction(uint8,address)",
            "hash": "0xba8ff7f0f323ba7d46b091bffcc0d82a17c581ad3ed875e75d6ef36f75b12f4b",
            "isFixedGasLimit": false,
            "transaction": {
                "chainId": "0x14a34",
                "from": "0x5fcfdc65044bf008a6b473512d34102282ee43a6",
                "gas": "0x46018",
                "input": "0xc4d1f8f10000000000000000000000000000000000000000000000000000000000000002000000000000000000000000be6c5b3ea7f24c007ec23436ae0c8a986824e9fb",
                "nonce": "0xa5",
                "to": "0x10420e23960bb72968a3dbcfec8f0e13c7694c68",
                "value": "0x0"
            },
            "transactionType": "CALL"
        },
        {
            "additionalContracts": [],
            "arguments": ["2", "0x9309A5eA7671a57E523c59da5B127CB9dC966973"],
            "contractAddress": "0x10420e23960bb72968a3dbcfec8f0e13c7694c68",
            "contractName": null,
            "function": "executeAction(uint8,address)",
            "hash": "0xac711b513418d1b10a00e720f7ef801234ac348da5b6b801b2def79adcc89481",
            "isFixedGasLimit": false,
            "transaction": {
                "chainId": "0x14a34",
                "from": "0x5fcfdc65044bf008a6b473512d34102282ee43a6",
                "gas": "0x85399",
                "input": "0xc4d1f8f100000000000000000000000000000000000000000000000000000000000000020000000000000000000000009309a5ea7671a57e523c59da5b127cb9dc966973",
                "nonce": "0xa6",
                "to": "0x10420e23960bb72968a3dbcfec8f0e13c7694c68",
                "value": "0x0"
            },
            "transactionType": "CALL"
        },
        {
            "additionalContracts": [],
            "arguments": ["2", "0xe2e1D6bd43A57729bcF4EDE491abd9a7A9b59f8d"],
            "contractAddress": "0x10420e23960bb72968a3dbcfec8f0e13c7694c68",
            "contractName": null,
            "function": "executeAction(uint8,address)",
            "hash": "0x2697ca4a1364acfc9127c087b5f7d31bc603e9f72366971a01994c1fe9cc64f5",
            "isFixedGasLimit": false,
            "transaction": {
                "chainId": "0x14a34",
                "from": "0x5fcfdc65044bf008a6b473512d34102282ee43a6",
                "gas": "0x8f107",
                "input": "0xc4d1f8f10000000000000000000000000000000000000000000000000000000000000002000000000000000000000000e2e1d6bd43a57729bcf4ede491abd9a7a9b59f8d",
                "nonce": "0xa7",
                "to": "0x10420e23960bb72968a3dbcfec8f0e13c7694c68",
                "value": "0x0"
            },
            "transactionType": "CALL"
        },
        {
            "additionalContracts": [],
            "arguments": ["2", "0xE752f0deBa44aA2FE6bdbBd6dC3e04880d7f84Df"],
            "contractAddress": "0x10420e23960bb72968a3dbcfec8f0e13c7694c68",
            "contractName": null,
            "function": "executeAction(uint8,address)",
            "hash": "0x4856de72f12584b067367b631aff745750c8c3fa495d1d82aab9815337928c0d",
            "isFixedGasLimit": false,
            "transaction": {
                "chainId": "0x14a34",
                "from": "0x5fcfdc65044bf008a6b473512d34102282ee43a6",
                "gas": "0x9f95b",
                "input": "0xc4d1f8f10000000000000000000000000000000000000000000000000000000000000002000000000000000000000000e752f0deba44aa2fe6bdbbd6dc3e04880d7f84df",
                "nonce": "0xa8",
                "to": "0x10420e23960bb72968a3dbcfec8f0e13c7694c68",
                "value": "0x0"
            },
            "transactionType": "CALL"
        },
        {
            "additionalContracts": [],
            "arguments": ["2", "0x7a0e43888FDEF06365697f33fc31e858844fd1d4"],
            "contractAddress": "0x10420e23960bb72968a3dbcfec8f0e13c7694c68",
            "contractName": null,
            "function": "executeAction(uint8,address)",
            "hash": "0xf956530887611bfb370399ba616c43cfa441c3373da318522ee695b21083934b",
            "isFixedGasLimit": false,
            "transaction": {
                "chainId": "0x14a34",
                "from": "0x5fcfdc65044bf008a6b473512d34102282ee43a6",
                "gas": "0x7cdd4",
                "input": "0xc4d1f8f100000000000000000000000000000000000000000000000000000000000000020000000000000000000000007a0e43888fdef06365697f33fc31e858844fd1d4",
                "nonce": "0xa9",
                "to": "0x10420e23960bb72968a3dbcfec8f0e13c7694c68",
                "value": "0x0"
            },
            "transactionType": "CALL"
        },
        {
            "additionalContracts": [],
            "arguments": ["2", "0x722A62E23FFe4734d417557B827f7E1AA83CA94e"],
            "contractAddress": "0x10420e23960bb72968a3dbcfec8f0e13c7694c68",
            "contractName": null,
            "function": "executeAction(uint8,address)",
            "hash": "0x8da5891b6fa417cd00fb3e4c0dd3d8fc7f52072c0c1b1a28d0ecc76591b97aca",
            "isFixedGasLimit": false,
            "transaction": {
                "chainId": "0x14a34",
                "from": "0x5fcfdc65044bf008a6b473512d34102282ee43a6",
                "gas": "0x960f5",
                "input": "0xc4d1f8f10000000000000000000000000000000000000000000000000000000000000002000000000000000000000000722a62e23ffe4734d417557b827f7e1aa83ca94e",
                "nonce": "0xaa",
                "to": "0x10420e23960bb72968a3dbcfec8f0e13c7694c68",
                "value": "0x0"
            },
            "transactionType": "CALL"
        },
        {
            "additionalContracts": [],
            "arguments": ["2", "0xbB0B041BAE97490FEe30629a66Bf1fA15A589A2f"],
            "contractAddress": "0x10420e23960bb72968a3dbcfec8f0e13c7694c68",
            "contractName": null,
            "function": "executeAction(uint8,address)",
            "hash": "0x7f403665f1d28aae1b9a0b69759943da772c600ca9aefb9503d73f2c9e857296",
            "isFixedGasLimit": false,
            "transaction": {
                "chainId": "0x14a34",
                "from": "0x5fcfdc65044bf008a6b473512d34102282ee43a6",
                "gas": "0x51a01",
                "input": "0xc4d1f8f10000000000000000000000000000000000000000000000000000000000000002000000000000000000000000bb0b041bae97490fee30629a66bf1fa15a589a2f",
                "nonce": "0xab",
                "to": "0x10420e23960bb72968a3dbcfec8f0e13c7694c68",
                "value": "0x0"
            },
            "transactionType": "CALL"
        }
    ]
}
