{
    "chain": 84532,
    "commit": "de94a06",
    "libraries": [],
    "pending": [],
    "receipts": [
        {
            "blockHash": "0x44deef949a6ef1e9843ec3b3fe0c287d08f890d234e398090aedea270a85d313",
            "blockNumber": "0x125e1d0",
            "contractAddress": null,
            "cumulativeGasUsed": "0x263633",
            "effectiveGasPrice": "0x187d5",
            "from": "0x5fcfdc65044bf008a6b473512d34102282ee43a6",
            "gasUsed": "0x1de23",
            "l1BaseFeeScalar": "0x44d",
            "l1BlobBaseFee": "0x1",
            "l1BlobBaseFeeScalar": "0xa118b",
            "l1Fee": "0x6e14113e9",
            "l1GasPrice": "0x3e7cdbf97",
            "l1GasUsed": "0x640",
            "logs": [
                {
                    "address": "0x05c0930f42b2d3ad0fd817f7bf0e25cf445ca67d",
                    "blockHash": "0x44deef949a6ef1e9843ec3b3fe0c287d08f890d234e398090aedea270a85d313",
                    "blockNumber": "0x125e1d0",
                    "data": "0x",
                    "logIndex": "0x31",
                    "removed": false,
                    "topics": [
                        "0x6560dd86d70bf03c0005b3533cc115fa8b8a12b4ee11c7342ae7b32d82267c90",
                        "0x0000000000000000000000000000000000000000000000000000000000000000",
                        "0x00000000000000000000000094bc3e39f90c3c2eb9c509451ad707184305db46"
                    ],
                    "transactionHash": "0x64319ff8c202547d514e1721b258572684f12d87c12281caba7334be17c25249",
                    "transactionIndex": "0x16"
                }
            ],
            "logsBloom": "0x80000800000000000000000000000000000000000000000000000000000000400000000000000000000000400000000000000000000000000000000000000000000000000000000000000000000000000000000000000000000000000000000000000000020000000000000000000800000000000040000000000000000000000000000000000000000000000000000000000000000000000000000100000000000000000000004000000100000000000000000000000000000000000000000000000000000000000000000000000000000000000000000000000000008020000000000000000000000000000000000000000000000000000000000000000000",
            "status": "0x1",
            "to": "0x05c0930f42b2d3ad0fd817f7bf0e25cf445ca67d",
            "transactionHash": "0x64319ff8c202547d514e1721b258572684f12d87c12281caba7334be17c25249",
            "transactionIndex": "0x16",
            "type": "0x2"
        },
        {
            "blockHash": "0x5afd476c38326b3d3ef695ccdc3297a4a2054e90ec942cff7cd30db4f2d87806",
            "blockNumber": "0x125e1d2",
            "contractAddress": null,
            "cumulativeGasUsed": "0x19fed4",
            "effectiveGasPrice": "0x187d6",
            "from": "0x5fcfdc65044bf008a6b473512d34102282ee43a6",
            "gasUsed": "0x159bb",
            "l1BaseFeeScalar": "0x44d",
            "l1BlobBaseFee": "0x1",
            "l1BlobBaseFeeScalar": "0xa118b",
            "l1Fee": "0x6e14113e9",
            "l1GasPrice": "0x3e7cdbf97",
            "l1GasUsed": "0x640",
            "logs": [
                {
                    "address": "0x05c0930f42b2d3ad0fd817f7bf0e25cf445ca67d",
                    "blockHash": "0x5afd476c38326b3d3ef695ccdc3297a4a2054e90ec942cff7cd30db4f2d87806",
                    "blockNumber": "0x125e1d2",
                    "data": "0x",
                    "logIndex": "0x14",
                    "removed": false,
                    "topics": [
                        "0x6560dd86d70bf03c0005b3533cc115fa8b8a12b4ee11c7342ae7b32d82267c90",
                        "0x0000000000000000000000000000000000000000000000000000000000000000",
                        "0x000000000000000000000000aaa375271385624cd3488342001ce31239f6b5f2"
                    ],
                    "transactionHash": "0x51f83a8e0d7d4b21025bd88650565182f502dec0fb5a9014d657f18cb1aa3d90",
                    "transactionIndex": "0xe"
                }
            ],
            "logsBloom": "0x80000800000000000000000000000000000000000000000000000000000000400000000000000000000000000000000000000000000000000000000000000000000000000100000000000000000000000000000000000000000000000000200000000000020000000000000000000800000000000040000000000000000000000000000000000000000000000000000002000000000000000000000100000000000000000000000000000000000000000000000000000000000000000000000000000000000000000000000000000000000000000000000000000000008020000000000000000000000000000000000000000000000000000000000000000000",
            "status": "0x1",
            "to": "0x05c0930f42b2d3ad0fd817f7bf0e25cf445ca67d",
            "transactionHash": "0x51f83a8e0d7d4b21025bd88650565182f502dec0fb5a9014d657f18cb1aa3d90",
            "transactionIndex": "0xe",
            "type": "0x2"
        },
        {
            "blockHash": "0x3362b4bc6c71596e3aa22ac19901de232416761fa8e18f6e07fc0f22d105ac6c",
            "blockNumber": "0x125e1d3",
            "contractAddress": null,
            "cumulativeGasUsed": "0x53eede",
            "effectiveGasPrice": "0x187d6",
            "from": "0x5fcfdc65044bf008a6b473512d34102282ee43a6",
            "gasUsed": "0x15985",
            "l1BaseFeeScalar": "0x44d",
            "l1BlobBaseFee": "0x1",
            "l1BlobBaseFeeScalar": "0xa118b",
            "l1Fee": "0x6e14113e9",
            "l1GasPrice": "0x3e7cdbf97",
            "l1GasUsed": "0x640",
            "logs": [
                {
                    "address": "0x05c0930f42b2d3ad0fd817f7bf0e25cf445ca67d",
                    "blockHash": "0x3362b4bc6c71596e3aa22ac19901de232416761fa8e18f6e07fc0f22d105ac6c",
                    "blockNumber": "0x125e1d3",
                    "data": "0x",
                    "logIndex": "0x40",
                    "removed": false,
                    "topics": [
                        "0x6560dd86d70bf03c0005b3533cc115fa8b8a12b4ee11c7342ae7b32d82267c90",
                        "0x0000000000000000000000000000000000000000000000000000000000000000",
                        "0x000000000000000000000000231b69bdb575c999825ae7c5f32439b45de6e7e1"
                    ],
                    "transactionHash": "0x0e19c589f6774d8733fea0bad7f42f3a9b6298dcc71e8d4b452012f2eb9dd5da",
                    "transactionIndex": "0x15"
                }
            ],
            "logsBloom": "0x80000800000000000000000000000000000000000000000000000000000004400000000000000000000000000000000000000000000000000000000000000000000000000000000000000000000000000000000000000000000000000000000000000000020000000000000000000800000000000040000000000000000000000000000000000000000000000000000000000000000000000000000100000000000000000000000000000000000000000000000000000000000100000000000000000000000000000040000000000000000000000000000000000000008020000000000000000000000000000000000000000000000000000000000000000000",
            "status": "0x1",
            "to": "0x05c0930f42b2d3ad0fd817f7bf0e25cf445ca67d",
            "transactionHash": "0x0e19c589f6774d8733fea0bad7f42f3a9b6298dcc71e8d4b452012f2eb9dd5da",
            "transactionIndex": "0x15",
            "type": "0x2"
        },
        {
            "blockHash": "0x9d447002fd1b54c41e04b98bfa674d1477a384c7fd44c245ee689e1573bc2586",
            "blockNumber": "0x125e1d5",
            "contractAddress": null,
            "cumulativeGasUsed": "0x11388c",
            "effectiveGasPrice": "0x187d6",
            "from": "0x5fcfdc65044bf008a6b473512d34102282ee43a6",
            "gasUsed": "0x32afb",
            "l1BaseFeeScalar": "0x44d",
            "l1BlobBaseFee": "0x1",
            "l1BlobBaseFeeScalar": "0xa118b",
            "l1Fee": "0x6e14113e9",
            "l1GasPrice": "0x3e7cdbf97",
            "l1GasUsed": "0x640",
            "logs": [
                {
                    "address": "0x05c0930f42b2d3ad0fd817f7bf0e25cf445ca67d",
                    "blockHash": "0x9d447002fd1b54c41e04b98bfa674d1477a384c7fd44c245ee689e1573bc2586",
                    "blockNumber": "0x125e1d5",
                    "data": "0x656361ff000000000000000000000000000000000000000000000000000000000000000000000000000000000000000000000000000000000000000000000001",
                    "logIndex": "0x13",
                    "removed": false,
                    "topics": [
                        "0xf3cdd20c5574ce87c347ea71e37b8fa7a095894be4b7f2bb1533e8d2342965f1",
                        "0x524f4c4553000000000000000000000000000000000000000000000000000000",
                        "0x000000000000000000000000f23972f456dd756f5dfc0d3b99c51aef5a1550d5"
                    ],
                    "transactionHash": "0xde5c48df5f4ae862054a679dcbe2139a2434da5df2bc6a207f78c5e7a82a1c20",
                    "transactionIndex": "0x8"
                },
                {
                    "address": "0x05c0930f42b2d3ad0fd817f7bf0e25cf445ca67d",
                    "blockHash": "0x9d447002fd1b54c41e04b98bfa674d1477a384c7fd44c245ee689e1573bc2586",
                    "blockNumber": "0x125e1d5",
                    "data": "0xf6ba0007000000000000000000000000000000000000000000000000000000000000000000000000000000000000000000000000000000000000000000000001",
                    "logIndex": "0x14",
                    "removed": false,
                    "topics": [
                        "0xf3cdd20c5574ce87c347ea71e37b8fa7a095894be4b7f2bb1533e8d2342965f1",
                        "0x524f4c4553000000000000000000000000000000000000000000000000000000",
                        "0x000000000000000000000000f23972f456dd756f5dfc0d3b99c51aef5a1550d5"
                    ],
                    "transactionHash": "0xde5c48df5f4ae862054a679dcbe2139a2434da5df2bc6a207f78c5e7a82a1c20",
                    "transactionIndex": "0x8"
                },
                {
                    "address": "0x05c0930f42b2d3ad0fd817f7bf0e25cf445ca67d",
                    "blockHash": "0x9d447002fd1b54c41e04b98bfa674d1477a384c7fd44c245ee689e1573bc2586",
                    "blockNumber": "0x125e1d5",
                    "data": "0x",
                    "logIndex": "0x15",
                    "removed": false,
                    "topics": [
                        "0x6560dd86d70bf03c0005b3533cc115fa8b8a12b4ee11c7342ae7b32d82267c90",
                        "0x0000000000000000000000000000000000000000000000000000000000000002",
                        "0x000000000000000000000000f23972f456dd756f5dfc0d3b99c51aef5a1550d5"
                    ],
                    "transactionHash": "0xde5c48df5f4ae862054a679dcbe2139a2434da5df2bc6a207f78c5e7a82a1c20",
                    "transactionIndex": "0x8"
                }
            ],
            "logsBloom": "0x84000800000000000000000000000000000000000000000000000000000000400000000000000000000000000000000001000000000000000000000000000000008000000000000000000000000000000020000000000000000000000000000000000000000000000000000000000000000000000040000000000000000000002000000000000000000000000080000000000000020000000000000100000000000000000000000000000100000000000000000000000000000000000000100000000000000000000000000000000000000000000000000000000000008000040000000000001000000000000000000000000000008000000000000000000000",
            "status": "0x1",
            "to": "0x05c0930f42b2d3ad0fd817f7bf0e25cf445ca67d",
            "transactionHash": "0xde5c48df5f4ae862054a679dcbe2139a2434da5df2bc6a207f78c5e7a82a1c20",
            "transactionIndex": "0x8",
            "type": "0x2"
        },
        {
            "blockHash": "0xc77cdace72931f3f24df0f5c19ea2dd49ae9927a90668c010e8ee766a06e3baf",
            "blockNumber": "0x125e1d7",
            "contractAddress": null,
            "cumulativeGasUsed": "0x18a853",
            "effectiveGasPrice": "0x187d6",
            "from": "0x5fcfdc65044bf008a6b473512d34102282ee43a6",
            "gasUsed": "0x6073e",
            "l1BaseFeeScalar": "0x44d",
            "l1BlobBaseFee": "0x1",
            "l1BlobBaseFeeScalar": "0xa118b",
            "l1Fee": "0x6cdca316f",
            "l1GasPrice": "0x3dcc122a9",
            "l1GasUsed": "0x640",
            "logs": [
                {
                    "address": "0x05c0930f42b2d3ad0fd817f7bf0e25cf445ca67d",
                    "blockHash": "0xc77cdace72931f3f24df0f5c19ea2dd49ae9927a90668c010e8ee766a06e3baf",
                    "blockNumber": "0x125e1d7",
                    "data": "0x2f42aef5000000000000000000000000000000000000000000000000000000000000000000000000000000000000000000000000000000000000000000000001",
                    "logIndex": "0x14",
                    "removed": false,
                    "topics": [
                        "0xf3cdd20c5574ce87c347ea71e37b8fa7a095894be4b7f2bb1533e8d2342965f1",
                        "0x5452535259000000000000000000000000000000000000000000000000000000",
                        "0x0000000000000000000000002d521f14715fd4d2903f732ac5f583e46eade63b"
                    ],
                    "transactionHash": "0xe1416a6429cdf0aa69599d855cbec6580dfb62015775f164e303a8bfce488713",
                    "transactionIndex": "0x9"
                },
                {
                    "address": "0x05c0930f42b2d3ad0fd817f7bf0e25cf445ca67d",
                    "blockHash": "0xc77cdace72931f3f24df0f5c19ea2dd49ae9927a90668c010e8ee766a06e3baf",
                    "blockNumber": "0x125e1d7",
                    "data": "0xe6eb207a000000000000000000000000000000000000000000000000000000000000000000000000000000000000000000000000000000000000000000000001",
                    "logIndex": "0x15",
                    "removed": false,
                    "topics": [
                        "0xf3cdd20c5574ce87c347ea71e37b8fa7a095894be4b7f2bb1533e8d2342965f1",
                        "0x5452535259000000000000000000000000000000000000000000000000000000",
                        "0x0000000000000000000000002d521f14715fd4d2903f732ac5f583e46eade63b"
                    ],
                    "transactionHash": "0xe1416a6429cdf0aa69599d855cbec6580dfb62015775f164e303a8bfce488713",
                    "transactionIndex": "0x9"
                },
                {
                    "address": "0x05c0930f42b2d3ad0fd817f7bf0e25cf445ca67d",
                    "blockHash": "0xc77cdace72931f3f24df0f5c19ea2dd49ae9927a90668c010e8ee766a06e3baf",
                    "blockNumber": "0x125e1d7",
                    "data": "0x8b7f3fb9000000000000000000000000000000000000000000000000000000000000000000000000000000000000000000000000000000000000000000000001",
                    "logIndex": "0x16",
                    "removed": false,
                    "topics": [
                        "0xf3cdd20c5574ce87c347ea71e37b8fa7a095894be4b7f2bb1533e8d2342965f1",
                        "0x5452535259000000000000000000000000000000000000000000000000000000",
                        "0x0000000000000000000000002d521f14715fd4d2903f732ac5f583e46eade63b"
                    ],
                    "transactionHash": "0xe1416a6429cdf0aa69599d855cbec6580dfb62015775f164e303a8bfce488713",
                    "transactionIndex": "0x9"
                },
                {
                    "address": "0x05c0930f42b2d3ad0fd817f7bf0e25cf445ca67d",
                    "blockHash": "0xc77cdace72931f3f24df0f5c19ea2dd49ae9927a90668c010e8ee766a06e3baf",
                    "blockNumber": "0x125e1d7",
                    "data": "0x01a91e5c000000000000000000000000000000000000000000000000000000000000000000000000000000000000000000000000000000000000000000000001",
                    "logIndex": "0x17",
                    "removed": false,
                    "topics": [
                        "0xf3cdd20c5574ce87c347ea71e37b8fa7a095894be4b7f2bb1533e8d2342965f1",
                        "0x5452535259000000000000000000000000000000000000000000000000000000",
                        "0x0000000000000000000000002d521f14715fd4d2903f732ac5f583e46eade63b"
                    ],
                    "transactionHash": "0xe1416a6429cdf0aa69599d855cbec6580dfb62015775f164e303a8bfce488713",
                    "transactionIndex": "0x9"
                },
                {
                    "address": "0x05c0930f42b2d3ad0fd817f7bf0e25cf445ca67d",
                    "blockHash": "0xc77cdace72931f3f24df0f5c19ea2dd49ae9927a90668c010e8ee766a06e3baf",
                    "blockNumber": "0x125e1d7",
                    "data": "0xfb393f24000000000000000000000000000000000000000000000000000000000000000000000000000000000000000000000000000000000000000000000001",
                    "logIndex": "0x18",
                    "removed": false,
                    "topics": [
                        "0xf3cdd20c5574ce87c347ea71e37b8fa7a095894be4b7f2bb1533e8d2342965f1",
                        "0x5452535259000000000000000000000000000000000000000000000000000000",
                        "0x0000000000000000000000002d521f14715fd4d2903f732ac5f583e46eade63b"
                    ],
                    "transactionHash": "0xe1416a6429cdf0aa69599d855cbec6580dfb62015775f164e303a8bfce488713",
                    "transactionIndex": "0x9"
                },
                {
                    "address": "0x05c0930f42b2d3ad0fd817f7bf0e25cf445ca67d",
                    "blockHash": "0xc77cdace72931f3f24df0f5c19ea2dd49ae9927a90668c010e8ee766a06e3baf",
                    "blockNumber": "0x125e1d7",
                    "data": "0x4aae164b000000000000000000000000000000000000000000000000000000000000000000000000000000000000000000000000000000000000000000000001",
                    "logIndex": "0x19",
                    "removed": false,
                    "topics": [
                        "0xf3cdd20c5574ce87c347ea71e37b8fa7a095894be4b7f2bb1533e8d2342965f1",
                        "0x5452535259000000000000000000000000000000000000000000000000000000",
                        "0x0000000000000000000000002d521f14715fd4d2903f732ac5f583e46eade63b"
                    ],
                    "transactionHash": "0xe1416a6429cdf0aa69599d855cbec6580dfb62015775f164e303a8bfce488713",
                    "transactionIndex": "0x9"
                },
                {
                    "address": "0x05c0930f42b2d3ad0fd817f7bf0e25cf445ca67d",
                    "blockHash": "0xc77cdace72931f3f24df0f5c19ea2dd49ae9927a90668c010e8ee766a06e3baf",
                    "blockNumber": "0x125e1d7",
                    "data": "0x",
                    "logIndex": "0x1a",
                    "removed": false,
                    "topics": [
                        "0x6560dd86d70bf03c0005b3533cc115fa8b8a12b4ee11c7342ae7b32d82267c90",
                        "0x0000000000000000000000000000000000000000000000000000000000000002",
                        "0x0000000000000000000000002d521f14715fd4d2903f732ac5f583e46eade63b"
                    ],
                    "transactionHash": "0xe1416a6429cdf0aa69599d855cbec6580dfb62015775f164e303a8bfce488713",
                    "transactionIndex": "0x9"
                }
            ],
            "logsBloom": "0x84000800000000000000000000000000000000000000000000000000000000400000000000000000000000000000000000000000000000000000000000000000000000000000000000000000000000000020000000001000000000000000000000000000000000000000000000000000000000000040000000000800000000000000000000000000000000000000000000200000000000000000000100000000000000000000000000000100000008000000000000000000000000000000000000000000000000000000000000000000000000000000000040000000008000040000000000001000000000000000000000000000008000000000000010000000",
            "status": "0x1",
            "to": "0x05c0930f42b2d3ad0fd817f7bf0e25cf445ca67d",
            "transactionHash": "0xe1416a6429cdf0aa69599d855cbec6580dfb62015775f164e303a8bfce488713",
            "transactionIndex": "0x9",
            "type": "0x2"
        },
        {
            "blockHash": "0xe2a7708d3cc5de62d1b88fcdb589a45f0d28a2cf2e241f24f9f1eba182cfa8fa",
            "blockNumber": "0x125e1d9",
            "contractAddress": null,
            "cumulativeGasUsed": "0x177cb6",
            "effectiveGasPrice": "0x187d6",
            "from": "0x5fcfdc65044bf008a6b473512d34102282ee43a6",
            "gasUsed": "0x67938",
            "l1BaseFeeScalar": "0x44d",
            "l1BlobBaseFee": "0x1",
            "l1BlobBaseFeeScalar": "0xa118b",
            "l1Fee": "0x6cdca316f",
            "l1GasPrice": "0x3dcc122a9",
            "l1GasUsed": "0x640",
            "logs": [
                {
                    "address": "0x05c0930f42b2d3ad0fd817f7bf0e25cf445ca67d",
                    "blockHash": "0xe2a7708d3cc5de62d1b88fcdb589a45f0d28a2cf2e241f24f9f1eba182cfa8fa",
                    "blockNumber": "0x125e1d9",
                    "data": "0x51b42b00000000000000000000000000000000000000000000000000000000000000000000000000000000000000000000000000000000000000000000000001",
                    "logIndex": "0xd",
                    "removed": false,
                    "topics": [
                        "0xf3cdd20c5574ce87c347ea71e37b8fa7a095894be4b7f2bb1533e8d2342965f1",
                        "0x5452535259000000000000000000000000000000000000000000000000000000",
                        "0x000000000000000000000000784a1d3418d54b8a702bfcc2b3dcf9287e4efd2a"
                    ],
                    "transactionHash": "0x448deb7386fe4e9c10321231deb228f87a0c12c9966955680ed679c27d769e44",
                    "transactionIndex": "0xb"
                },
                {
                    "address": "0x05c0930f42b2d3ad0fd817f7bf0e25cf445ca67d",
                    "blockHash": "0xe2a7708d3cc5de62d1b88fcdb589a45f0d28a2cf2e241f24f9f1eba182cfa8fa",
                    "blockNumber": "0x125e1d9",
                    "data": "0x0f15f4c0000000000000000000000000000000000000000000000000000000000000000000000000000000000000000000000000000000000000000000000001",
                    "logIndex": "0xe",
                    "removed": false,
                    "topics": [
                        "0xf3cdd20c5574ce87c347ea71e37b8fa7a095894be4b7f2bb1533e8d2342965f1",
                        "0x5452535259000000000000000000000000000000000000000000000000000000",
                        "0x000000000000000000000000784a1d3418d54b8a702bfcc2b3dcf9287e4efd2a"
                    ],
                    "transactionHash": "0x448deb7386fe4e9c10321231deb228f87a0c12c9966955680ed679c27d769e44",
                    "transactionIndex": "0xb"
                },
                {
                    "address": "0x05c0930f42b2d3ad0fd817f7bf0e25cf445ca67d",
                    "blockHash": "0xe2a7708d3cc5de62d1b88fcdb589a45f0d28a2cf2e241f24f9f1eba182cfa8fa",
                    "blockNumber": "0x125e1d9",
                    "data": "0x51b42b00000000000000000000000000000000000000000000000000000000000000000000000000000000000000000000000000000000000000000000000001",
                    "logIndex": "0xf",
                    "removed": false,
                    "topics": [
                        "0xf3cdd20c5574ce87c347ea71e37b8fa7a095894be4b7f2bb1533e8d2342965f1",
                        "0x544f4b454e000000000000000000000000000000000000000000000000000000",
                        "0x000000000000000000000000784a1d3418d54b8a702bfcc2b3dcf9287e4efd2a"
                    ],
                    "transactionHash": "0x448deb7386fe4e9c10321231deb228f87a0c12c9966955680ed679c27d769e44",
                    "transactionIndex": "0xb"
                },
                {
                    "address": "0x05c0930f42b2d3ad0fd817f7bf0e25cf445ca67d",
                    "blockHash": "0xe2a7708d3cc5de62d1b88fcdb589a45f0d28a2cf2e241f24f9f1eba182cfa8fa",
                    "blockNumber": "0x125e1d9",
                    "data": "0x0f15f4c0000000000000000000000000000000000000000000000000000000000000000000000000000000000000000000000000000000000000000000000001",
                    "logIndex": "0x10",
                    "removed": false,
                    "topics": [
                        "0xf3cdd20c5574ce87c347ea71e37b8fa7a095894be4b7f2bb1533e8d2342965f1",
                        "0x544f4b454e000000000000000000000000000000000000000000000000000000",
                        "0x000000000000000000000000784a1d3418d54b8a702bfcc2b3dcf9287e4efd2a"
                    ],
                    "transactionHash": "0x448deb7386fe4e9c10321231deb228f87a0c12c9966955680ed679c27d769e44",
                    "transactionIndex": "0xb"
                },
                {
                    "address": "0x05c0930f42b2d3ad0fd817f7bf0e25cf445ca67d",
                    "blockHash": "0xe2a7708d3cc5de62d1b88fcdb589a45f0d28a2cf2e241f24f9f1eba182cfa8fa",
                    "blockNumber": "0x125e1d9",
                    "data": "0x",
                    "logIndex": "0x11",
                    "removed": false,
                    "topics": [
                        "0x6560dd86d70bf03c0005b3533cc115fa8b8a12b4ee11c7342ae7b32d82267c90",
                        "0x0000000000000000000000000000000000000000000000000000000000000002",
                        "0x000000000000000000000000784a1d3418d54b8a702bfcc2b3dcf9287e4efd2a"
                    ],
                    "transactionHash": "0x448deb7386fe4e9c10321231deb228f87a0c12c9966955680ed679c27d769e44",
                    "transactionIndex": "0xb"
                }
            ],
            "logsBloom": "0x84000800000000000000000000000000000000000000000000000000000000400000000000000000000000000000000000000000000000000000000000000000000000000000000000000000000008000020000000001000000040000000000000000000000000000000000000000000000000000040000000000000000000000000000000000000000000000000000000200000000000000000000100000000000000000000000000000100000000000004000000000000000000000030000000000000000000000000000000400000000000000000000000000000008000040000000000001000000000000000000000000000008000000000000010000000",
            "status": "0x1",
            "to": "0x05c0930f42b2d3ad0fd817f7bf0e25cf445ca67d",
            "transactionHash": "0x448deb7386fe4e9c10321231deb228f87a0c12c9966955680ed679c27d769e44",
            "transactionIndex": "0xb",
            "type": "0x2"
        },
        {
            "blockHash": "0x287d102ffb1e9c69980e95aca2d920901e288fc1dcafc938c61a95dbab984ad2",
            "blockNumber": "0x125e1db",
            "contractAddress": null,
            "cumulativeGasUsed": "0x17d1a1",
            "effectiveGasPrice": "0x187d7",
            "from": "0x5fcfdc65044bf008a6b473512d34102282ee43a6",
            "gasUsed": "0x737f7",
            "l1BaseFeeScalar": "0x44d",
            "l1BlobBaseFee": "0x1",
            "l1BlobBaseFeeScalar": "0xa118b",
            "l1Fee": "0x6cdca316f",
            "l1GasPrice": "0x3dcc122a9",
            "l1GasUsed": "0x640",
            "logs": [
                {
                    "address": "0x05c0930f42b2d3ad0fd817f7bf0e25cf445ca67d",
                    "blockHash": "0x287d102ffb1e9c69980e95aca2d920901e288fc1dcafc938c61a95dbab984ad2",
                    "blockNumber": "0x125e1db",
                    "data": "0x2f42aef5000000000000000000000000000000000000000000000000000000000000000000000000000000000000000000000000000000000000000000000001",
                    "logIndex": "0x12",
                    "removed": false,
                    "topics": [
                        "0xf3cdd20c5574ce87c347ea71e37b8fa7a095894be4b7f2bb1533e8d2342965f1",
                        "0x5452535259000000000000000000000000000000000000000000000000000000",
                        "0x000000000000000000000000e70a2f9552e1184406a58feb642dafb0b1b2a6b4"
                    ],
                    "transactionHash": "0xfd5773d94a1e2da2e72b0272d16d8669a691ab1cdf47f5ceabaa01854a6287ac",
                    "transactionIndex": "0xa"
                },
                {
                    "address": "0x05c0930f42b2d3ad0fd817f7bf0e25cf445ca67d",
                    "blockHash": "0x287d102ffb1e9c69980e95aca2d920901e288fc1dcafc938c61a95dbab984ad2",
                    "blockNumber": "0x125e1db",
                    "data": "0xe6eb207a000000000000000000000000000000000000000000000000000000000000000000000000000000000000000000000000000000000000000000000001",
                    "logIndex": "0x13",
                    "removed": false,
                    "topics": [
                        "0xf3cdd20c5574ce87c347ea71e37b8fa7a095894be4b7f2bb1533e8d2342965f1",
                        "0x5452535259000000000000000000000000000000000000000000000000000000",
                        "0x000000000000000000000000e70a2f9552e1184406a58feb642dafb0b1b2a6b4"
                    ],
                    "transactionHash": "0xfd5773d94a1e2da2e72b0272d16d8669a691ab1cdf47f5ceabaa01854a6287ac",
                    "transactionIndex": "0xa"
                },
                {
                    "address": "0x05c0930f42b2d3ad0fd817f7bf0e25cf445ca67d",
                    "blockHash": "0x287d102ffb1e9c69980e95aca2d920901e288fc1dcafc938c61a95dbab984ad2",
                    "blockNumber": "0x125e1db",
                    "data": "0x8b7f3fb9000000000000000000000000000000000000000000000000000000000000000000000000000000000000000000000000000000000000000000000001",
                    "logIndex": "0x14",
                    "removed": false,
                    "topics": [
                        "0xf3cdd20c5574ce87c347ea71e37b8fa7a095894be4b7f2bb1533e8d2342965f1",
                        "0x5452535259000000000000000000000000000000000000000000000000000000",
                        "0x000000000000000000000000e70a2f9552e1184406a58feb642dafb0b1b2a6b4"
                    ],
                    "transactionHash": "0xfd5773d94a1e2da2e72b0272d16d8669a691ab1cdf47f5ceabaa01854a6287ac",
                    "transactionIndex": "0xa"
                },
                {
                    "address": "0x05c0930f42b2d3ad0fd817f7bf0e25cf445ca67d",
                    "blockHash": "0x287d102ffb1e9c69980e95aca2d920901e288fc1dcafc938c61a95dbab984ad2",
                    "blockNumber": "0x125e1db",
                    "data": "0x40c10f19000000000000000000000000000000000000000000000000000000000000000000000000000000000000000000000000000000000000000000000001",
                    "logIndex": "0x15",
                    "removed": false,
                    "topics": [
                        "0xf3cdd20c5574ce87c347ea71e37b8fa7a095894be4b7f2bb1533e8d2342965f1",
                        "0x544f4b454e000000000000000000000000000000000000000000000000000000",
                        "0x000000000000000000000000e70a2f9552e1184406a58feb642dafb0b1b2a6b4"
                    ],
                    "transactionHash": "0xfd5773d94a1e2da2e72b0272d16d8669a691ab1cdf47f5ceabaa01854a6287ac",
                    "transactionIndex": "0xa"
                },
                {
                    "address": "0x05c0930f42b2d3ad0fd817f7bf0e25cf445ca67d",
                    "blockHash": "0x287d102ffb1e9c69980e95aca2d920901e288fc1dcafc938c61a95dbab984ad2",
                    "blockNumber": "0x125e1db",
                    "data": "0x359fe780000000000000000000000000000000000000000000000000000000000000000000000000000000000000000000000000000000000000000000000001",
                    "logIndex": "0x16",
                    "removed": false,
                    "topics": [
                        "0xf3cdd20c5574ce87c347ea71e37b8fa7a095894be4b7f2bb1533e8d2342965f1",
                        "0x544f4b454e000000000000000000000000000000000000000000000000000000",
                        "0x000000000000000000000000e70a2f9552e1184406a58feb642dafb0b1b2a6b4"
                    ],
                    "transactionHash": "0xfd5773d94a1e2da2e72b0272d16d8669a691ab1cdf47f5ceabaa01854a6287ac",
                    "transactionIndex": "0xa"
                },
                {
                    "address": "0x05c0930f42b2d3ad0fd817f7bf0e25cf445ca67d",
                    "blockHash": "0x287d102ffb1e9c69980e95aca2d920901e288fc1dcafc938c61a95dbab984ad2",
                    "blockNumber": "0x125e1db",
                    "data": "0x1b0a68f2000000000000000000000000000000000000000000000000000000000000000000000000000000000000000000000000000000000000000000000001",
                    "logIndex": "0x17",
                    "removed": false,
                    "topics": [
                        "0xf3cdd20c5574ce87c347ea71e37b8fa7a095894be4b7f2bb1533e8d2342965f1",
                        "0x544f4b454e000000000000000000000000000000000000000000000000000000",
                        "0x000000000000000000000000e70a2f9552e1184406a58feb642dafb0b1b2a6b4"
                    ],
                    "transactionHash": "0xfd5773d94a1e2da2e72b0272d16d8669a691ab1cdf47f5ceabaa01854a6287ac",
                    "transactionIndex": "0xa"
                },
                {
                    "address": "0x05c0930f42b2d3ad0fd817f7bf0e25cf445ca67d",
                    "blockHash": "0x287d102ffb1e9c69980e95aca2d920901e288fc1dcafc938c61a95dbab984ad2",
                    "blockNumber": "0x125e1db",
                    "data": "0x",
                    "logIndex": "0x18",
                    "removed": false,
                    "topics": [
                        "0x6560dd86d70bf03c0005b3533cc115fa8b8a12b4ee11c7342ae7b32d82267c90",
                        "0x0000000000000000000000000000000000000000000000000000000000000002",
                        "0x000000000000000000000000e70a2f9552e1184406a58feb642dafb0b1b2a6b4"
                    ],
                    "transactionHash": "0xfd5773d94a1e2da2e72b0272d16d8669a691ab1cdf47f5ceabaa01854a6287ac",
                    "transactionIndex": "0xa"
                }
            ],
            "logsBloom": "0x84000800000000000000000000000000000000000000000000000000000000400000000000000000000000000000000000000000000000000000000000000100000000000000000000000020000000000020000000001000000040008000000000000000000000000000000000000000000000000040000000000000000000000000000000000000000000000000000000200000000000000000000100000000000000000000000000000100000000000000000000000000000000000020000000000000000000000000000000400000000000000000000000000000008000040000000000001000000000000000000000000000008000000000000010000000",
            "status": "0x1",
            "to": "0x05c0930f42b2d3ad0fd817f7bf0e25cf445ca67d",
            "transactionHash": "0xfd5773d94a1e2da2e72b0272d16d8669a691ab1cdf47f5ceabaa01854a6287ac",
            "transactionIndex": "0xa",
            "type": "0x2"
        },
        {
            "blockHash": "0x9dd3a421a7f5db849ccb643349e6f87685ced60d82ca1b1972bbba81cedd159f",
            "blockNumber": "0x125e1dd",
            "contractAddress": null,
            "cumulativeGasUsed": "0x1b3fa0",
            "effectiveGasPrice": "0x187d7",
            "from": "0x5fcfdc65044bf008a6b473512d34102282ee43a6",
            "gasUsed": "0x59852",
            "l1BaseFeeScalar": "0x44d",
            "l1BlobBaseFee": "0x1",
            "l1BlobBaseFeeScalar": "0xa118b",
            "l1Fee": "0x67d5da073",
            "l1GasPrice": "0x3af19b615",
            "l1GasUsed": "0x640",
            "logs": [
                {
                    "address": "0x05c0930f42b2d3ad0fd817f7bf0e25cf445ca67d",
                    "blockHash": "0x9dd3a421a7f5db849ccb643349e6f87685ced60d82ca1b1972bbba81cedd159f",
                    "blockNumber": "0x125e1dd",
                    "data": "0x40c10f19000000000000000000000000000000000000000000000000000000000000000000000000000000000000000000000000000000000000000000000001",
                    "logIndex": "0x17",
                    "removed": false,
                    "topics": [
                        "0xf3cdd20c5574ce87c347ea71e37b8fa7a095894be4b7f2bb1533e8d2342965f1",
                        "0x544f4b454e000000000000000000000000000000000000000000000000000000",
                        "0x0000000000000000000000007651ec63e3b6e41ac3858f61beaab0db8925e63d"
                    ],
                    "transactionHash": "0xfaae63cb42a6ba26b237b3412459d51df13aa116c534e47ca8f611b1f47068f9",
                    "transactionIndex": "0x10"
                },
                {
                    "address": "0x05c0930f42b2d3ad0fd817f7bf0e25cf445ca67d",
                    "blockHash": "0x9dd3a421a7f5db849ccb643349e6f87685ced60d82ca1b1972bbba81cedd159f",
                    "blockNumber": "0x125e1dd",
                    "data": "0x359fe780000000000000000000000000000000000000000000000000000000000000000000000000000000000000000000000000000000000000000000000001",
                    "logIndex": "0x18",
                    "removed": false,
                    "topics": [
                        "0xf3cdd20c5574ce87c347ea71e37b8fa7a095894be4b7f2bb1533e8d2342965f1",
                        "0x544f4b454e000000000000000000000000000000000000000000000000000000",
                        "0x0000000000000000000000007651ec63e3b6e41ac3858f61beaab0db8925e63d"
                    ],
                    "transactionHash": "0xfaae63cb42a6ba26b237b3412459d51df13aa116c534e47ca8f611b1f47068f9",
                    "transactionIndex": "0x10"
                },
                {
                    "address": "0x05c0930f42b2d3ad0fd817f7bf0e25cf445ca67d",
                    "blockHash": "0x9dd3a421a7f5db849ccb643349e6f87685ced60d82ca1b1972bbba81cedd159f",
                    "blockNumber": "0x125e1dd",
                    "data": "0x",
                    "logIndex": "0x19",
                    "removed": false,
                    "topics": [
                        "0x6560dd86d70bf03c0005b3533cc115fa8b8a12b4ee11c7342ae7b32d82267c90",
                        "0x0000000000000000000000000000000000000000000000000000000000000002",
                        "0x0000000000000000000000007651ec63e3b6e41ac3858f61beaab0db8925e63d"
                    ],
                    "transactionHash": "0xfaae63cb42a6ba26b237b3412459d51df13aa116c534e47ca8f611b1f47068f9",
                    "transactionIndex": "0x10"
                }
            ],
            "logsBloom": "0x84000800000000000000000000000000000000000000000000000000000000400000000000000000000000000000000000000000000000000000000000000000000000000000000000000000000000000020000000000000000040000000000000000000000000000000000000000000000000000040000000000000000000000000000000000000000000000200000000000000000000000000000900000000000000000000000000000100000000000000000000000000000000000020000000000000000000000000000000400000000000000000000000000000008000040000000002001000000000000000000000000000008000000000000000000000",
            "status": "0x1",
            "to": "0x05c0930f42b2d3ad0fd817f7bf0e25cf445ca67d",
            "transactionHash": "0xfaae63cb42a6ba26b237b3412459d51df13aa116c534e47ca8f611b1f47068f9",
            "transactionIndex": "0x10",
            "type": "0x2"
        }
    ],
    "returns": {},
    "timestamp": 1734288027,
    "transactions": [
        {
            "additionalContracts": [],
            "arguments": ["0", "0x94BC3E39F90C3c2eB9C509451ad707184305dB46"],
            "contractAddress": "0x05c0930f42b2d3ad0fd817f7bf0e25cf445ca67d",
            "contractName": null,
            "function": "executeAction(uint8,address)",
            "hash": "0x64319ff8c202547d514e1721b258572684f12d87c12281caba7334be17c25249",
            "isFixedGasLimit": false,
            "transaction": {
                "chainId": "0x14a34",
                "from": "0x5fcfdc65044bf008a6b473512d34102282ee43a6",
                "gas": "0x2bb45",
                "input": "0xc4d1f8f1000000000000000000000000000000000000000000000000000000000000000000000000000000000000000094bc3e39f90c3c2eb9c509451ad707184305db46",
                "nonce": "0x35",
                "to": "0x05c0930f42b2d3ad0fd817f7bf0e25cf445ca67d",
                "value": "0x0"
            },
            "transactionType": "CALL"
        },
        {
            "additionalContracts": [],
            "arguments": ["0", "0xAAA375271385624cd3488342001ce31239f6B5F2"],
            "contractAddress": "0x05c0930f42b2d3ad0fd817f7bf0e25cf445ca67d",
            "contractName": null,
            "function": "executeAction(uint8,address)",
            "hash": "0x51f83a8e0d7d4b21025bd88650565182f502dec0fb5a9014d657f18cb1aa3d90",
            "isFixedGasLimit": false,
            "transaction": {
                "chainId": "0x14a34",
                "from": "0x5fcfdc65044bf008a6b473512d34102282ee43a6",
                "gas": "0x1f9a1",
                "input": "0xc4d1f8f10000000000000000000000000000000000000000000000000000000000000000000000000000000000000000aaa375271385624cd3488342001ce31239f6b5f2",
                "nonce": "0x36",
                "to": "0x05c0930f42b2d3ad0fd817f7bf0e25cf445ca67d",
                "value": "0x0"
            },
            "transactionType": "CALL"
        },
        {
            "additionalContracts": [],
            "arguments": ["0", "0x231b69bDb575C999825ae7C5F32439b45De6e7E1"],
            "contractAddress": "0x05c0930f42b2d3ad0fd817f7bf0e25cf445ca67d",
            "contractName": null,
            "function": "executeAction(uint8,address)",
            "hash": "0x0e19c589f6774d8733fea0bad7f42f3a9b6298dcc71e8d4b452012f2eb9dd5da",
            "isFixedGasLimit": false,
            "transaction": {
                "chainId": "0x14a34",
                "from": "0x5fcfdc65044bf008a6b473512d34102282ee43a6",
                "gas": "0x1dd3f",
                "input": "0xc4d1f8f10000000000000000000000000000000000000000000000000000000000000000000000000000000000000000231b69bdb575c999825ae7c5f32439b45de6e7e1",
                "nonce": "0x37",
                "to": "0x05c0930f42b2d3ad0fd817f7bf0e25cf445ca67d",
                "value": "0x0"
            },
            "transactionType": "CALL"
        },
        {
            "additionalContracts": [],
            "arguments": ["2", "0xF23972F456dd756F5Dfc0D3B99c51AeF5A1550d5"],
            "contractAddress": "0x05c0930f42b2d3ad0fd817f7bf0e25cf445ca67d",
            "contractName": null,
            "function": "executeAction(uint8,address)",
            "hash": "0xde5c48df5f4ae862054a679dcbe2139a2434da5df2bc6a207f78c5e7a82a1c20",
            "isFixedGasLimit": false,
            "transaction": {
                "chainId": "0x14a34",
                "from": "0x5fcfdc65044bf008a6b473512d34102282ee43a6",
                "gas": "0x4a20e",
                "input": "0xc4d1f8f10000000000000000000000000000000000000000000000000000000000000002000000000000000000000000f23972f456dd756f5dfc0d3b99c51aef5a1550d5",
                "nonce": "0x38",
                "to": "0x05c0930f42b2d3ad0fd817f7bf0e25cf445ca67d",
                "value": "0x0"
            },
            "transactionType": "CALL"
        },
        {
            "additionalContracts": [],
            "arguments": ["2", "0x2d521F14715fD4d2903f732Ac5F583e46eADe63b"],
            "contractAddress": "0x05c0930f42b2d3ad0fd817f7bf0e25cf445ca67d",
            "contractName": null,
            "function": "executeAction(uint8,address)",
            "hash": "0xe1416a6429cdf0aa69599d855cbec6580dfb62015775f164e303a8bfce488713",
            "isFixedGasLimit": false,
            "transaction": {
                "chainId": "0x14a34",
                "from": "0x5fcfdc65044bf008a6b473512d34102282ee43a6",
                "gas": "0x85399",
                "input": "0xc4d1f8f100000000000000000000000000000000000000000000000000000000000000020000000000000000000000002d521f14715fd4d2903f732ac5f583e46eade63b",
                "nonce": "0x39",
                "to": "0x05c0930f42b2d3ad0fd817f7bf0e25cf445ca67d",
                "value": "0x0"
            },
            "transactionType": "CALL"
        },
        {
            "additionalContracts": [],
            "arguments": ["2", "0x784A1d3418D54B8A702bfcC2B3DcF9287e4EFD2A"],
            "contractAddress": "0x05c0930f42b2d3ad0fd817f7bf0e25cf445ca67d",
            "contractName": null,
            "function": "executeAction(uint8,address)",
            "hash": "0x448deb7386fe4e9c10321231deb228f87a0c12c9966955680ed679c27d769e44",
            "isFixedGasLimit": false,
            "transaction": {
                "chainId": "0x14a34",
                "from": "0x5fcfdc65044bf008a6b473512d34102282ee43a6",
                "gas": "0x8f107",
                "input": "0xc4d1f8f10000000000000000000000000000000000000000000000000000000000000002000000000000000000000000784a1d3418d54b8a702bfcc2b3dcf9287e4efd2a",
                "nonce": "0x3a",
                "to": "0x05c0930f42b2d3ad0fd817f7bf0e25cf445ca67d",
                "value": "0x0"
            },
            "transactionType": "CALL"
        },
        {
            "additionalContracts": [],
            "arguments": ["2", "0xE70A2F9552E1184406A58feB642dAFb0B1B2A6b4"],
            "contractAddress": "0x05c0930f42b2d3ad0fd817f7bf0e25cf445ca67d",
            "contractName": null,
            "function": "executeAction(uint8,address)",
            "hash": "0xfd5773d94a1e2da2e72b0272d16d8669a691ab1cdf47f5ceabaa01854a6287ac",
            "isFixedGasLimit": false,
            "transaction": {
                "chainId": "0x14a34",
                "from": "0x5fcfdc65044bf008a6b473512d34102282ee43a6",
                "gas": "0x9f87f",
                "input": "0xc4d1f8f10000000000000000000000000000000000000000000000000000000000000002000000000000000000000000e70a2f9552e1184406a58feb642dafb0b1b2a6b4",
                "nonce": "0x3b",
                "to": "0x05c0930f42b2d3ad0fd817f7bf0e25cf445ca67d",
                "value": "0x0"
            },
            "transactionType": "CALL"
        },
        {
            "additionalContracts": [],
            "arguments": ["2", "0x7651EC63E3B6e41ac3858F61BEAab0DB8925e63D"],
            "contractAddress": "0x05c0930f42b2d3ad0fd817f7bf0e25cf445ca67d",
            "contractName": null,
            "function": "executeAction(uint8,address)",
            "hash": "0xfaae63cb42a6ba26b237b3412459d51df13aa116c534e47ca8f611b1f47068f9",
            "isFixedGasLimit": false,
            "transaction": {
                "chainId": "0x14a34",
                "from": "0x5fcfdc65044bf008a6b473512d34102282ee43a6",
                "gas": "0x82ec4",
                "input": "0xc4d1f8f100000000000000000000000000000000000000000000000000000000000000020000000000000000000000007651ec63e3b6e41ac3858f61beaab0db8925e63d",
                "nonce": "0x3c",
                "to": "0x05c0930f42b2d3ad0fd817f7bf0e25cf445ca67d",
                "value": "0x0"
            },
            "transactionType": "CALL"
        }
    ]
}
