{
    "chain": 84532,
    "commit": "3cccc39",
    "libraries": [],
    "pending": [],
    "receipts": [
        {
            "blockHash": "0x156888a6c061769f5a6f5e8a60f03db34c30b6148e5ea56848d9032570319ad9",
            "blockNumber": "0x11fcb0f",
            "contractAddress": null,
            "cumulativeGasUsed": "0x26eb1b",
            "effectiveGasPrice": "0x669",
            "from": "0x5fcfdc65044bf008a6b473512d34102282ee43a6",
            "gasUsed": "0x1de23",
            "l1BaseFeeScalar": "0x44d",
            "l1BlobBaseFee": "0x1",
            "l1BlobBaseFeeScalar": "0xa118b",
            "l1Fee": "0x2fad2ca73",
            "l1GasPrice": "0x1b1075a5d",
            "l1GasUsed": "0x640",
            "logs": [
                {
                    "address": "0x033fa94f2b2e1a7b1a999305ea24378d6ff47fb7",
                    "blockHash": "0x156888a6c061769f5a6f5e8a60f03db34c30b6148e5ea56848d9032570319ad9",
                    "blockNumber": "0x11fcb0f",
                    "data": "0x",
                    "logIndex": "0x16",
                    "removed": false,
                    "topics": [
                        "0x6560dd86d70bf03c0005b3533cc115fa8b8a12b4ee11c7342ae7b32d82267c90",
                        "0x0000000000000000000000000000000000000000000000000000000000000000",
                        "0x0000000000000000000000006837fa8e3af4c82f5ea7ac6ecbecfe65dae8877f"
                    ],
                    "transactionHash": "0x50a3fee1af3d30a170ea3f908e83d295272f450784426998927a1bad8199c517",
                    "transactionIndex": "0xd"
                }
            ],
            "logsBloom": "0x80000000000000000000000000000000000000000000000800000000000000000000000000000000000000000000000000000000000000000000000000000000000400000000000000000000000000000000000000000000000000000000000000000000020004000000000000000800000000000040000000000000200000000000000000000000000000000000000000000000000000000000000000000000000400000000000000000000000000000000000000000000000000000000000000000000040000000000000000000000000000000000000000000000008020000000000000000000000000000000000000000000000000000000000000000000",
            "status": "0x1",
            "to": "0x033fa94f2b2e1a7b1a999305ea24378d6ff47fb7",
            "transactionHash": "0x50a3fee1af3d30a170ea3f908e83d295272f450784426998927a1bad8199c517",
            "transactionIndex": "0xd",
            "type": "0x2"
        },
        {
            "blockHash": "0x4fe0d3f6f39735abed0aa4e866b357cc9bea1447b6f3a898f8b7b22e6030f7ed",
            "blockNumber": "0x11fcb11",
            "contractAddress": null,
            "cumulativeGasUsed": "0x40bde",
            "effectiveGasPrice": "0x668",
            "from": "0x5fcfdc65044bf008a6b473512d34102282ee43a6",
            "gasUsed": "0x159c7",
            "l1BaseFeeScalar": "0x44d",
            "l1BlobBaseFee": "0x1",
            "l1BlobBaseFeeScalar": "0xa118b",
            "l1Fee": "0x2fad2ca73",
            "l1GasPrice": "0x1b1075a5d",
            "l1GasUsed": "0x640",
            "logs": [
                {
                    "address": "0x033fa94f2b2e1a7b1a999305ea24378d6ff47fb7",
                    "blockHash": "0x4fe0d3f6f39735abed0aa4e866b357cc9bea1447b6f3a898f8b7b22e6030f7ed",
                    "blockNumber": "0x11fcb11",
                    "data": "0x",
                    "logIndex": "0x2",
                    "removed": false,
                    "topics": [
                        "0x6560dd86d70bf03c0005b3533cc115fa8b8a12b4ee11c7342ae7b32d82267c90",
                        "0x0000000000000000000000000000000000000000000000000000000000000000",
                        "0x0000000000000000000000004f21be9436e226150494dc270876d37d42ebe3fe"
                    ],
                    "transactionHash": "0xb0d17bd5e771b094960819bae66d921c4d3e5c795249f85a88fb97f3dba54983",
                    "transactionIndex": "0x3"
                }
            ],
            "logsBloom": "0x80000000000000000000000000000000000000000000000800000000000000000000000000000000000000000000000200000000000000000000000000000000000400000000000000000000000000000000000002000000000000000000000000000000020000000000000000000800000000000040000000000000000000000000000001000000000000000000000000000000000000000000000000000000000400000000000000000000000000000000000000000000000000000000000000000000000000000000000000000000000000000000000000000000008020000000000000000000000000000000000000000000000000000000000000000000",
            "status": "0x1",
            "to": "0x033fa94f2b2e1a7b1a999305ea24378d6ff47fb7",
            "transactionHash": "0xb0d17bd5e771b094960819bae66d921c4d3e5c795249f85a88fb97f3dba54983",
            "transactionIndex": "0x3",
            "type": "0x2"
        },
        {
            "blockHash": "0xe6c3a33874a46368d09bd8585a11590d8f9270b95b2fd6b7187cbe61830d5947",
            "blockNumber": "0x11fcb12",
            "contractAddress": null,
            "cumulativeGasUsed": "0xfc55a",
            "effectiveGasPrice": "0x667",
            "from": "0x5fcfdc65044bf008a6b473512d34102282ee43a6",
            "gasUsed": "0x15985",
            "l1BaseFeeScalar": "0x44d",
            "l1BlobBaseFee": "0x1",
            "l1BlobBaseFeeScalar": "0xa118b",
            "l1Fee": "0x2fad2ca73",
            "l1GasPrice": "0x1b1075a5d",
            "l1GasUsed": "0x640",
            "logs": [
                {
                    "address": "0x033fa94f2b2e1a7b1a999305ea24378d6ff47fb7",
                    "blockHash": "0xe6c3a33874a46368d09bd8585a11590d8f9270b95b2fd6b7187cbe61830d5947",
                    "blockNumber": "0x11fcb12",
                    "data": "0x",
                    "logIndex": "0x19",
                    "removed": false,
                    "topics": [
                        "0x6560dd86d70bf03c0005b3533cc115fa8b8a12b4ee11c7342ae7b32d82267c90",
                        "0x0000000000000000000000000000000000000000000000000000000000000000",
                        "0x00000000000000000000000043b0e09fa31611d945c07f3c02924ebd7ebf51cb"
                    ],
                    "transactionHash": "0x4b03201eee93fd73b86ebe17891e8d5aaf8800ed1b951dd386e6b141f1527b57",
                    "transactionIndex": "0x7"
                }
            ],
            "logsBloom": "0x80000000200000000000000000000000000000000000000800000000000000000000000000000000000000000000000000000000000000000000000000008000000400000000000000100000000000000000000000000000000000000000000000000000020000000000000000000800000000000040000000000000000000000000000000000000000000000000000000000000000000000000000000000000000400000000000000000000000000000000000000000000000000000000000000000000000000000000000000000000000000000000000000000000008020000000000000000000000000000000000000000000000000000000000000000000",
            "status": "0x1",
            "to": "0x033fa94f2b2e1a7b1a999305ea24378d6ff47fb7",
            "transactionHash": "0x4b03201eee93fd73b86ebe17891e8d5aaf8800ed1b951dd386e6b141f1527b57",
            "transactionIndex": "0x7",
            "type": "0x2"
        },
        {
            "blockHash": "0x100009949275395edbd2518d60c606c6295e2f39316f63e8d95bd7955f6ddfa1",
            "blockNumber": "0x11fcb13",
            "contractAddress": null,
            "cumulativeGasUsed": "0x10fb1f",
            "effectiveGasPrice": "0x666",
            "from": "0x5fcfdc65044bf008a6b473512d34102282ee43a6",
            "gasUsed": "0x32aef",
            "l1BaseFeeScalar": "0x44d",
            "l1BlobBaseFee": "0x1",
            "l1BlobBaseFeeScalar": "0xa118b",
            "l1Fee": "0x2fad2ca73",
            "l1GasPrice": "0x1b1075a5d",
            "l1GasUsed": "0x640",
            "logs": [
                {
                    "address": "0x033fa94f2b2e1a7b1a999305ea24378d6ff47fb7",
                    "blockHash": "0x100009949275395edbd2518d60c606c6295e2f39316f63e8d95bd7955f6ddfa1",
                    "blockNumber": "0x11fcb13",
                    "data": "0x656361ff000000000000000000000000000000000000000000000000000000000000000000000000000000000000000000000000000000000000000000000001",
                    "logIndex": "0xc",
                    "removed": false,
                    "topics": [
                        "0xf3cdd20c5574ce87c347ea71e37b8fa7a095894be4b7f2bb1533e8d2342965f1",
                        "0x524f4c4553000000000000000000000000000000000000000000000000000000",
                        "0x000000000000000000000000e35078af106ce3f02d6a1125427eb5a7c900b69e"
                    ],
                    "transactionHash": "0x7217c42aa7281219004ccd1b78b9cdcd43cd8c6d9979d05c7bf308f9148fece1",
                    "transactionIndex": "0x5"
                },
                {
                    "address": "0x033fa94f2b2e1a7b1a999305ea24378d6ff47fb7",
                    "blockHash": "0x100009949275395edbd2518d60c606c6295e2f39316f63e8d95bd7955f6ddfa1",
                    "blockNumber": "0x11fcb13",
                    "data": "0xf6ba0007000000000000000000000000000000000000000000000000000000000000000000000000000000000000000000000000000000000000000000000001",
                    "logIndex": "0xd",
                    "removed": false,
                    "topics": [
                        "0xf3cdd20c5574ce87c347ea71e37b8fa7a095894be4b7f2bb1533e8d2342965f1",
                        "0x524f4c4553000000000000000000000000000000000000000000000000000000",
                        "0x000000000000000000000000e35078af106ce3f02d6a1125427eb5a7c900b69e"
                    ],
                    "transactionHash": "0x7217c42aa7281219004ccd1b78b9cdcd43cd8c6d9979d05c7bf308f9148fece1",
                    "transactionIndex": "0x5"
                },
                {
                    "address": "0x033fa94f2b2e1a7b1a999305ea24378d6ff47fb7",
                    "blockHash": "0x100009949275395edbd2518d60c606c6295e2f39316f63e8d95bd7955f6ddfa1",
                    "blockNumber": "0x11fcb13",
                    "data": "0x",
                    "logIndex": "0xe",
                    "removed": false,
                    "topics": [
                        "0x6560dd86d70bf03c0005b3533cc115fa8b8a12b4ee11c7342ae7b32d82267c90",
                        "0x0000000000000000000000000000000000000000000000000000000000000002",
                        "0x000000000000000000000000e35078af106ce3f02d6a1125427eb5a7c900b69e"
                    ],
                    "transactionHash": "0x7217c42aa7281219004ccd1b78b9cdcd43cd8c6d9979d05c7bf308f9148fece1",
                    "transactionIndex": "0x5"
                }
            ],
            "logsBloom": "0x84000000000000000000000000000000000000000000000810000000000000000000040000000000000000000000000000000000000000000000000000000000000400000000000000000000000000000020000000000000000000000000000000000000000000000000000000000000000000000040000000000000000000002000000000000000000000000080000000000000000000000000000100000000000400000000000000000100000000000000000000000000000000000000100000000000000000000000000000000000000000000000000000000000008000040000000000001000000000000000000000000000008000000000000000000000",
            "status": "0x1",
            "to": "0x033fa94f2b2e1a7b1a999305ea24378d6ff47fb7",
            "transactionHash": "0x7217c42aa7281219004ccd1b78b9cdcd43cd8c6d9979d05c7bf308f9148fece1",
            "transactionIndex": "0x5",
            "type": "0x2"
        },
        {
            "blockHash": "0x1b4af02ca9c11d2898de0a8d724ac2320b544c4f107c2f69aeb36fc2a3f6be3b",
            "blockNumber": "0x11fcb15",
            "contractAddress": null,
            "cumulativeGasUsed": "0x15df9c",
            "effectiveGasPrice": "0x665",
            "from": "0x5fcfdc65044bf008a6b473512d34102282ee43a6",
            "gasUsed": "0x6073e",
            "l1BaseFeeScalar": "0x44d",
            "l1BlobBaseFee": "0x1",
            "l1BlobBaseFeeScalar": "0xa118b",
            "l1Fee": "0x2e38b9e8d",
            "l1GasPrice": "0x1a3d0890f",
            "l1GasUsed": "0x640",
            "logs": [
                {
                    "address": "0x033fa94f2b2e1a7b1a999305ea24378d6ff47fb7",
                    "blockHash": "0x1b4af02ca9c11d2898de0a8d724ac2320b544c4f107c2f69aeb36fc2a3f6be3b",
                    "blockNumber": "0x11fcb15",
                    "data": "0x2f42aef5000000000000000000000000000000000000000000000000000000000000000000000000000000000000000000000000000000000000000000000001",
                    "logIndex": "0x13",
                    "removed": false,
                    "topics": [
                        "0xf3cdd20c5574ce87c347ea71e37b8fa7a095894be4b7f2bb1533e8d2342965f1",
                        "0x5452535259000000000000000000000000000000000000000000000000000000",
                        "0x00000000000000000000000030b3fc61f808a165b5d36f21e96eaf0562b40cf6"
                    ],
                    "transactionHash": "0xdd7150987c98db7ac618358291badc40db4a9f8bcf0ff11ac348bbd893acb4a6",
                    "transactionIndex": "0x8"
                },
                {
                    "address": "0x033fa94f2b2e1a7b1a999305ea24378d6ff47fb7",
                    "blockHash": "0x1b4af02ca9c11d2898de0a8d724ac2320b544c4f107c2f69aeb36fc2a3f6be3b",
                    "blockNumber": "0x11fcb15",
                    "data": "0xe6eb207a000000000000000000000000000000000000000000000000000000000000000000000000000000000000000000000000000000000000000000000001",
                    "logIndex": "0x14",
                    "removed": false,
                    "topics": [
                        "0xf3cdd20c5574ce87c347ea71e37b8fa7a095894be4b7f2bb1533e8d2342965f1",
                        "0x5452535259000000000000000000000000000000000000000000000000000000",
                        "0x00000000000000000000000030b3fc61f808a165b5d36f21e96eaf0562b40cf6"
                    ],
                    "transactionHash": "0xdd7150987c98db7ac618358291badc40db4a9f8bcf0ff11ac348bbd893acb4a6",
                    "transactionIndex": "0x8"
                },
                {
                    "address": "0x033fa94f2b2e1a7b1a999305ea24378d6ff47fb7",
                    "blockHash": "0x1b4af02ca9c11d2898de0a8d724ac2320b544c4f107c2f69aeb36fc2a3f6be3b",
                    "blockNumber": "0x11fcb15",
                    "data": "0x8b7f3fb9000000000000000000000000000000000000000000000000000000000000000000000000000000000000000000000000000000000000000000000001",
                    "logIndex": "0x15",
                    "removed": false,
                    "topics": [
                        "0xf3cdd20c5574ce87c347ea71e37b8fa7a095894be4b7f2bb1533e8d2342965f1",
                        "0x5452535259000000000000000000000000000000000000000000000000000000",
                        "0x00000000000000000000000030b3fc61f808a165b5d36f21e96eaf0562b40cf6"
                    ],
                    "transactionHash": "0xdd7150987c98db7ac618358291badc40db4a9f8bcf0ff11ac348bbd893acb4a6",
                    "transactionIndex": "0x8"
                },
                {
                    "address": "0x033fa94f2b2e1a7b1a999305ea24378d6ff47fb7",
                    "blockHash": "0x1b4af02ca9c11d2898de0a8d724ac2320b544c4f107c2f69aeb36fc2a3f6be3b",
                    "blockNumber": "0x11fcb15",
                    "data": "0x01a91e5c000000000000000000000000000000000000000000000000000000000000000000000000000000000000000000000000000000000000000000000001",
                    "logIndex": "0x16",
                    "removed": false,
                    "topics": [
                        "0xf3cdd20c5574ce87c347ea71e37b8fa7a095894be4b7f2bb1533e8d2342965f1",
                        "0x5452535259000000000000000000000000000000000000000000000000000000",
                        "0x00000000000000000000000030b3fc61f808a165b5d36f21e96eaf0562b40cf6"
                    ],
                    "transactionHash": "0xdd7150987c98db7ac618358291badc40db4a9f8bcf0ff11ac348bbd893acb4a6",
                    "transactionIndex": "0x8"
                },
                {
                    "address": "0x033fa94f2b2e1a7b1a999305ea24378d6ff47fb7",
                    "blockHash": "0x1b4af02ca9c11d2898de0a8d724ac2320b544c4f107c2f69aeb36fc2a3f6be3b",
                    "blockNumber": "0x11fcb15",
                    "data": "0xfb393f24000000000000000000000000000000000000000000000000000000000000000000000000000000000000000000000000000000000000000000000001",
                    "logIndex": "0x17",
                    "removed": false,
                    "topics": [
                        "0xf3cdd20c5574ce87c347ea71e37b8fa7a095894be4b7f2bb1533e8d2342965f1",
                        "0x5452535259000000000000000000000000000000000000000000000000000000",
                        "0x00000000000000000000000030b3fc61f808a165b5d36f21e96eaf0562b40cf6"
                    ],
                    "transactionHash": "0xdd7150987c98db7ac618358291badc40db4a9f8bcf0ff11ac348bbd893acb4a6",
                    "transactionIndex": "0x8"
                },
                {
                    "address": "0x033fa94f2b2e1a7b1a999305ea24378d6ff47fb7",
                    "blockHash": "0x1b4af02ca9c11d2898de0a8d724ac2320b544c4f107c2f69aeb36fc2a3f6be3b",
                    "blockNumber": "0x11fcb15",
                    "data": "0x4aae164b000000000000000000000000000000000000000000000000000000000000000000000000000000000000000000000000000000000000000000000001",
                    "logIndex": "0x18",
                    "removed": false,
                    "topics": [
                        "0xf3cdd20c5574ce87c347ea71e37b8fa7a095894be4b7f2bb1533e8d2342965f1",
                        "0x5452535259000000000000000000000000000000000000000000000000000000",
                        "0x00000000000000000000000030b3fc61f808a165b5d36f21e96eaf0562b40cf6"
                    ],
                    "transactionHash": "0xdd7150987c98db7ac618358291badc40db4a9f8bcf0ff11ac348bbd893acb4a6",
                    "transactionIndex": "0x8"
                },
                {
                    "address": "0x033fa94f2b2e1a7b1a999305ea24378d6ff47fb7",
                    "blockHash": "0x1b4af02ca9c11d2898de0a8d724ac2320b544c4f107c2f69aeb36fc2a3f6be3b",
                    "blockNumber": "0x11fcb15",
                    "data": "0x",
                    "logIndex": "0x19",
                    "removed": false,
                    "topics": [
                        "0x6560dd86d70bf03c0005b3533cc115fa8b8a12b4ee11c7342ae7b32d82267c90",
                        "0x0000000000000000000000000000000000000000000000000000000000000002",
                        "0x00000000000000000000000030b3fc61f808a165b5d36f21e96eaf0562b40cf6"
                    ],
                    "transactionHash": "0xdd7150987c98db7ac618358291badc40db4a9f8bcf0ff11ac348bbd893acb4a6",
                    "transactionIndex": "0x8"
                }
            ],
            "logsBloom": "0x84000000000000000000000000000000000000000000000800000000000000000000000000000000000000002000000000000000000000000000000800000000000400000000000000000000000000000020000000001000000000000000000000000000000000000000000000000000000000000040000000000000000000000000000000000000000000000000000000200040000000000000000000000000000400000000000000000100000000000000000000000000000000000000000000000000000000000000000000000000000000000000000000000000008000040000000000001000000000000000000000000000008000000000000010000000",
            "status": "0x1",
            "to": "0x033fa94f2b2e1a7b1a999305ea24378d6ff47fb7",
            "transactionHash": "0xdd7150987c98db7ac618358291badc40db4a9f8bcf0ff11ac348bbd893acb4a6",
            "transactionIndex": "0x8",
            "type": "0x2"
        },
        {
            "blockHash": "0x24690f708184dfebf2434f1787efdede8dca0df3dc585560468858f4ebae17f5",
            "blockNumber": "0x11fcb16",
            "contractAddress": null,
            "cumulativeGasUsed": "0x1613f6",
            "effectiveGasPrice": "0x665",
            "from": "0x5fcfdc65044bf008a6b473512d34102282ee43a6",
            "gasUsed": "0x67938",
            "l1BaseFeeScalar": "0x44d",
            "l1BlobBaseFee": "0x1",
            "l1BlobBaseFeeScalar": "0xa118b",
            "l1Fee": "0x2e38b9e8d",
            "l1GasPrice": "0x1a3d0890f",
            "l1GasUsed": "0x640",
            "logs": [
                {
                    "address": "0x033fa94f2b2e1a7b1a999305ea24378d6ff47fb7",
                    "blockHash": "0x24690f708184dfebf2434f1787efdede8dca0df3dc585560468858f4ebae17f5",
                    "blockNumber": "0x11fcb16",
                    "data": "0x51b42b00000000000000000000000000000000000000000000000000000000000000000000000000000000000000000000000000000000000000000000000001",
                    "logIndex": "0x17",
                    "removed": false,
                    "topics": [
                        "0xf3cdd20c5574ce87c347ea71e37b8fa7a095894be4b7f2bb1533e8d2342965f1",
                        "0x5452535259000000000000000000000000000000000000000000000000000000",
                        "0x000000000000000000000000dcd0e02fc7ba236454f0135247c409280c5544be"
                    ],
                    "transactionHash": "0x8dbc17cd6bedb2e5797ba885ca46561d6358bb18ae1cf6a67523502ae1c6892b",
                    "transactionIndex": "0x9"
                },
                {
                    "address": "0x033fa94f2b2e1a7b1a999305ea24378d6ff47fb7",
                    "blockHash": "0x24690f708184dfebf2434f1787efdede8dca0df3dc585560468858f4ebae17f5",
                    "blockNumber": "0x11fcb16",
                    "data": "0x0f15f4c0000000000000000000000000000000000000000000000000000000000000000000000000000000000000000000000000000000000000000000000001",
                    "logIndex": "0x18",
                    "removed": false,
                    "topics": [
                        "0xf3cdd20c5574ce87c347ea71e37b8fa7a095894be4b7f2bb1533e8d2342965f1",
                        "0x5452535259000000000000000000000000000000000000000000000000000000",
                        "0x000000000000000000000000dcd0e02fc7ba236454f0135247c409280c5544be"
                    ],
                    "transactionHash": "0x8dbc17cd6bedb2e5797ba885ca46561d6358bb18ae1cf6a67523502ae1c6892b",
                    "transactionIndex": "0x9"
                },
                {
                    "address": "0x033fa94f2b2e1a7b1a999305ea24378d6ff47fb7",
                    "blockHash": "0x24690f708184dfebf2434f1787efdede8dca0df3dc585560468858f4ebae17f5",
                    "blockNumber": "0x11fcb16",
                    "data": "0x51b42b00000000000000000000000000000000000000000000000000000000000000000000000000000000000000000000000000000000000000000000000001",
                    "logIndex": "0x19",
                    "removed": false,
                    "topics": [
                        "0xf3cdd20c5574ce87c347ea71e37b8fa7a095894be4b7f2bb1533e8d2342965f1",
                        "0x544f4b454e000000000000000000000000000000000000000000000000000000",
                        "0x000000000000000000000000dcd0e02fc7ba236454f0135247c409280c5544be"
                    ],
                    "transactionHash": "0x8dbc17cd6bedb2e5797ba885ca46561d6358bb18ae1cf6a67523502ae1c6892b",
                    "transactionIndex": "0x9"
                },
                {
                    "address": "0x033fa94f2b2e1a7b1a999305ea24378d6ff47fb7",
                    "blockHash": "0x24690f708184dfebf2434f1787efdede8dca0df3dc585560468858f4ebae17f5",
                    "blockNumber": "0x11fcb16",
                    "data": "0x0f15f4c0000000000000000000000000000000000000000000000000000000000000000000000000000000000000000000000000000000000000000000000001",
                    "logIndex": "0x1a",
                    "removed": false,
                    "topics": [
                        "0xf3cdd20c5574ce87c347ea71e37b8fa7a095894be4b7f2bb1533e8d2342965f1",
                        "0x544f4b454e000000000000000000000000000000000000000000000000000000",
                        "0x000000000000000000000000dcd0e02fc7ba236454f0135247c409280c5544be"
                    ],
                    "transactionHash": "0x8dbc17cd6bedb2e5797ba885ca46561d6358bb18ae1cf6a67523502ae1c6892b",
                    "transactionIndex": "0x9"
                },
                {
                    "address": "0x033fa94f2b2e1a7b1a999305ea24378d6ff47fb7",
                    "blockHash": "0x24690f708184dfebf2434f1787efdede8dca0df3dc585560468858f4ebae17f5",
                    "blockNumber": "0x11fcb16",
                    "data": "0x",
                    "logIndex": "0x1b",
                    "removed": false,
                    "topics": [
                        "0x6560dd86d70bf03c0005b3533cc115fa8b8a12b4ee11c7342ae7b32d82267c90",
                        "0x0000000000000000000000000000000000000000000000000000000000000002",
                        "0x000000000000000000000000dcd0e02fc7ba236454f0135247c409280c5544be"
                    ],
                    "transactionHash": "0x8dbc17cd6bedb2e5797ba885ca46561d6358bb18ae1cf6a67523502ae1c6892b",
                    "transactionIndex": "0x9"
                }
            ],
            "logsBloom": "0x84000000000000000000000000000000000000000000000800000000000000000000000000000000000000000000000000002000000000000000000000000000000400000000000000000000000000000020000000001000000040000000000000000000000000000000000000000000000000000040000000000000000000000000000000000000000000000000000000200000000000000000000000000000000400000000000000000100000000000000000004000000000000000020000000000000000000000000000000400000000000000000000000000000008000040000000000001000000000000000000000800000008000000000000010000000",
            "status": "0x1",
            "to": "0x033fa94f2b2e1a7b1a999305ea24378d6ff47fb7",
            "transactionHash": "0x8dbc17cd6bedb2e5797ba885ca46561d6358bb18ae1cf6a67523502ae1c6892b",
            "transactionIndex": "0x9",
            "type": "0x2"
        },
        {
            "blockHash": "0xbf6993f7e5946890628cdff41c706d0378098c7b9c3828d64d501d9cd295b408",
            "blockNumber": "0x11fcb18",
            "contractAddress": null,
            "cumulativeGasUsed": "0xbe594",
            "effectiveGasPrice": "0x665",
            "from": "0x5fcfdc65044bf008a6b473512d34102282ee43a6",
            "gasUsed": "0x737f7",
            "l1BaseFeeScalar": "0x44d",
            "l1BlobBaseFee": "0x1",
            "l1BlobBaseFeeScalar": "0xa118b",
            "l1Fee": "0x2e38b9e8d",
            "l1GasPrice": "0x1a3d0890f",
            "l1GasUsed": "0x640",
            "logs": [
                {
                    "address": "0x033fa94f2b2e1a7b1a999305ea24378d6ff47fb7",
                    "blockHash": "0xbf6993f7e5946890628cdff41c706d0378098c7b9c3828d64d501d9cd295b408",
                    "blockNumber": "0x11fcb18",
                    "data": "0x2f42aef5000000000000000000000000000000000000000000000000000000000000000000000000000000000000000000000000000000000000000000000001",
                    "logIndex": "0x4",
                    "removed": false,
                    "topics": [
                        "0xf3cdd20c5574ce87c347ea71e37b8fa7a095894be4b7f2bb1533e8d2342965f1",
                        "0x5452535259000000000000000000000000000000000000000000000000000000",
                        "0x000000000000000000000000e7c25606dfd883e1a1d1ab88c7678f4f9123fa4e"
                    ],
                    "transactionHash": "0x3115cb0fcbcad06119a1f128dd6dd6682b3c38e929018ba1c6b0233fd93d1d37",
                    "transactionIndex": "0x5"
                },
                {
                    "address": "0x033fa94f2b2e1a7b1a999305ea24378d6ff47fb7",
                    "blockHash": "0xbf6993f7e5946890628cdff41c706d0378098c7b9c3828d64d501d9cd295b408",
                    "blockNumber": "0x11fcb18",
                    "data": "0xe6eb207a000000000000000000000000000000000000000000000000000000000000000000000000000000000000000000000000000000000000000000000001",
                    "logIndex": "0x5",
                    "removed": false,
                    "topics": [
                        "0xf3cdd20c5574ce87c347ea71e37b8fa7a095894be4b7f2bb1533e8d2342965f1",
                        "0x5452535259000000000000000000000000000000000000000000000000000000",
                        "0x000000000000000000000000e7c25606dfd883e1a1d1ab88c7678f4f9123fa4e"
                    ],
                    "transactionHash": "0x3115cb0fcbcad06119a1f128dd6dd6682b3c38e929018ba1c6b0233fd93d1d37",
                    "transactionIndex": "0x5"
                },
                {
                    "address": "0x033fa94f2b2e1a7b1a999305ea24378d6ff47fb7",
                    "blockHash": "0xbf6993f7e5946890628cdff41c706d0378098c7b9c3828d64d501d9cd295b408",
                    "blockNumber": "0x11fcb18",
                    "data": "0x8b7f3fb9000000000000000000000000000000000000000000000000000000000000000000000000000000000000000000000000000000000000000000000001",
                    "logIndex": "0x6",
                    "removed": false,
                    "topics": [
                        "0xf3cdd20c5574ce87c347ea71e37b8fa7a095894be4b7f2bb1533e8d2342965f1",
                        "0x5452535259000000000000000000000000000000000000000000000000000000",
                        "0x000000000000000000000000e7c25606dfd883e1a1d1ab88c7678f4f9123fa4e"
                    ],
                    "transactionHash": "0x3115cb0fcbcad06119a1f128dd6dd6682b3c38e929018ba1c6b0233fd93d1d37",
                    "transactionIndex": "0x5"
                },
                {
                    "address": "0x033fa94f2b2e1a7b1a999305ea24378d6ff47fb7",
                    "blockHash": "0xbf6993f7e5946890628cdff41c706d0378098c7b9c3828d64d501d9cd295b408",
                    "blockNumber": "0x11fcb18",
                    "data": "0x40c10f19000000000000000000000000000000000000000000000000000000000000000000000000000000000000000000000000000000000000000000000001",
                    "logIndex": "0x7",
                    "removed": false,
                    "topics": [
                        "0xf3cdd20c5574ce87c347ea71e37b8fa7a095894be4b7f2bb1533e8d2342965f1",
                        "0x544f4b454e000000000000000000000000000000000000000000000000000000",
                        "0x000000000000000000000000e7c25606dfd883e1a1d1ab88c7678f4f9123fa4e"
                    ],
                    "transactionHash": "0x3115cb0fcbcad06119a1f128dd6dd6682b3c38e929018ba1c6b0233fd93d1d37",
                    "transactionIndex": "0x5"
                },
                {
                    "address": "0x033fa94f2b2e1a7b1a999305ea24378d6ff47fb7",
                    "blockHash": "0xbf6993f7e5946890628cdff41c706d0378098c7b9c3828d64d501d9cd295b408",
                    "blockNumber": "0x11fcb18",
                    "data": "0x359fe780000000000000000000000000000000000000000000000000000000000000000000000000000000000000000000000000000000000000000000000001",
                    "logIndex": "0x8",
                    "removed": false,
                    "topics": [
                        "0xf3cdd20c5574ce87c347ea71e37b8fa7a095894be4b7f2bb1533e8d2342965f1",
                        "0x544f4b454e000000000000000000000000000000000000000000000000000000",
                        "0x000000000000000000000000e7c25606dfd883e1a1d1ab88c7678f4f9123fa4e"
                    ],
                    "transactionHash": "0x3115cb0fcbcad06119a1f128dd6dd6682b3c38e929018ba1c6b0233fd93d1d37",
                    "transactionIndex": "0x5"
                },
                {
                    "address": "0x033fa94f2b2e1a7b1a999305ea24378d6ff47fb7",
                    "blockHash": "0xbf6993f7e5946890628cdff41c706d0378098c7b9c3828d64d501d9cd295b408",
                    "blockNumber": "0x11fcb18",
                    "data": "0x1b0a68f2000000000000000000000000000000000000000000000000000000000000000000000000000000000000000000000000000000000000000000000001",
                    "logIndex": "0x9",
                    "removed": false,
                    "topics": [
                        "0xf3cdd20c5574ce87c347ea71e37b8fa7a095894be4b7f2bb1533e8d2342965f1",
                        "0x544f4b454e000000000000000000000000000000000000000000000000000000",
                        "0x000000000000000000000000e7c25606dfd883e1a1d1ab88c7678f4f9123fa4e"
                    ],
                    "transactionHash": "0x3115cb0fcbcad06119a1f128dd6dd6682b3c38e929018ba1c6b0233fd93d1d37",
                    "transactionIndex": "0x5"
                },
                {
                    "address": "0x033fa94f2b2e1a7b1a999305ea24378d6ff47fb7",
                    "blockHash": "0xbf6993f7e5946890628cdff41c706d0378098c7b9c3828d64d501d9cd295b408",
                    "blockNumber": "0x11fcb18",
                    "data": "0x",
                    "logIndex": "0xa",
                    "removed": false,
                    "topics": [
                        "0x6560dd86d70bf03c0005b3533cc115fa8b8a12b4ee11c7342ae7b32d82267c90",
                        "0x0000000000000000000000000000000000000000000000000000000000000002",
                        "0x000000000000000000000000e7c25606dfd883e1a1d1ab88c7678f4f9123fa4e"
                    ],
                    "transactionHash": "0x3115cb0fcbcad06119a1f128dd6dd6682b3c38e929018ba1c6b0233fd93d1d37",
                    "transactionIndex": "0x5"
                }
            ],
            "logsBloom": "0x84000000000000000000000000000000000000000000000800000000000000000000000000000000000000000000000000000000000000000000000000000000000400000000000000000000000000000020000000001000000040000000000000000000000000000000000000800000000000000040000000000000000000040000000000000000000000000000000000200000000000000000000000000000000400000000000000000100000000000000000000000000000000000020000000000000000000000000000000400000000000000000000000000000008000040000000000001000000000000000002000000000008000000000000010000000",
            "status": "0x1",
            "to": "0x033fa94f2b2e1a7b1a999305ea24378d6ff47fb7",
            "transactionHash": "0x3115cb0fcbcad06119a1f128dd6dd6682b3c38e929018ba1c6b0233fd93d1d37",
            "transactionIndex": "0x5",
            "type": "0x2"
        },
        {
            "blockHash": "0xaace63f225b07cb962476d76beccefd52f3aa183fb08f9819595590cd2e38604",
            "blockNumber": "0x11fcb1a",
            "contractAddress": null,
            "cumulativeGasUsed": "0x136566",
            "effectiveGasPrice": "0x665",
            "from": "0x5fcfdc65044bf008a6b473512d34102282ee43a6",
            "gasUsed": "0x59846",
            "l1BaseFeeScalar": "0x44d",
            "l1BlobBaseFee": "0x1",
            "l1BlobBaseFeeScalar": "0xa118b",
            "l1Fee": "0x2e206b998",
            "l1GasPrice": "0x1a2f3c5fc",
            "l1GasUsed": "0x640",
            "logs": [
                {
                    "address": "0x033fa94f2b2e1a7b1a999305ea24378d6ff47fb7",
                    "blockHash": "0xaace63f225b07cb962476d76beccefd52f3aa183fb08f9819595590cd2e38604",
                    "blockNumber": "0x11fcb1a",
                    "data": "0x40c10f19000000000000000000000000000000000000000000000000000000000000000000000000000000000000000000000000000000000000000000000001",
                    "logIndex": "0xf",
                    "removed": false,
                    "topics": [
                        "0xf3cdd20c5574ce87c347ea71e37b8fa7a095894be4b7f2bb1533e8d2342965f1",
                        "0x544f4b454e000000000000000000000000000000000000000000000000000000",
                        "0x000000000000000000000000ca8c1163dc6aa7ee376f00cc77f1cbe01adffc92"
                    ],
                    "transactionHash": "0x6d4a92844a1a44a99886d8f6906c2ef9e9fbd99040306acd80cde83caeb520d5",
                    "transactionIndex": "0x7"
                },
                {
                    "address": "0x033fa94f2b2e1a7b1a999305ea24378d6ff47fb7",
                    "blockHash": "0xaace63f225b07cb962476d76beccefd52f3aa183fb08f9819595590cd2e38604",
                    "blockNumber": "0x11fcb1a",
                    "data": "0x359fe780000000000000000000000000000000000000000000000000000000000000000000000000000000000000000000000000000000000000000000000001",
                    "logIndex": "0x10",
                    "removed": false,
                    "topics": [
                        "0xf3cdd20c5574ce87c347ea71e37b8fa7a095894be4b7f2bb1533e8d2342965f1",
                        "0x544f4b454e000000000000000000000000000000000000000000000000000000",
                        "0x000000000000000000000000ca8c1163dc6aa7ee376f00cc77f1cbe01adffc92"
                    ],
                    "transactionHash": "0x6d4a92844a1a44a99886d8f6906c2ef9e9fbd99040306acd80cde83caeb520d5",
                    "transactionIndex": "0x7"
                },
                {
                    "address": "0x033fa94f2b2e1a7b1a999305ea24378d6ff47fb7",
                    "blockHash": "0xaace63f225b07cb962476d76beccefd52f3aa183fb08f9819595590cd2e38604",
                    "blockNumber": "0x11fcb1a",
                    "data": "0x",
                    "logIndex": "0x11",
                    "removed": false,
                    "topics": [
                        "0x6560dd86d70bf03c0005b3533cc115fa8b8a12b4ee11c7342ae7b32d82267c90",
                        "0x0000000000000000000000000000000000000000000000000000000000000002",
                        "0x000000000000000000000000ca8c1163dc6aa7ee376f00cc77f1cbe01adffc92"
                    ],
                    "transactionHash": "0x6d4a92844a1a44a99886d8f6906c2ef9e9fbd99040306acd80cde83caeb520d5",
                    "transactionIndex": "0x7"
                }
            ],
            "logsBloom": "0x84000000000000000000000000000000000000000000000800000000010000000000000000000000000000000000000000000000000000000000000000000000000400000000000000000000000000000020000000000000000040000000000000000000000000000000000000000000010000000040000000000000000000000000000000000000000000000000000000000000000000000000000000000000000400000000000000000100000000000000000000000000000000000020000000000000000000000100000000400000000000000000000000000000008000040000000000001000000000000000000000000000008000000000000000000000",
            "status": "0x1",
            "to": "0x033fa94f2b2e1a7b1a999305ea24378d6ff47fb7",
            "transactionHash": "0x6d4a92844a1a44a99886d8f6906c2ef9e9fbd99040306acd80cde83caeb520d5",
            "transactionIndex": "0x7",
            "type": "0x2"
        }
    ],
    "returns": {},
    "timestamp": 1733489940,
    "transactions": [
        {
            "additionalContracts": [],
            "arguments": ["0", "0x6837fa8E3aF4C82f5EA7ac6ecBEcFE65dae8877f"],
            "contractAddress": "0x033fa94f2b2e1a7b1a999305ea24378d6ff47fb7",
            "contractName": null,
            "function": "executeAction(uint8,address)",
            "hash": "0x50a3fee1af3d30a170ea3f908e83d295272f450784426998927a1bad8199c517",
            "isFixedGasLimit": false,
            "transaction": {
                "chainId": "0x14a34",
                "from": "0x5fcfdc65044bf008a6b473512d34102282ee43a6",
                "gas": "0x2bb45",
                "input": "0xc4d1f8f100000000000000000000000000000000000000000000000000000000000000000000000000000000000000006837fa8e3af4c82f5ea7ac6ecbecfe65dae8877f",
                "nonce": "0x10",
                "to": "0x033fa94f2b2e1a7b1a999305ea24378d6ff47fb7",
                "value": "0x0"
            },
            "transactionType": "CALL"
        },
        {
            "additionalContracts": [],
            "arguments": ["0", "0x4f21bE9436E226150494dc270876d37d42EBe3FE"],
            "contractAddress": "0x033fa94f2b2e1a7b1a999305ea24378d6ff47fb7",
            "contractName": null,
            "function": "executeAction(uint8,address)",
            "hash": "0xb0d17bd5e771b094960819bae66d921c4d3e5c795249f85a88fb97f3dba54983",
            "isFixedGasLimit": false,
            "transaction": {
                "chainId": "0x14a34",
                "from": "0x5fcfdc65044bf008a6b473512d34102282ee43a6",
                "gas": "0x1dd9a",
                "input": "0xc4d1f8f100000000000000000000000000000000000000000000000000000000000000000000000000000000000000004f21be9436e226150494dc270876d37d42ebe3fe",
                "nonce": "0x11",
                "to": "0x033fa94f2b2e1a7b1a999305ea24378d6ff47fb7",
                "value": "0x0"
            },
            "transactionType": "CALL"
        },
        {
            "additionalContracts": [],
            "arguments": ["0", "0x43b0e09fA31611D945c07f3c02924ebd7EBf51Cb"],
            "contractAddress": "0x033fa94f2b2e1a7b1a999305ea24378d6ff47fb7",
            "contractName": null,
            "function": "executeAction(uint8,address)",
            "hash": "0x4b03201eee93fd73b86ebe17891e8d5aaf8800ed1b951dd386e6b141f1527b57",
            "isFixedGasLimit": false,
            "transaction": {
                "chainId": "0x14a34",
                "from": "0x5fcfdc65044bf008a6b473512d34102282ee43a6",
                "gas": "0x1dd3f",
                "input": "0xc4d1f8f1000000000000000000000000000000000000000000000000000000000000000000000000000000000000000043b0e09fa31611d945c07f3c02924ebd7ebf51cb",
                "nonce": "0x12",
                "to": "0x033fa94f2b2e1a7b1a999305ea24378d6ff47fb7",
                "value": "0x0"
            },
            "transactionType": "CALL"
        },
        {
            "additionalContracts": [],
            "arguments": ["2", "0xE35078af106Ce3F02d6a1125427eb5a7C900b69e"],
            "contractAddress": "0x033fa94f2b2e1a7b1a999305ea24378d6ff47fb7",
            "contractName": null,
            "function": "executeAction(uint8,address)",
            "hash": "0x7217c42aa7281219004ccd1b78b9cdcd43cd8c6d9979d05c7bf308f9148fece1",
            "isFixedGasLimit": false,
            "transaction": {
                "chainId": "0x14a34",
                "from": "0x5fcfdc65044bf008a6b473512d34102282ee43a6",
                "gas": "0x46018",
                "input": "0xc4d1f8f10000000000000000000000000000000000000000000000000000000000000002000000000000000000000000e35078af106ce3f02d6a1125427eb5a7c900b69e",
                "nonce": "0x13",
                "to": "0x033fa94f2b2e1a7b1a999305ea24378d6ff47fb7",
                "value": "0x0"
            },
            "transactionType": "CALL"
        },
        {
            "additionalContracts": [],
            "arguments": ["2", "0x30b3FC61F808a165b5d36f21E96EAf0562B40CF6"],
            "contractAddress": "0x033fa94f2b2e1a7b1a999305ea24378d6ff47fb7",
            "contractName": null,
            "function": "executeAction(uint8,address)",
            "hash": "0xdd7150987c98db7ac618358291badc40db4a9f8bcf0ff11ac348bbd893acb4a6",
            "isFixedGasLimit": false,
            "transaction": {
                "chainId": "0x14a34",
                "from": "0x5fcfdc65044bf008a6b473512d34102282ee43a6",
                "gas": "0x85399",
                "input": "0xc4d1f8f1000000000000000000000000000000000000000000000000000000000000000200000000000000000000000030b3fc61f808a165b5d36f21e96eaf0562b40cf6",
                "nonce": "0x14",
                "to": "0x033fa94f2b2e1a7b1a999305ea24378d6ff47fb7",
                "value": "0x0"
            },
            "transactionType": "CALL"
        },
        {
            "additionalContracts": [],
            "arguments": ["2", "0xDcd0e02fc7BA236454f0135247C409280C5544Be"],
            "contractAddress": "0x033fa94f2b2e1a7b1a999305ea24378d6ff47fb7",
            "contractName": null,
            "function": "executeAction(uint8,address)",
            "hash": "0x8dbc17cd6bedb2e5797ba885ca46561d6358bb18ae1cf6a67523502ae1c6892b",
            "isFixedGasLimit": false,
            "transaction": {
                "chainId": "0x14a34",
                "from": "0x5fcfdc65044bf008a6b473512d34102282ee43a6",
                "gas": "0x8f107",
                "input": "0xc4d1f8f10000000000000000000000000000000000000000000000000000000000000002000000000000000000000000dcd0e02fc7ba236454f0135247c409280c5544be",
                "nonce": "0x15",
                "to": "0x033fa94f2b2e1a7b1a999305ea24378d6ff47fb7",
                "value": "0x0"
            },
            "transactionType": "CALL"
        },
        {
            "additionalContracts": [],
            "arguments": ["2", "0xE7C25606Dfd883e1A1D1aB88c7678f4f9123fA4e"],
            "contractAddress": "0x033fa94f2b2e1a7b1a999305ea24378d6ff47fb7",
            "contractName": null,
            "function": "executeAction(uint8,address)",
            "hash": "0x3115cb0fcbcad06119a1f128dd6dd6682b3c38e929018ba1c6b0233fd93d1d37",
            "isFixedGasLimit": false,
            "transaction": {
                "chainId": "0x14a34",
                "from": "0x5fcfdc65044bf008a6b473512d34102282ee43a6",
                "gas": "0x9f87f",
                "input": "0xc4d1f8f10000000000000000000000000000000000000000000000000000000000000002000000000000000000000000e7c25606dfd883e1a1d1ab88c7678f4f9123fa4e",
                "nonce": "0x16",
                "to": "0x033fa94f2b2e1a7b1a999305ea24378d6ff47fb7",
                "value": "0x0"
            },
            "transactionType": "CALL"
        },
        {
            "additionalContracts": [],
            "arguments": ["2", "0xCA8C1163dC6aA7Ee376F00Cc77f1cbE01adfFC92"],
            "contractAddress": "0x033fa94f2b2e1a7b1a999305ea24378d6ff47fb7",
            "contractName": null,
            "function": "executeAction(uint8,address)",
            "hash": "0x6d4a92844a1a44a99886d8f6906c2ef9e9fbd99040306acd80cde83caeb520d5",
            "isFixedGasLimit": false,
            "transaction": {
                "chainId": "0x14a34",
                "from": "0x5fcfdc65044bf008a6b473512d34102282ee43a6",
                "gas": "0x7ba53",
                "input": "0xc4d1f8f10000000000000000000000000000000000000000000000000000000000000002000000000000000000000000ca8c1163dc6aa7ee376f00cc77f1cbe01adffc92",
                "nonce": "0x17",
                "to": "0x033fa94f2b2e1a7b1a999305ea24378d6ff47fb7",
                "value": "0x0"
            },
            "transactionType": "CALL"
        }
    ]
}
