{
    "chain": 84532,
    "commit": "f74378f",
    "libraries": [],
    "pending": [],
    "receipts": [
        {
            "blockHash": "0x6d04c3df438f2dfb6d7b352640c7a52505bfa319845acd63d9d9609073a8002f",
            "blockNumber": "0x11fcc21",
            "contractAddress": null,
            "cumulativeGasUsed": "0x124263",
            "effectiveGasPrice": "0x18898",
            "from": "0x5fcfdc65044bf008a6b473512d34102282ee43a6",
            "gasUsed": "0xf062",
            "l1BaseFeeScalar": "0x44d",
            "l1BlobBaseFee": "0x1",
            "l1BlobBaseFeeScalar": "0xa118b",
            "l1Fee": "0x27048248c",
            "l1GasPrice": "0x1626226bd",
            "l1GasUsed": "0x640",
            "logs": [],
            "logsBloom": "0x00000000000000000000000000000000000000000000000000000000000000000000000000000000000000000000000000000000000000000000000000000000000000000000000000000000000000000000000000000000000000000000000000000000000000000000000000000000000000000000000000000000000000000000000000000000000000000000000000000000000000000000000000000000000000000000000000000000000000000000000000000000000000000000000000000000000000000000000000000000000000000000000000000000000000000000000000000000000000000000000000000000000000000000000000000000",
            "status": "0x1",
            "to": "0xe7c25606dfd883e1a1d1ab88c7678f4f9123fa4e",
            "transactionHash": "0x5d816d72894e5066eb865ad1ca7d90112bedb5587e7538d4374caea59ec408e1",
            "transactionIndex": "0xd",
            "type": "0x2"
        }
    ],
    "returns": {},
    "timestamp": 1733490466,
    "transactions": [
        {
            "additionalContracts": [],
            "arguments": ["0", "0", "0", "1000000000000000000"],
            "contractAddress": "0xe7c25606dfd883e1a1d1ab88c7678f4f9123fa4e",
            "contractName": null,
            "function": "initialize(uint48,uint24,uint48,uint256)",
            "hash": "0x5d816d72894e5066eb865ad1ca7d90112bedb5587e7538d4374caea59ec408e1",
            "isFixedGasLimit": false,
            "transaction": {
                "chainId": "0x14a34",
                "from": "0x5fcfdc65044bf008a6b473512d34102282ee43a6",
                "gas": "0x15f8f",
                "input": "0x9234d7810000000000000000000000000000000000000000000000000000000000000000000000000000000000000000000000000000000000000000000000000000000000000000000000000000000000000000000000000000000000000000000000000000000000000000000000000000000000000000000000000de0b6b3a7640000",
                "nonce": "0x1a",
                "to": "0xe7c25606dfd883e1a1d1ab88c7678f4f9123fa4e",
                "value": "0x0"
            },
            "transactionType": "CALL"
        }
    ]
}
