{
    "chain": 84532,
    "commit": "3cccc39",
    "libraries": [],
    "pending": [],
    "receipts": [
        {
            "blockHash": "0x24a271d5e2b4dae84653b2bd23d04d0faea8cb813703783bbbced87eed3716bf",
            "blockNumber": "0x11fcb5d",
            "contractAddress": null,
            "cumulativeGasUsed": "0x204d06",
            "effectiveGasPrice": "0x698",
            "from": "0x5fcfdc65044bf008a6b473512d34102282ee43a6",
            "gasUsed": "0x11393",
            "l1BaseFeeScalar": "0x44d",
            "l1BlobBaseFee": "0x1",
            "l1BlobBaseFeeScalar": "0xa118b",
            "l1Fee": "0x2d9717238",
            "l1GasPrice": "0x19e147414",
            "l1GasUsed": "0x640",
            "logs": [
                {
                    "address": "0x6837fa8e3af4c82f5ea7ac6ecbecfe65dae8877f",
                    "blockHash": "0x24a271d5e2b4dae84653b2bd23d04d0faea8cb813703783bbbced87eed3716bf",
                    "blockNumber": "0x11fcb5d",
                    "data": "0x",
                    "logIndex": "0x1c",
                    "removed": false,
                    "topics": [
                        "0x2ae6a113c0ed5b78a53413ffbb7679881f11145ccfba4fb92e863dfcd5a1d2f3",
                        "0x6d616e6167657200000000000000000000000000000000000000000000000000",
                        "0x0000000000000000000000005fcfdc65044bf008a6b473512d34102282ee43a6"
                    ],
                    "transactionHash": "0x03e1219a967547b782654e6acd21c3fd8231164915839d7e769c717792256a89",
                    "transactionIndex": "0xb"
                }
            ],
            "logsBloom": "0x00000000000000000000000000000040000800200000000020000000000000000000000000000000000000000000000020000000000000000000000000000000200000000000000000400000000000000000000000000000000000000000000000000000000000000000000004000000000000000000800000000000000000000000000000000000000000000000000000000200000000000000000000000000000000000000000000000000000000000000000000000000000000000000000000000000000000000000000000000000000000000000000000000000000000000000004000000000000000010000000000000000000000000000000000000000",
            "status": "0x1",
            "to": "0xe35078af106ce3f02d6a1125427eb5a7c900b69e",
            "transactionHash": "0x03e1219a967547b782654e6acd21c3fd8231164915839d7e769c717792256a89",
            "transactionIndex": "0xb",
            "type": "0x2"
        }
    ],
    "returns": {},
    "timestamp": 1733490075,
    "transactions": [
        {
            "additionalContracts": [],
            "arguments": [
                "0x6d616e6167657200000000000000000000000000000000000000000000000000",
                "0x5fCfdc65044bf008A6b473512D34102282Ee43a6"
            ],
            "contractAddress": "0xe35078af106ce3f02d6a1125427eb5a7c900b69e",
            "contractName": null,
            "function": "grantRole(bytes32,address)",
            "hash": "0x03e1219a967547b782654e6acd21c3fd8231164915839d7e769c717792256a89",
            "isFixedGasLimit": false,
            "transaction": {
                "chainId": "0x14a34",
                "from": "0x5fcfdc65044bf008a6b473512d34102282ee43a6",
                "gas": "0x19306",
                "input": "0x2f2ff15d6d616e61676572000000000000000000000000000000000000000000000000000000000000000000000000005fcfdc65044bf008a6b473512d34102282ee43a6",
                "nonce": "0x19",
                "to": "0xe35078af106ce3f02d6a1125427eb5a7c900b69e",
                "value": "0x0"
            },
            "transactionType": "CALL"
        }
    ]
}
